:100000000C94E4000C9405010C9405010C9405017A
:100010000C9405010C9405010C9405010C94050148
:100020000C9405010C9405010C9405010C94050138
:100030000C9405010C9405010C9405010C94050128
:100040000C9405010C9405010C9405010C94050118
:100050000C9405010C9405010C9405010C94050108
:100060000C9405010C9405010C9405010C940501F8
:100070000C9405010C9405010C9405010C940501E8
:100080000C9405010C9405010C9405010C940501D8
:100090000C9405010C9405010C9405010C940501C8
:1000A0000C9405010C9405010C9405010C940501B8
:1000B0000C9405010C9405010C9405010C940501A8
:1000C0000C9405010C9405010C9405010C94050198
:1000D0000C9405010C9405010C9405010C94050188
:1000E0000C9405010C9405010C9405010C94050178
:1000F0000C9405010C9405010C9405010C94050168
:100100000C9405010C9405010C9405010C94050157
:100110000C9405010C9405010C9405010C94050147
:100120000C9405010C9405010C9405010C94050137
:100130000C9405010C9405010C9405010C94050127
:100140000C9405010C9405010C9405010C94050117
:100150000C9405010C9405010C9405010C94050107
:100160000C9484010C945A010C9405010C94050123
:100170000C9405010C9405010C9405010C940501E7
:100180000C9405010C9405010C9405010C940501D7
:100190000C9405010C9405010C9405010C940501C7
:1001A0000C9405010C9405010C9405010C940501B7
:1001B0000C9405010C9405010C9405010C940501A7
:1001C0000C9405010C94050111241FBECFEFDFE351
:1001D000DEBFCDBF00E00CBF10E2A0E0B0E2E6E67B
:1001E000FCE300E00BBF02C007900D92A831B107FD
:1001F000D9F711E2A8E1B0E201C01D92A732B10720
:10020000E1F70E9407010C94311E0C9400001F932B
:10021000E0E6F6E018E0118384E082838CE190E26E
:1002200060EA79E041E00E94E702E0911C20F09151
:100230001D2083E0858383818F7C80618383A0EA96
:10024000B9E016961C93169780E117968C938481DB
:10025000806184838481886084838091A20081602E
:10026000E0EAF0E08283789410E011C08CE190E243
:100270000E942B03882351F08CE190E20E94350309
:10028000E12FF0E0E75EFF4D80831F5F1F5F1330BB
:1002900068F310E0E12FF0E0E75EFF4D8CE190E2C3
:1002A00060810E9402038823A9F31F5F133090F33B
:1002B00010E0DCCF1F920F920FB60F920BB60F9289
:1002C00011242F933F934F935F936F937F938F935B
:1002D0009F93AF93BF93EF93FF938CE190E20E94C3
:1002E0006003FF91EF91BF91AF919F918F917F91AB
:1002F0006F915F914F913F912F910F900BBE0F9097
:100300000FBE0F901F9018951F920F920FB60F926D
:100310000BB60F9211242F933F934F935F936F93DC
:100320007F938F939F93AF93BF93EF93FF938CE152
:1003300090E20E944103FF91EF91BF91AF919F9195
:100340008F917F916F915F914F913F912F910F907E
:100350000BBE0F900FBE0F901F901895AF92CF92CB
:10036000EF920F93DC01FA016D937C931197129633
:100370004D935C93139714961C92149780E181839C
:10038000ED91FC911197CC2011F490E001C090E820
:10039000222311F480E001C080E200650A29902B3D
:1003A000892B8083ED91FC911197E18215961D9226
:1003B0001C9216971296ED91FC91139780EA818317
:1003C0000F91EF90CF90AF900895EF920F93DC01D3
:1003D000FB016D937C93119712964D935C93139749
:1003E000222311F480E401C080E6802B8083ED910C
:1003F000FC911197E1821296ED91FC91139780E4A4
:1004000081830F91EF900895EF920F931F93FC015A
:1004100000831183E2826383748345835683278339
:10042000108611861F910F91EF900895CF93DF935F
:10043000DC011596CD91DC9116979885ED91FC9194
:100440001197808184FD05C081E014968C931497E8
:1004500024C08381ED81FE81E90FF11D80839F5FC0
:100460001596ED91FC9116978781981758F40380A3
:10047000F481E02DE90FF11D8081ED91FC91119740
:1004800083830BC082810190F081E02D85831596D6
:10049000ED91FC91169781E081871596ED91FC9185
:1004A00016979087DF91CF910895CF93DF93DC016A
:1004B000EB0114969C9114971596ED91FC9116976B
:1004C000309729F415966D937C93169710C081850B
:1004D000882311F482E028C0992349F01296ED9107
:1004E000FC911397848184FD02C081E01DC01596A4
:1004F000CD93DC931697198614961C9214978A81D3
:10050000E881F98186831596ED91FC911697108606
:100510001596ED91FC9116970380F481E02D808172
:10052000ED91FC91838380E0DF91CF910895FC01F0
:10053000A081B18113966C930190F081E02D8281AE
:1005400087FFFDCF83810895CF93DF93EC01FB01FB
:100550006115710511F480E037C06D837E8342819F
:10056000A081B181109711F016964C93678190E0AD
:100570001AC0292F30E00380F481E02DE20FF31F31
:100580008081E881F9818383E881F981828187FF15
:10059000FDCF8381ED81FE810580F681E02DE20FA4
:1005A000F31F80839F5FED81FE81961710F301900A
:1005B000F081E02D309709F04583ED81FE81608761
:1005C000ED81FE8181E08187DF91CF910895FC016B
:1005D000608371834283E85FFE4F108212923396EC
:1005E000108212920895FC0162830895FC01E75F76
:1005F000FE4F8191908120E08F5F8370891321E00D
:10060000822F0895CF93DF93DC01EC01C75FDE4FAB
:100610008881A65FBE4F9C91AA50B14020E08F5FB9
:1006200083708917A1F021E08881FD01E80FF11D99
:10063000ED5FFE4F60838F5F83708883ED91FC9147
:10064000119783818C7F12969C91892B8383822FB3
:10065000DF91CF910895FC01E95FFE4F9191808178
:1006600020E0981321E0822F0895FC01DC01A85FAF
:10067000BE4F8C91E80FF11D83819C919F5F9C93ED
:100680000895CF93DF93DC01EC01C95FDE4F9881C1
:100690009F5FA85FBE4F8C91A850B140ED91FC9137
:1006A0001197E081981711F480E007C08881A80FA6
:1006B000B11D1396EC93988381E0DF91CF9108955B
:1006C000CF93DF93FC01EC01C65FDE4F9881E75FBB
:1006D000FE4F8081E950F140A081B181891739F442
:1006E00013968C9113978C7F13968C930BC08881F3
:1006F000E80FF11DED5FFE4F80818C9388818F5F45
:1007000083708883DF91CF910895FC0170FF03C04F
:100710008481816002C084818E7F84836083089598
:10072000FC01848180FF05C08081282F30E031608A
:1007300003C08081282F30E0C90108952F923F9295
:100740004F925F926F927F928F929F92AF92BF92E1
:10075000CF92DF92EF92FF920F931F93DF93CF938D
:10076000CDB7DEB7C454D040CDBFDEBF24968FAF27
:10077000249725969FAF259723964EAF5FAF23977B
:10078000FE01319680E4DF011D928A95E9F71B0195
:10079000442455245AC0F101EA0DFB1D608171818A
:1007A00082819381F60120813181428153810E94AF
:1007B000CE1D9B01AC01C801B7010E94891C7B01C1
:1007C0008C0184E090E0A80EB91EA0E1B0E0CA0E52
:1007D000DB1EB0E1AB16B104F1F6F401E192F19247
:1007E000019311934F010894611C711CF4E06F1682
:1007F000710499F0D401ED90FD900D911C9163016D
:10080000CC0CDD1CCC0CDD1C2396EEADFFAD23978C
:10081000CE0EDF1EAA24BB24BECF0894411C511C5F
:1008200080E190E0280E391E94E04916510469F4E5
:10083000FE01319624968FAD249725969FAD25977E
:100840009C01AE014F5B5F4F0FC0420184E0880CFA
:10085000991C8A95E1F7A1E0B0E0AC0FBD1F8A0EAC
:100860009B1E66247724C6CFE080F180028113812D
:10087000D901ED92FD920D931C931397E480F580BE
:10088000068117811496ED92FD920D931C93179794
:10089000E084F184028513851896ED92FD920D9304
:1008A0001C931B97E484F584068517851C96ED92AE
:1008B000FD920D931C931F977096205F3F4FE41796
:1008C000F50791F6CC5BDF4FCDBFDEBFCF91DF9157
:1008D0001F910F91FF90EF90DF90CF90BF90AF905E
:1008E0009F908F907F906F905F904F903F902F9050
:1008F00008952F923F924F925F926F927F928F92C4
:100900009F92AF92BF92CF92DF92EF92FF920F939E
:100910001F93DF93CF93CDB7DEB76297CDBFDEBF16
:10092000898B9A8B2A01FE01319680E1DF011D92AD
:100930008A95E9F73B018824992438E0232E312C4D
:10094000240E351E4CC0F301608171818281938138
:10095000D6012D913D914D915C910E94CE1DF501E6
:1009600020813181428153810E94891C7B018C014D
:10097000D30114966D917D918D919C911797F601FD
:1009800020853185428553850E94CE1D9B01AC0197
:10099000C801B7010E94891CD5016D937D938D9389
:1009A0009D935D01E4E0F0E0CE0EDF1EC214D3049F
:1009B00051F60894811C911C88E090E0680E791E25
:1009C00092E08916910459F4AE014F5F5F4F898917
:1009D0009A899C01F9019E012F5E3F4F0EC0540180
:1009E00023E0AA0CBB1C2A95E1F7A1E0B0E0AC0F14
:1009F000BD1FAA0EBB1E6201A6CFDA01AD90BD904D
:100A0000CD90DC901397A082B182C282D3821496DB
:100A1000AD90BD90CD90DC901797A482B582C68230
:100A2000D782485F5F4F38964217530731F7629677
:100A3000CDBFDEBFCF91DF911F910F91FF90EF905F
:100A4000DF90CF90BF90AF909F908F907F906F90EE
:100A50005F904F903F902F9008954F925F926F92CA
:100A60007F928F929F92AF92BF92CF92DF92EF923E
:100A7000FF920F931F93DF93CF93CDB7DEB72897E5
:100A8000CDBFDEBF3C014A01DE011196EFE0F0E28E
:100A900088E001900D928150E1F75E010894A11C5D
:100AA000B11C6B0149E0442E512C4C0E5D1EF60129
:100AB0006081718182819381F40120813181428141
:100AC00053810E94CE1DF5012081318142815381E5
:100AD0000E94891C7B018C01F601648175818681ED
:100AE0009781F40124813581468157810E94CE1D72
:100AF0009B01AC01C801B7010E94891CF5016193FB
:100B00007193819391935F0188E090E0C80ED91EA4
:100B1000E415F50561F689819A81AB81BC81F30109
:100B200080839183A283B3838D819E81AF81B885B9
:100B300084839583A683B7832896CDBFDEBFCF91EC
:100B4000DF911F910F91FF90EF90DF90CF90BF90BA
:100B5000AF909F908F907F906F905F904F9008958F
:100B60008F929F92AF92BF92CF92DF92EF92FF92BD
:100B70000F931F93CF93DF93480159016B017A01C3
:100B8000EC0100E010E0C501B401F70120813181E2
:100B9000428153810E94CE1D9B01AC01F601608110
:100BA0007181828193810E94891C688379838A8301
:100BB0009B83C501B401F7012481358146815781AA
:100BC0000E94CE1D9B01AC01F60164817581868176
:100BD00097810E94891C6C837D838E839F830F5F26
:100BE0001F4F88E090E0C80ED91EE80EF91E289627
:100BF0000230110541F6DF91CF911F910F91FF90C7
:100C0000EF90DF90CF90BF90AF909F908F9008951E
:100C10008F929F92AF92BF92CF92DF92EF92FF920C
:100C20000F931F934C015B016A0178018901C80190
:100C3000B701FA0120813181428153810E94CE1D8A
:100C40009B01AC01F50160817181828193810E94D9
:100C5000891CF4016083718382839383C801B70187
:100C6000F60124813581468157810E94CE1D9B016A
:100C7000AC01F50164817581868197810E94891C90
:100C8000F40164837583868397831F910F91FF908E
:100C9000EF90DF90CF90BF90AF909F908F9008958E
:100CA0002F923F924F925F926F927F928F929F927C
:100CB000AF92BF92CF92DF92EF92FF920F931F936A
:100CC000DF93CF93CDB7DEB76697CDBFDEBF8D8BF9
:100CD0009E8BFB0180819181A281B381898B9A8B4C
:100CE000AB8BBC8BA484B584C684D78464807580A8
:100CF000868097802084318442845384BC01CD0156
:100D0000A60195010E94CE1D7B018C01C401B30197
:100D1000A20191010E94CE1D9B01AC01C801B70147
:100D20000E94881C7B018C0120E030E040E050E014
:100D30000E94ED1C882309F450C0C601B501A8012A
:100D400097010E94F11C69837A838B839C83C40181
:100D5000B3019058A80197010E94F11C6D837E8316
:100D60008F839887C201B1019058A80197010E9412
:100D7000F11C69877A878B879C8769897A898B8937
:100D80009C89A80197010E94F11C6D877E878F873F
:100D9000988BAE014F5F5F4F2D893E89C901FC01E1
:100DA0009E012F5E3F4FDA01ED90FD900D911C9159
:100DB0001397E082F182028313831496ED90FD90E5
:100DC0000D911C911797E482F58206831783485F83
:100DD0005F4F38964217530731F76696CDBFDEBF97
:100DE000CF91DF911F910F91FF90EF90DF90CF9007
:100DF000BF90AF909F908F907F906F905F904F903B
:100E00003F902F9008952F923F924F925F926F9252
:100E10007F928F929F92AF92BF92CF92DF92EF928A
:100E2000FF920F931F93DF93CF93CDB7DEB7C655D5
:100E3000D040CDBFDEBF8C01DC011C968D919D9111
:100E40000D90BC91A02D8DA39EA3AFA3B8A760E188
:100E5000E62EF12CE00EF11ED70118968D919D9192
:100E60000D90BC91A02D89A39AA3ABA3BCA36DA1A7
:100E70007EA18FA198A529A13AA14BA15CA10E94B6
:100E8000CE1D69A77AA78BA79CA750E2C52ED12CAF
:100E9000C00ED11ED60114968D919D910D90BC91DE
:100EA000A02D8D8F9E8FAF8FB8A3F801F096679617
:100EB000EEAFFFAF6797D801D0968D919D910D90C1
:100EC000BC91A02D898F9A8FAB8FBC8FD8011896BB
:100ED0008D919D910D90BC91A02D8D8B9E8BAF8B94
:100EE000B88FF7016484758486849784BC01CD0132
:100EF000A40193010E94CE1D6DA77EA78FA798AB7A
:100F0000D70114968D919D910D90BC91A02D898B48
:100F10009A8BAB8BBC8B6DA17EA18FA198A52989E3
:100F20003A894B895C890E94CE1D69AB7AAB8BAB49
:100F30009CABD60118968D919D910D90BC91A02DE2
:100F40008D879E87AF87B88BF801248035804680D7
:100F50005780C201B101A40193010E94CE1D6DAB67
:100F60007EAB8FAB98AF6D897E898F89988D2989EB
:100F70003A894B895C890E94CE1D69AF7AAF8BAFED
:100F80009CAFD6011C968D919D910D90BC91A02D8A
:100F900089879A87AB87BC87C201B10129A13AA191
:100FA0004BA15CA10E94CE1D21966CAF7DAF8EAF90
:100FB0009FAF2197D80190968D919D910D90BC91F6
:100FC000A02D8D839E83AF83B8876796AEADBFADEE
:100FD000679714968D919D910D90BC91A02D89835A
:100FE0009A83AB83BC83F801A088B188C288D38878
:100FF0006DA17EA18FA198A5A60195010E94CE1D8D
:1010000025966CAF7DAF8EAF9FAF2597D801ED9041
:10101000FD900D911C91C801B701A40193010E949C
:10102000CE1D29966CAF7DAF8EAF9FAF29976D898E
:101030007E898F89988DA60195010E94CE1D2D96DF
:101040006CAF7DAF8EAF9FAF2D97C801B70129A1BF
:101050003AA14BA15CA10E94CE1D61966CAF7DAF01
:101060008EAF9FAF61976796EEADFFAD67976084D7
:10107000718482849384C201B101A60195010E940A
:10108000CE1D1B012C01C801B70129893A894B8962
:101090005C890E94CE1D65966CAF7DAF8EAF9FAF11
:1010A00065976796AEADBFAD67971C96AD90BD9046
:1010B000CD90DC901F9769A57AA58BA59CA52D8D59
:1010C0003E8D4F8D58A10E94CE1D298D3A8D4B8D9E
:1010D0005C8D0E94CE1D7B018C016DA57EA58FA528
:1010E00098A92D8D3E8D4F8D58A10E94CE1D298D22
:1010F0003A8D4B8D5C8D0E94CE1D9B01AC01C801C9
:10110000B7010E94881C7B018C0169A97AA98BA96F
:101110009CA92D853E854F8558890E94CE1D298D1D
:101120003A8D4B8D5C8D0E94CE1D9B01AC01C80198
:10113000B7010E94881C7B018C016DA97EA98FA933
:1011400098AD2D853E854F8558890E94CE1D298DED
:101150003A8D4B8D5C8D0E94CE1D9B01AC01C80168
:10116000B7010E94891C7B018C0169AD7AAD8BAD02
:101170009CAD29853A854B855C850E94CE1D298DC5
:101180003A8D4B8D5C8D0E94CE1D9B01AC01C80138
:10119000B7010E94891C7B018C0121966CAD7DAD4D
:1011A0008EAD9FAD219729853A854B855C850E9440
:1011B000CE1D298D3A8D4B8D5C8D0E94CE1D9B01DD
:1011C000AC01C801B7010E94881C7B018C0169A594
:1011D0007AA58BA59CA52D813E814F8158850E94C3
:1011E000CE1D29813A814B815C810E94CE1D9B01DD
:1011F000AC01C801B7010E94881C7B018C016DA560
:101200007EA58FA598A92D813E814F8158850E948A
:10121000CE1D29813A814B815C810E94CE1D9B01AC
:10122000AC01C801B7010E94891C7B018C01259685
:101230006CAD7DAD8EAD9FAD25972D853E854F85DF
:1012400058890E94CE1D29813A814B815C810E9480
:10125000CE1D9B01AC01C801B7010E94891C7B0116
:101260008C0129966CAD7DAD8EAD9FAD29972D85F6
:101270003E854F8558890E94CE1D29813A814B8138
:101280005C810E94CE1D9B01AC01C801B7010E9488
:10129000881C7B018C012D966CAD7DAD8EAD9FAD14
:1012A0002D9729853A854B855C850E94CE1D298125
:1012B0003A814B815C810E94CE1D9B01AC01C8012B
:1012C000B7010E94881C7B018C0161966CAD7DADDD
:1012D0008EAD9FAD619729853A854B855C850E94CF
:1012E000CE1D29813A814B815C810E94CE1D9B01DC
:1012F000AC01C801B7010E94891C7B018C0169A95E
:101300007AA98BA99CA92D813E814F8158850E9485
:10131000CE1DA40193010E94CE1D9B01AC01C8010A
:10132000B7010E94891C7B018C016DA97EA98FA940
:1013300098AD2D813E814F8158850E94CE1DA4011C
:1013400093010E94CE1D9B01AC01C801B7010E9410
:10135000881C7B018C0125966CAD7DAD8EAD9FAD5B
:1013600025972D8D3E8D4F8D58A10E94CE1DA40135
:1013700093010E94CE1D9B01AC01C801B7010E94E0
:10138000881C7B018C0129966CAD7DAD8EAD9FAD27
:1013900029972D8D3E8D4F8D58A10E94CE1DA40101
:1013A00093010E94CE1D9B01AC01C801B7010E94B0
:1013B000891C7B018C01C201B10129853A854B85CD
:1013C0005C850E94CE1DA40193010E94CE1D9B014D
:1013D000AC01C801B7010E94891C7B018C01659694
:1013E0006CAD7DAD8EAD9FAD659729853A854B85FA
:1013F0005C850E94CE1DA40193010E94CE1D9B011D
:10140000AC01C801B7010E94881C7B018C0169AD49
:101410007AAD8BAD9CAD2D813E814F8158850E9468
:10142000CE1DA60195010E94CE1D9B01AC01C801F5
:10143000B7010E94881C7B018C0121966CAD7DADAB
:101440008EAD9FAD21972D813E814F8158850E94A1
:10145000CE1DA60195010E94CE1D9B01AC01C801C5
:10146000B7010E94891C7B018C012D966CAD7DAD6E
:101470008EAD9FAD2D972D8D3E8D4F8D58A10E9425
:10148000CE1DA60195010E94CE1D9B01AC01C80195
:10149000B7010E94891C7B018C0161966CAD7DAD0A
:1014A0008EAD9FAD61972D8D3E8D4F8D58A10E94C1
:1014B000CE1DA60195010E94CE1D9B01AC01C80165
:1014C000B7010E94881C7B018C01C201B1012D85EE
:1014D0003E854F8558890E94CE1DA60195010E9428
:1014E000CE1D9B01AC01C801B7010E94881C7B0185
:1014F0008C0165966CAD7DAD8EAD9FAD65972D85EC
:101500003E854F8558890E94CE1DA60195010E94F7
:10151000CE1D9B01AC01C801B7010E94891CCA5AAB
:10152000DF4FCDBFDEBFCF91DF911F910F91FF90B5
:10153000EF90DF90CF90BF90AF909F908F907F9073
:101540006F905F904F903F902F9008952F923F9211
:101550004F925F926F927F928F929F92AF92BF92C3
:10156000CF92DF92EF92FF920F931F93DF93CF936F
:10157000CDB7DEB7C05CD040CDBFDEBF8DAB9EAB7C
:10158000C154DF4F68837983CF5BD040CB010E9489
:10159000030769837A838B839C8320E030E040E0FB
:1015A00050E00E94ED1C882321F420E030E00C94F0
:1015B000D615E0E1EE2EF12CC154DF4F88819981E0
:1015C000CF5BD040E80EF91ED70118968D919D9102
:1015D0000D90BC91A02D89AB9AABABABBCABC15409
:1015E000DF4F08811981CF5BD040005E1F4FD801CB
:1015F0001C968D919D910D90BC91A02D8DA79EA7BD
:10160000AFA7B8AB69A97AA98BA99CA92DA53EA5BE
:101610004FA558A90E94CE1D6FAB78AF89AF9AAF86
:1016200070E3C72ED12CC154DF4FE881F981CF5B25
:10163000D040CE0EDF1ED60114968D919D910D9057
:10164000BC91A02D89A79AA7ABA7BCA7D7011C96D0
:101650008D919D910D90BC91A02D8DA39EA3AFA3C4
:10166000B8A7D80118968D919D910D90BC91A02D91
:1016700089A39AA3ABA3BCA36DA17EA18FA198A5BA
:1016800029A13AA14BA15CA10E94CE1D6BAF7CAFFA
:101690008DAF9EAFD80114968D919D910D90BC9108
:1016A000A02D8D8F9E8FAF8FB8A36DA17EA18FA12E
:1016B00098A52D8D3E8D4F8D58A10E94CE1D23964D
:1016C0006CAF7DAF8EAF9FAF2397D60118968D91EB
:1016D0009D910D90BC91A02D898F9A8FAB8FBC8F5F
:1016E000D70114968D919D910D90BC91A02D8D8B5D
:1016F0009E8BAF8BB88FBC01CD012DA53EA54FA50C
:1017000058A90E94CE1D27966CAF7DAF8EAF9FAFBC
:10171000279769A97AA98BA99CA92D8D3E8D4F8DFC
:1017200058A10E94CE1D2B966CAF7DAF8EAF9FAFA0
:101730002B97D6011C968D919D910D90BC91A02D5B
:10174000898B9A8BAB8BBC8B6D897E898F89988DA9
:1017500029A13AA14BA15CA10E94CE1D2F966CAF8E
:101760007DAF8EAF9FAF2F97C154DF4FE881F981D6
:10177000CF5BD0406484758486849784C401B301B0
:1017800029A13AA14BA15CA10E94CE1D63966CAF2A
:101790007DAF8EAF9FAF6397C154DF4FA881B981F2
:1017A000CF5BD04018962D903D904D905C901B974C
:1017B000C201B1012DA53EA54FA558A90E94CE1D7D
:1017C00067966CAF7DAF8EAF9FAF6797C401B301D3
:1017D0002D8D3E8D4F8D58A10E94CE1D6B966CAF06
:1017E0007DAF8EAF9FAF6B97C154DF4FA881B9819A
:1017F000CF5BD04014968D919D910D90BC91A02D02
:101800008D879E87AF87B88BBC01CD012DA53EA5E6
:101810004FA558A90E94CE1D6F966CAF7DAF8EAFBD
:101820009FAF6F97C201B1012D8D3E8D4F8D58A195
:101830000E94CE1DA3966CAF7DAF8EAF9FAFA397D6
:101840006D857E858F85988929A13AA14BA15CA1E0
:101850000E94CE1DA7966CAF7DAF8EAF9FAFA797AE
:10186000C201B1012DA13EA14FA158A50E94CE1DDC
:10187000AB966CAF7DAF8EAF9FAFAB97C401B3019A
:1018800029A93AA94BA95CA90E94CE1DAF966CAFBD
:101890007DAF8EAF9FAFAF97C401B3012D893E8955
:1018A0004F89588D0E94CE1DE3966CAF7DAF8EAFF1
:1018B0009FAFE3976D857E858F8598892DA13EA189
:1018C0004FA158A50E94CE1DE7966CAF7DAF8EAF9D
:1018D0009FAFE797C201B1012D893E894F89588D8D
:1018E0000E94CE1DEB966CAF7DAF8EAF9FAFEB9796
:1018F0006D857E858F85988929A93AA94BA95CA910
:101900000E94CE1DEF966CAF7DAF8EAF9FAFEF976D
:10191000C154DF4FA881B981CF5BD040D0968D9163
:101920009D910D90BC91A02D89879A87AB87BC872C
:10193000C154DF4FA881B981CF5BD04090968D9183
:101940009D910D90BC91A02D8D839E83AF83B88710
:101950006DA17EA18FA198A52D813E814F815885D3
:101960000E94CE1DC158DF4F688379838A839B8391
:10197000CF57D040C154DF4FE881F981CF5BD040D1
:10198000A088B188C288D388C601B5012DA53EA51F
:101990004FA558A90E94CE1DCD57DF4F688379838C
:1019A0008A839B83C358D04069A97AA98BA99CA933
:1019B0002D813E814F8158850E94CE1DC957DF4F32
:1019C000688379838A839B83C758D040C601B50159
:1019D00029A13AA14BA15CA10E94CE1DC557DF4FA2
:1019E000688379838A839B83CB58D040C401B30139
:1019F0002D813E814F8158850E94CE1DC157DF4FFA
:101A0000688379838A839B83CF58D040C154DF4F4A
:101A1000A881B981CF5BD040ED90FD900D911C91D4
:101A2000C801B7012DA53EA54FA558A90E94CE1DFE
:101A3000CD56DF4F688379838A839B83C359D04017
:101A4000C201B1012D813E814F8158850E94CE1D7A
:101A5000C956DF4F688379838A839B83C759D040F7
:101A6000C801B70129A13AA14BA15CA10E94CE1DDA
:101A7000C556DF4F688379838A839B83CB59D040D7
:101A8000C401B301A60195010E94CE1D3B014C018A
:101A9000C801B7012DA13EA14FA158A50E94CE1D9E
:101AA000C156DF4F688379838A839B83CF59D040A7
:101AB000C201B101A60195010E94CE1DCD55DF4F97
:101AC000688379838A839B83C35AD040C801B70156
:101AD00029A93AA94BA95CA90E94CE1DC955DF4F7F
:101AE000688379838A839B83C75AD0406D897E89B6
:101AF0008F89988D2D813E814F8158850E94CE1D02
:101B0000C555DF4F688379838A839B83CB5AD04046
:101B1000C601B5012D8D3E8D4F8D58A10E94CE1D61
:101B2000C155DF4F688379838A839B83CF5AD04026
:101B30006D857E858F8598892D813E814F81588561
:101B40000E94CE1DCD54DF4F688379838A839B83A7
:101B5000C35BD040C801B7012D8D3E8D4F8D58A17C
:101B60000E94CE1DC954DF4F688379838A839B838B
:101B7000C75BD0406D857E858F859889A6019501CC
:101B80000E94CE1D1B012C01C801B7012D893E8981
:101B90004F89588D0E94CE1DC554DF4F68837983CD
:101BA0008A839B83CB5BD0406FA978AD89AD9AAD1A
:101BB00029A53AA54BA55CA50E94CE1D7B018C01F1
:101BC0006BAD7CAD8DAD9EAD29A53AA54BA55CA5B1
:101BD0000E94CE1D9B01AC01C801B7010E94881C68
:101BE0007B018C0123966CAD7DAD8EAD9FAD2397AF
:101BF000298D3A8D4B8D5C8D0E94CE1D9B01AC01D1
:101C0000C801B7010E94891C7B018C0127966CAD2D
:101C10007DAD8EAD9FAD2797298D3A8D4B8D5C8D17
:101C20000E94CE1D9B01AC01C801B7010E94881C17
:101C30007B018C012B966CAD7DAD8EAD9FAD2B974E
:101C400029893A894B895C890E94CE1D9B01AC0190
:101C5000C801B7010E94881C7B018C012F966CADD6
:101C60007DAD8EAD9FAD2F9729893A894B895C89CF
:101C70000E94CE1D9B01AC01C801B7010E94891CC6
:101C800029813A814B815C810E94F11CEDA9FEA95A
:101C9000608371838283938363966CAD7DAD8EADDB
:101CA0009FAD639729A53AA54BA55CA50E94CE1DC3
:101CB0007B018C0167966CAD7DAD8EAD9FAD679756
:101CC00029A53AA54BA55CA50E94CE1D9B01AC01A0
:101CD000C801B7010E94881C7B018C016B966CAD1A
:101CE0007DAD8EAD9FAD6B97298D3A8D4B8D5C8D03
:101CF0000E94CE1D9B01AC01C801B7010E94881C47
:101D00007B018C016F966CAD7DAD8EAD9FAD6F97F5
:101D1000298D3A8D4B8D5C8D0E94CE1D9B01AC01AF
:101D2000C801B7010E94891C7B018C01A3966CAD90
:101D30007DAD8EAD9FADA39729893A894B895C898A
:101D40000E94CE1D9B01AC01C801B7010E94891CF5
:101D50007B018C01A7966CAD7DAD8EAD9FADA79735
:101D600029893A894B895C890E94CE1D9B01AC016F
:101D7000C801B7010E94881C29813A814B815C818E
:101D80000E94F11CADA9BEA914966D937D938D930D
:101D90009C931797AB966CAD7DAD8EAD9FADAB9719
:101DA00029A53AA54BA55CA50E94CE1D7B018C01FF
:101DB000AF966CAD7DAD8EAD9FADAF9729A53AA521
:101DC0004BA55CA50E94CE1D9B01AC01C801B701CB
:101DD0000E94881C7B018C01E3966CAD7DAD8EADBD
:101DE0009FADE397298D3A8D4B8D5C8D0E94CE1D62
:101DF0009B01AC01C801B7010E94891C7B018C01C9
:101E0000E7966CAD7DAD8EAD9FADE797298D3A8D90
:101E10004B8D5C8D0E94CE1D9B01AC01C801B701AA
:101E20000E94881C7B018C01EB966CAD7DAD8EAD64
:101E30009FADEB9729893A894B895C890E94CE1D19
:101E40009B01AC01C801B7010E94881C7B018C0179
:101E5000EF966CAD7DAD8EAD9FADEF9729893A8938
:101E60004B895C890E94CE1D9B01AC01C801B70162
:101E70000E94891C29813A814B815C810E94F11C5E
:101E8000EDA9FEA96087718782879387AF966CADB5
:101E90007DAD8EAD9FADAF972D8D3E8D4F8D58A1F1
:101EA0000E94CE1D7B018C01AB966CAD7DAD8EADDD
:101EB0009FADAB972D8D3E8D4F8D58A10E94CE1DAD
:101EC0009B01AC01C801B7010E94881C7B018C01F9
:101ED000E3966CAD7DAD8EAD9FADE39729A13AA1A0
:101EE0004BA15CA10E94CE1D9B01AC01C801B701B2
:101EF0000E94881C7B018C01E7966CAD7DAD8EAD98
:101F00009FADE79729A13AA14BA15CA10E94CE1DEC
:101F10009B01AC01C801B7010E94891C7B018C01A7
:101F2000EB966CAD7DAD8EAD9FADEB972DA53EA52F
:101F30004FA558A90E94CE1D9B01AC01C801B70155
:101F40000E94891C7B018C01EF966CAD7DAD8EAD3E
:101F50009FADEF972DA53EA54FA558A90E94CE1D78
:101F60009B01AC01C801B7010E94881C29813A81FC
:101F70004B815C810E94F11CADA9BEA91C966D939A
:101F80007D938D939C931F976D01E0E1F0E0CE0E61
:101F9000DF1E6BAD7CAD8DAD9EAD29853A854B8541
:101FA0005C850E94CE1D7B018C016FA978AD89AD47
:101FB0009AAD29853A854B855C850E94CE1D9B0193
:101FC000AC01C801B7010E94881C7B018C01C1587B
:101FD000DF4F688179818A819B81CF57D040298DDD
:101FE0003A8D4B8D5C8D0E94CE1D9B01AC01C801CA
:101FF000B7010E94881C7B018C01CD57DF4F68819F
:1020000079818A819B81C358D040298D3A8D4B8D2F
:102010005C8D0E94CE1D9B01AC01C801B7010E94DE
:10202000891C7B018C01C957DF4F688179818A81C6
:102030009B81C758D04029893A894B895C890E9485
:10204000CE1D9B01AC01C801B7010E94891C7B0118
:102050008C01C557DF4F688179818A819B81CB587C
:10206000D04029893A894B895C890E94CE1D9B0109
:10207000AC01C801B7010E94881C29813A814B81BB
:102080005C810E94F11CADA9BEA950966D937D9311
:102090008D939C93539767966CAD7DAD8EAD9FAD40
:1020A000679729853A854B855C850E94CE1D7B010B
:1020B0008C0163966CAD7DAD8EAD9FAD6397298528
:1020C0003A854B855C850E94CE1D9B01AC01C80101
:1020D000B7010E94881C7B018C01C157DF4F6881CA
:1020E00079818A819B81CF58D040298D3A8D4B8D43
:1020F0005C8D0E94CE1D9B01AC01C801B7010E94FE
:10210000891C7B018C01CD56DF4F688179818A81E2
:102110009B81C359D040298D3A8D4B8D5C8D0E9497
:10212000CE1D9B01AC01C801B7010E94881C7B0138
:102130008C01C956DF4F688179818A819B81C7599B
:10214000D04029893A894B895C890E94CE1D9B0128
:10215000AC01C801B7010E94881C7B018C01C556E7
:10216000DF4F688179818A819B81CB59D040298951
:102170003A894B895C890E94CE1D9B01AC01C80144
:10218000B7010E94891C29813A814B815C810E94A0
:10219000F11CF6016483758386839783AF966CADDB
:1021A0007DAD8EAD9FADAF9729853A854B855C851A
:1021B0000E94CE1D7B018C01AB966CAD7DAD8EADCA
:1021C0009FADAB9729853A854B855C850E94CE1DD6
:1021D0009B01AC01C801B7010E94881C7B018C01E6
:1021E000C401B301298D3A8D4B8D5C8D0E94CE1DAB
:1021F0009B01AC01C801B7010E94881C7B018C01C6
:10220000C156DF4F688179818A819B81CF59D04047
:10221000298D3A8D4B8D5C8D0E94CE1D9B01AC01AA
:10222000C801B7010E94891C7B018C01CD55DF4F8D
:10223000688179818A819B81C35AD04029893A89F2
:102240004B895C890E94CE1D9B01AC01C801B7017E
:102250000E94891C7B018C01C955DF4F68817981FF
:102260008A819B81C75AD04029893A894B895C89E8
:102270000E94CE1D9B01AC01C801B7010E94881CC1
:1022800029813A814B815C810E94F11CD60118960C
:102290006D937D938D939C931B97AB966CAD7DADA9
:1022A0008EAD9FADAB972D813E814F8158850E94A9
:1022B000CE1D7B018C01AF966CAD7DAD8EAD9FAD1B
:1022C000AF972D813E814F8158850E94CE1D9B0185
:1022D000AC01C801B7010E94881C7B018C01C401BC
:1022E000B30129A13AA14BA15CA10E94CE1D9B0183
:1022F000AC01C801B7010E94891C7B018C01C15649
:10230000DF4F688179818A819B81CF59D04029A193
:102310003AA14BA15CA10E94CE1D9B01AC01C8015A
:10232000B7010E94881C7B018C01CD55DF4F68816D
:1023300079818A819B81C35AD0402DA53EA54FA5A6
:1023400058A90E94CE1D9B01AC01C801B7010E9493
:10235000881C7B018C01C955DF4F688179818A8196
:102360009B81C75AD0402DA53EA54FA558A90E94D4
:10237000CE1D9B01AC01C801B7010E94891C2981B7
:102380003A814B815C810E94F11CF601648775875C
:1023900086879787CDA8DEA880E290E0C80ED91E78
:1023A00027966CAD7DAD8EAD9FAD279729853A857B
:1023B0004B855C850E94CE1D7B018C0123966CAD04
:1023C0007DAD8EAD9FAD239729853A854B855C8584
:1023D0000E94CE1D9B01AC01C801B7010E94881C60
:1023E0007B018C01C158DF4F688179818A819B8193
:1023F000CF57D04029A53AA54BA55CA50E94CE1D7C
:102400009B01AC01C801B7010E94891C7B018C01B2
:10241000CD57DF4F688179818A819B81C358D04035
:1024200029A53AA54BA55CA50E94CE1D9B01AC0138
:10243000C801B7010E94881C7B018C01C555DF4F84
:10244000688179818A819B81CB5AD04029893A89D8
:102450004B895C890E94CE1D9B01AC01C801B7016C
:102460000E94881C7B018C01C155DF4F68817981F6
:102470008A819B81CF5AD04029893A894B895C89CE
:102480000E94CE1D9B01AC01C801B7010E94891CAE
:1024900029813A814B815C810E94F11CADA9BEA9C2
:1024A00090966D937D938D939C9393976B966CAD63
:1024B0007DAD8EAD9FAD6B9729853A854B855C854B
:1024C0000E94CE1D7B018C016F966CAD7DAD8EADF3
:1024D0009FAD6F9729853A854B855C850E94CE1DFF
:1024E0009B01AC01C801B7010E94881C7B018C01D3
:1024F000C157DF4F688179818A819B81CF58D04055
:1025000029A53AA54BA55CA50E94CE1D9B01AC0157
:10251000C801B7010E94881C7B018C01CD56DF4F9A
:10252000688179818A819B81C359D04029A53AA5C8
:102530004BA55CA50E94CE1D9B01AC01C801B70153
:102540000E94891C7B018C01CD54DF4F6881798109
:102550008A819B81C35BD04029893A894B895C89F8
:102560000E94CE1D9B01AC01C801B7010E94891CCD
:102570007B018C01C954DF4F688179818A819B81FD
:10258000C75BD04029893A894B895C890E94CE1D5E
:102590009B01AC01C801B7010E94881C29813A81C6
:1025A0004B815C810E94F11CF601648375838683F4
:1025B0009783E7966CAD7DAD8EAD9FADE79729858E
:1025C0003A854B855C850E94CE1D7B018C01E3968C
:1025D0006CAD7DAD8EAD9FADE39729853A854B857A
:1025E0005C850E94CE1D9B01AC01C801B7010E9411
:1025F000881C7B018C01C401B30129A53AA54BA518
:102600005CA50E94CE1D9B01AC01C801B7010E94D0
:10261000891C7B018C01C156DF4F688179818A81D9
:102620009B81CF59D04029A53AA54BA55CA50E9416
:10263000CE1D9B01AC01C801B7010E94881C7B0123
:102640008C01C201B10129893A894B895C890E94B8
:10265000CE1D9B01AC01C801B7010E94881C7B0103
:102660008C01C554DF4F688179818A819B81CB5B66
:10267000D04029893A894B895C890E94CE1D9B01F3
:10268000AC01C801B7010E94891C29813A814B81A4
:102690005C810E94F11CD60118966D937D938D93F9
:1026A0009C931B97E3966CAD7DAD8EAD9FADE3978C
:1026B0002D813E814F8158850E94CE1D7B018C016A
:1026C000E7966CAD7DAD8EAD9FADE7972D813E81D8
:1026D0004F8158850E94CE1D9B01AC01C801B701F6
:1026E0000E94881C7B018C01C401B3012D8D3E8D9D
:1026F0004F8D58A10E94CE1D9B01AC01C801B701AE
:102700000E94881C7B018C01C156DF4F6881798152
:102710008A819B81CF59D0402D8D3E8D4F8D58A100
:102720000E94CE1D9B01AC01C801B7010E94891C0B
:102730007B018C01C201B1012DA53EA54FA558A971
:102740000E94CE1D9B01AC01C801B7010E94891CEB
:102750007B018C01C554DF4F688179818A819B811F
:10276000CB5BD0402DA53EA54FA558A90E94CE1DFC
:102770009B01AC01C801B7010E94881C29813A81E4
:102780004B815C810E94F11CF60164877587868706
:102790009787CDA8DEA880E390E0C80ED91E2B96BF
:1027A0006CAD7DAD8EAD9FAD2B9729853A854B8560
:1027B0005C850E94CE1D7B018C012F966CAD7DAD9A
:1027C0008EAD9FAD2F9729853A854B855C850E94FC
:1027D000CE1D9B01AC01C801B7010E94881C7B0182
:1027E0008C01C957DF4F688179818A819B81C758E5
:1027F000D04029A53AA54BA55CA50E94CE1D9B0102
:10280000AC01C801B7010E94881C7B018C01C5572F
:10281000DF4F688179818A819B81CB58D04029A57F
:102820003AA54BA55CA50E94CE1D9B01AC01C80139
:10283000B7010E94891C7B018C01C555DF4F68815F
:1028400079818A819B81CB5AD040298D3A8D4B8DDD
:102850005C8D0E94CE1D9B01AC01C801B7010E9496
:10286000891C7B018C01C155DF4F688179818A8188
:102870009B81CF5AD040298D3A8D4B8D5C8D0E9423
:10288000CE1D9B01AC01C801B7010E94881C2981A3
:102890003A814B815C810E94F11CADA9BEA9D09602
:1028A0006D937D938D939C93D397A7966CAD7DADDF
:1028B0008EAD9FADA79729853A854B855C850E9493
:1028C000CE1D7B018C01A3966CAD7DAD8EAD9FAD11
:1028D000A39729853A854B855C850E94CE1D9B0177
:1028E000AC01C801B7010E94881C7B018C01C9564C
:1028F000DF4F688179818A819B81C759D04029A5A2
:102900003AA54BA55CA50E94CE1D9B01AC01C80158
:10291000B7010E94891C7B018C01C556DF4F68817D
:1029200079818A819B81CB59D04029A53AA54BA5B5
:102930005CA50E94CE1D9B01AC01C801B7010E949D
:10294000881C7B018C01CD54DF4F688179818A819D
:102950009B81C35BD040298D3A8D4B8D5C8D0E944D
:10296000CE1D9B01AC01C801B7010E94881C7B01F0
:102970008C01C954DF4F688179818A819B81C75B53
:10298000D040298D3A8D4B8D5C8D0E94CE1D9B01D0
:10299000AC01C801B7010E94891C29813A814B8191
:1029A0005C810E94F11CF6016483758386839783A2
:1029B000EB966CAD7DAD8EAD9FADEB9729853A85DD
:1029C0004B855C850E94CE1D7B018C01EF966CAD22
:1029D0007DAD8EAD9FADEF9729853A854B855C85A2
:1029E0000E94CE1D9B01AC01C801B7010E94881C4A
:1029F0007B018C01CD55DF4F688179818A819B8174
:102A0000C35AD04029A53AA54BA55CA50E94CE1D6E
:102A10009B01AC01C801B7010E94881C7B018C019D
:102A2000C955DF4F688179818A819B81C75AD0401F
:102A300029A53AA54BA55CA50E94CE1D9B01AC0122
:102A4000C801B7010E94891C7B018C01C201B10140
:102A5000298D3A8D4B8D5C8D0E94CE1D9B01AC0162
:102A6000C801B7010E94891C7B018C01C554DF4F4E
:102A7000688179818A819B81CB5BD040298D3A8D99
:102A80004B8D5C8D0E94CE1D9B01AC01C801B7012E
:102A90000E94881C29813A814B815C810E94F11C33
:102AA000D60118966D937D938D939C931B97EF960B
:102AB0006CAD7DAD8EAD9FADEF972D813E814F8189
:102AC00058850E94CE1D7B018C01EB966CAD7DADCF
:102AD0008EAD9FADEB972D813E814F8158850E9431
:102AE000CE1D9B01AC01C801B7010E94881C7B016F
:102AF0008C01CD55DF4F688179818A819B81C35AD2
:102B0000D0402D8D3E8D4F8D58A10E94CE1D9B0132
:102B1000AC01C801B7010E94891C7B018C01C95519
:102B2000DF4F688179818A819B81C75AD0402D8D82
:102B30003E8D4F8D58A10E94CE1D9B01AC01C80156
:102B4000B7010E94881C7B018C01C201B10129A13F
:102B50003AA14BA15CA10E94CE1D9B01AC01C80112
:102B6000B7010E94881C7B018C01C554DF4F68812E
:102B700079818A819B81CB5BD04029A13AA14BA16D
:102B80005CA10E94CE1D9B01AC01C801B7010E944F
:102B9000891C29813A814B815C810E94F11CF601DC
:102BA000648775878687978721E030E0C901C05424
:102BB000DF4FCDBFDEBFCF91DF911F910F91FF900F
:102BC000EF90DF90CF90BF90AF909F908F907F90CD
:102BD0006F905F904F903F902F9008952F923F926B
:102BE0004F925F926F927F928F929F92AF92BF921D
:102BF000CF92DF92EF92FF920F931F93DF93CF93C9
:102C0000CDB7DEB7A697CDBFDEBF8DA39EA32A01A9
:102C1000FE01319684E2DF011D928A95E9F73B01BE
:102C200088249924BCE02B2E312C240E351E63C041
:102C3000F3016081718182819381D5012D913D9154
:102C40004D915C910E94CE1DF6012081318142811F
:102C500053810E94891C7B018C01D30114966D91D4
:102C60007D918D919C911797F50124853585468539
:102C700057850E94CE1D9B01AC01C801B7010E947F
:102C8000891C7B018C01D30118966D917D918D91EA
:102C90009C911B97F501208D318D428D538D0E94A3
:102CA000CE1D9B01AC01C801B7010E94891CD60151
:102CB0006D937D938D939D936D01E4E0F0E0AE0EF6
:102CC000BF1EA214B30409F0B3CF0894811C911C59
:102CD0008CE090E0680E791E93E08916910459F417
:102CE000AE014F5F5F4F8DA19EA19C01F9019E0136
:102CF0002B5D3F4F11C06401CC0CDD1CC80CD91CEE
:102D0000CC0CDD1CCC0CDD1CA1E0B0E0AC0FBD1F79
:102D1000CA0EDB1E52018CCFDA01AD90BD90CD9072
:102D2000DC901397A082B182C282D3821496AD90B8
:102D3000BD90CD90DC901797A482B582C682D782D1
:102D40001896AD90BD90CD90DC901B97A086B18673
:102D5000C286D386445F5F4F3C9642175307E1F625
:102D6000A696CDBFDEBFCF91DF911F910F91FF904F
:102D7000EF90DF90CF90BF90AF909F908F907F901B
:102D80006F905F904F903F902F9008952F923F92B9
:102D90004F925F926F927F928F929F92AF92BF926B
:102DA000CF92DF92EF92FF920F931F93DF93CF9317
:102DB000CDB7DEB7C459D140CDBFDEBFCD56DE4F53
:102DC0008883C359D140CC56DE4F9883C459D14033
:102DD000CF56DE4F48835983C159D140FE01319609
:102DE00080E991E0DF019C011D9221503040E1F724
:102DF0001B014424552464C0F101EA0DFB1D6081D0
:102E0000718182819381D6012D913D914D915C918B
:102E10000E94CE1D9B01AC01C801B7010E94891C14
:102E20007B018C01E4E0F0E0AE0EBF1E28E230E052
:102E3000C20ED31E38E2A316B104F1F6D4016D938D
:102E40007D938D939D934D010894611C711CBAE094
:102E50006B167104A9F0F401E080F1800281138106
:102E60006301CC0CDD1CCC0CDD1CCF56DE4F288161
:102E70003981C159D140C20ED31EAA24BB24BCCF74
:102E80000894411C511C88E290E0280E391E9AE0FB
:102E900049165104A9F4CD56DE4F8881C359D1405B
:102EA000CC56DE4F9881C459D1409C0100E010E01F
:102EB00088E2C82ED12C7E010894E11CF11C2CC0A4
:102EC000A8E2B0E04A9E40014B9E900C5A9E900CA6
:102ED0001124E1E0F0E0EC0FFD1F8E0E9F1E662432
:102EE0007724B9CF5901A40EB51EFB0181919191B0
:102EF000A191B191BF01F50180839183A283B38336
:102F00004C5F5F4F4832510569F70F5F1F4F285DD7
:102F10003F4F0A30110561F00C9DB0010D9D700D01
:102F20001C9D700D11246E0D7F1D40E050E0DACF26
:102F3000CC56DE4FCDBFDEBFCF91DF911F910F91F9
:102F4000FF90EF90DF90CF90BF90AF909F908F90C9
:102F50007F906F905F904F903F902F9008954F9289
:102F60005F926F927F928F929F92AF92BF92CF9219
:102F7000DF92EF92FF920F931F93DF93CF93CDB722
:102F8000DEB72C97CDBFDEBF3C014A01DE011196B2
:102F9000E3E0F0E28CE001900D928150E1F75E01F8
:102FA0000894A11CB11C6B012DE0422E512C4C0E3B
:102FB0005D1EF6016081718182819381F40120811F
:102FC0003181428153810E94CE1DF50120813181E2
:102FD000428153810E94891C7B018C01F60164812E
:102FE000758186819781F4012481358146815781DD
:102FF0000E94CE1D9B01AC01C801B7010E94891C33
:103000007B018C01F6016085718582859385F401D1
:1030100020853185428553850E94CE1D9B01AC01E0
:10302000C801B7010E94891CF501619371938193D6
:1030300091935F018CE090E0C80ED91EE415F50570
:1030400009F0B7CF89819A81AB81BC81F30180837C
:103050009183A283B3838D819E81AF81B885848360
:103060009583A683B78389859A85AB85BC85808740
:103070009187A287B3872C96CDBFDEBFCF91DF911A
:103080001F910F91FF90EF90DF90CF90BF90AF9086
:103090009F908F907F906F905F904F9008952F92A8
:1030A0003F924F925F926F927F928F929F92AF92D8
:1030B000BF92CF92DF92EF92FF920F931F93DF9315
:1030C000CF93CDB7DEB7A897CDBFDEBF1C013A01C5
:1030D000FE01319688E2DF011D928A95E9F74F01E2
:1030E0005B0139E2432E512C4C0E5D1E2DC0F501C3
:1030F000EC0DFD1DD301AC0DBD1D60817181828180
:1031000093812D913D914D915C910E94CE1D9B012B
:10311000AC01C801B7010E94891C7B018C01E4E06D
:10312000F0E0CE0EDF1EF8E2CF16D10401F7D40195
:103130006D937D938D939D934D01E8E2F0E0AE0E8B
:10314000BF1EA415B50541F0D401ED90FD900D9181
:103150001C91CC24DD24CBCF40E050E0BE016F5F5A
:103160007F4F9101240F351FFB01E40FF51F808174
:103170009181A281B381F90180839183A283B3837A
:103180004C5F5F4F4832510561F7A896CDBFDEBF57
:10319000CF91DF911F910F91FF90EF90DF90CF9033
:1031A000BF90AF909F908F907F906F905F904F9067
:1031B0003F902F9008958F929F92AF92BF92CF929F
:1031C000DF92EF92FF920F931F93CF93DF936801EB
:1031D00079015B018A01EC0188249924C701B601B9
:1031E000F80120813181428153810E94CE1D9B01D3
:1031F000AC01F50160817181828193810E94891CFB
:10320000688379838A839B83C701B601F80124818F
:103210003581468157810E94CE1D9B01AC01F5018D
:1032200064817581868197810E94891C6C837D836E
:103230008E839F83C701B601F801208531854285C1
:1032400053850E94CE1D9B01AC01F50160857185FF
:10325000828593850E94891C688779878A879B87E6
:103260000894811C911C8CE090E0A80EB91E045FAC
:103270001F4F2C9693E08916910409F0AFCFDF9190
:10328000CF911F910F91FF90EF90DF90CF90BF9063
:10329000AF909F908F9008952F923F924F925F92A0
:1032A0006F927F928F929F92AF92BF92CF92DF9256
:1032B000EF92FF920F931F93DF93CF9300D000D034
:1032C000CDB7DEB789839A834B835C83380149018C
:1032D0005B01CC24DD2434C0ED80FE80E20CF31CC5
:1032E0000D811E810A0D1B1DED81FE81E40DF51D72
:1032F000C401B30120813181428153810E94CE1DDE
:103300009B01AC01F80160817181828193810E94EF
:10331000891CF70160837183828393838D819E81F1
:1033200004968D839E838897B9F6E8E2F0E0AE0EAE
:10333000BF1ECE0EDF1EF0E9CF16F1E0DF0659F01A
:1033400029803A802C0C3D1C4B805C804C0C5D1C11
:103350001D821E82C1CF2696CDBFDEBFCF91DF91E9
:103360001F910F91FF90EF90DF90CF90BF90AF90A3
:103370009F908F907F906F905F904F903F902F9095
:1033800008954F925F926F927F928F929F92AF9229
:10339000BF92CF92DF92EF92FF920F931F93CF9342
:1033A000DF932C013B014A0158016901C0E0D0E0E4
:1033B0007201EC0EFD1E83010C0F1D1FF401EC0FBA
:1033C000FD1FC601B50120813181428153810E94D8
:1033D000CE1D9B01AC01F8016081718182819381D6
:1033E0000E94891CF70160837183828393832496F2
:1033F000CC30D105E9F6DF91CF911F910F91FF906D
:10340000EF90DF90CF90BF90AF909F908F907F9084
:103410006F905F904F9008954F925F926F927F925E
:103420008F929F92AF92BF92CF92DF92EF92FF92D4
:103430000F931F93CF93DF932C013B014A01580157
:103440006901C0E0D0E07201EC0EFD1E83010C0F9B
:103450001D1FF401EC0FFD1FC601B5012081318154
:10346000428153810E94CE1D9B01AC01F801608115
:103470007181828193810E94891CF701608371832D
:10348000828393832496C832D105E9F6DF91CF91E8
:103490001F910F91FF90EF90DF90CF90BF90AF9072
:1034A0009F908F907F906F905F904F9008952F9294
:1034B0003F924F925F926F927F928F929F92AF92C4
:1034C000BF92CF92DF92EF92FF920F931F93DF9301
:1034D000CF93CDB7DEB7AC97CDBFDEBF1C016B017C
:1034E000DB01589618962D913D914D915C911B975B
:1034F0002D8F3E8F4F8F58A3645F7F4FFB01248138
:10350000358146815781298F3A8F4B8F5C8F149676
:103510002D913D914D915C9117972D8B3E8B4F8B4B
:10352000588FDB0118968D919D910D90BC91A02D27
:10353000898B9A8BAB8BBC8B6D8D7E8D8F8D98A17B
:10354000298D3A8D4B8D5C8D0E94CE1D7B018C01A7
:103550006D897E898F89988D29893A894B895C8903
:103560000E94CE1D9B01AC01C801B7010E94881CBE
:1035700069A37AA38BA39CA3D60114962D913D91A8
:103580004D915C9117972D873E874F87588B1896E2
:103590002D913D914D915C911B9729873A874B87DF
:1035A0005C876D8D7E8D8F8D98A12D853E854F8595
:1035B00058890E94CE1D7B018C016D897E898F897F
:1035C000988D29853A854B855C850E94CE1D9B018F
:1035D000AC01C801B7010E94881C6DA37EA38FA314
:1035E00098A769897A898B899C892D853E854F8525
:1035F00058890E94CE1D7B018C01698D7A8D8B8D3F
:103600009C8D29853A854B855C850E94CE1D9B014A
:10361000AC01C801B7010E94881C69A77AA78BA7D3
:103620009CA7D6011C962D913D914D915C911F97C1
:103630002D833E834F83588758964D905D906D90B3
:103640007C905B972D913D914D915C9129833A83BC
:103650004B835C83CA01B90129A13AA14BA15CA1AA
:103660000E94CE1D7B018C016D817E818F819885AA
:103670002DA13EA14FA158A50E94CE1D9B01AC01DA
:10368000C801B7010E94881C7B018C01C301B201F3
:1036900029A53AA54BA55CA50E94CE1D9B01AC01B6
:1036A000C801B7010E94891C4B015C0120E030E099
:1036B00040E050E00E94ED1C882309F413C169A189
:1036C0007AA18BA19CA1A50194010E94F11CF1019A
:1036D00060837183828393836DA17EA18FA198A55E
:1036E0009058A50194010E94F11CD10114966D938C
:1036F0007D938D939C93179769A57AA58BA59CA51F
:10370000A50194010E94F11CF101608771878287F5
:1037100093875CE0C52ED12CC20CD31C6D8D7E8DA1
:103720008F8D98A12D813E814F8158850E94CE1D9D
:103730007B018C01C301B20129893A894B895C89DB
:103740000E94CE1D9B01AC01C801B7010E94881CDC
:103750009058A50194010E94F11CD1011C966D9313
:103760007D938D939C931F976D8D7E8D8F8D98A1EA
:1037700029813A814B815C810E94CE1D7B018C01A5
:10378000C301B20129853A854B855C850E94CE1D17
:103790009B01AC01C801B7010E94881CA5019401DE
:1037A0000E94F11CF601648375838683978369897F
:1037B0007A898B899C8929813A814B815C810E941D
:1037C000CE1D7B018C016D817E818F81988529853D
:1037D0003A854B855C850E94CE1D9B01AC01C801DA
:1037E000B7010E94881C9058A50194010E94F11C09
:1037F000D60118966D937D938D939C931B9748E10A
:10380000C42ED12CC20CD31C6D897E898F89988DD2
:103810002D813E814F8158850E94CE1D7B018C01F8
:10382000C301B201298D3A8D4B8D5C8D0E94CE1D56
:103830009B01AC01C801B7010E94881CA50194013D
:103840000E94F11CF101608F718F828F938F6D89BF
:103850007E898F89988D29813A814B815C810E9474
:10386000CE1D7B018C01C301B2012D853E854F85A4
:1038700058890E94CE1D9B01AC01C801B7010E946E
:10388000881C9058A50194010E94F11CD601149641
:103890006D937D938D939C931797698D7A8D8B8D06
:1038A0009C8D29813A814B815C810E94CE1D7B01D8
:1038B0008C016D817E818F8198852D853E854F8518
:1038C00058890E94CE1D9B01AC01C801B7010E941E
:1038D000881CA50194010E94F11CF6016087718784
:1038E00082879387AC96CDBFDEBFCF91DF911F91CA
:1038F0000F91FF90EF90DF90CF90BF90AF909F908F
:103900008F907F906F905F904F903F902F90089591
:103910005058BB27AA270ED007C1F8D030F0FDD0F1
:1039200020F031F49F3F11F41EF4EDC00EF4E09549
:10393000E7FBE3C0E92F09D180F3BA1762077307E9
:103940008407950718F071F49EF521C10EF4E095F7
:103950000B2EBA2FA02D0B01B90190010C01CA0149
:10396000A0011124FF27591B99F0593F50F4503EF4
:1039700068F11A16F040A22F232F342F4427585FE6
:10398000F3CF469537952795A795F0405395C9F7FE
:103990007EF41F16BA0B620B730B840BBAF09150B6
:1039A000A1F0FF0FBB1F661F771F881FC2F70EC055
:1039B000BA0F621F731F841F48F487957795679528
:1039C000B795F7959E3F08F0B3CF9395880F08F011
:1039D0009927EE0F9795879508956BD008F481E0AD
:1039E00008950CD0A1C099D040F090D030F021F4CF
:1039F0005F3F19F082C05111CBC085C0A6D098F3AB
:103A00009923C9F35523B1F3951B550BBB27AA275F
:103A100062177307840738F09F5F5F4F220F331FD1
:103A2000441FAA1FA9F333D00E2E3AF0E0E830D09D
:103A300091505040E695001CCAF729D0FE2F27D0A0
:103A4000660F771F881FBB1F261737074807AB076E
:103A5000B0E809F0BB0B802DBF01FF2793585F4FE3
:103A60002AF09E3F510568F048C092C05F3FECF3DA
:103A7000983EDCF3869577956795B795F7959F5FA8
:103A8000C9F7880F911D9695879597F90895E1E0FC
:103A9000660F771F881FBB1F621773078407BA075B
:103AA00020F0621B730B840BBA0BEE1F88F7E095B6
:103AB0000895990F0008550FAA0BE0E8FEEF1616BF
:103AC0001706E807F907C0F012161306E407F50712
:103AD00098F0621B730B840B950B39F40A2661F086
:103AE000232B242B252B21F408950A2609F4A14029
:103AF000A6958FEF811D811D089597F99F6780E836
:103B000070E060E008959FEF80EC089500240A942F
:103B10001616170618060906089500240A941216A8
:103B20001306140605060895092E0394000C11F4DB
:103B3000882352F0BB0F40F4BF2B11F460FF04C088
:103B40006F5F7F4F8F4F9F4F089557FD9058440FE1
:103B5000551F59F05F3F71F04795880F97FB991FEC
:103B600061F09F3F79F087950895121613061406A9
:103B7000551FF2CF4695F1DF08C016161706180636
:103B8000991FF1CF86957105610508940895E89411
:103B9000BB2766277727CB0197F908950BD0C4CFB1
:103BA000B5DF28F0BADF18F0952309F0A6CFABCF28
:103BB0001124EECFCADFA0F3959FD1F3950F50E00B
:103BC000551F629FF001729FBB27F00DB11D639FCF
:103BD000AA27F00DB11DAA1F649F6627B00DA11D75
:103BE000661F829F2227B00DA11D621F739FB00D1B
:103BF000A11D621F839FA00D611D221F749F33278B
:103C0000A00D611D231F849F600D211D822F762F23
:103C10006A2F11249F5750408AF0E1F088234AF020
:103C2000EE0FFF1FBB1F661F771F881F915050406C
:103C3000A9F79E3F510570F060CFAACF5F3FECF32C
:103C4000983EDCF3869577956795B795F795E79558
:103C50009F5FC1F7FE2B880F911D9695879597F969
:063C60000895F894FFCF67
:103C660000FFFF0000000000000000000000000050
:083C7600000000000000000046
:00000001FF
