:100000000C9465010C9486010C9486010C94860175
:100010000C9486010C9486010C9486010C94860144
:100020000C9486010C9486010C9486010C94860134
:100030000C9486010C9486010C9486010C94860124
:100040000C9486010C9486010C9486010C94860114
:100050000C9499010C9486010C9486010C948601F1
:100060000C9486010C94AD060C9486010C948601C8
:100070000C9486010C9486010C9486010C948601E4
:100080000C9486010C9486010C9486010C948601D4
:100090000C9486010C9486010C9486010C948601C4
:1000A0000C9486010C9486010C9486010C948601B4
:1000B0000C9486010C9486010C9486010C948601A4
:1000C0000C9486010C9486010C9486010C94860194
:1000D0000C9486010C9486010C9486010C94860184
:1000E0000C9486010C9486010C9459060C9486019C
:1000F0000C9486010C9486010C9486010C94860164
:100100000C9486010C9486010C9486010C94860153
:100110000C9486010C9486010C9486010C94860143
:100120000C9486010C9486010C9486010C94860133
:100130000C9486010C9486010C9486010C94860123
:100140000C9486010C9486010C9486010C94860113
:100150000C9486010C9486010C9486010C94860103
:100160000C9483060C9486010C9486010C948601F1
:100170000C9486010C9486010C9486010C948601E3
:100180000C9486010C9486010C9486010C948601D3
:100190000C9486010C9486010C9486010C948601C3
:1001A0000C9486010C9486010C9486010C948601B3
:1001B0000C9486010C9486010C9486010C948601A3
:1001C0000C9486010C9486016E616E00696E660067
:1001D00000407A10F35A00A0724E18090010A5D4FE
:1001E000E80000E87648170000E40B54020000CA5B
:1001F0009A3B000000E1F5050000809698000000A1
:1002000040420F000000A0860100000010270000FF
:100210000000E803000000006400000000000A0085
:10022000000000000100000000002C76D888DC6788
:100230004F0823DFC1DFAE59E1B1B796E5E3E453E0
:10024000C63AE651997696E8E6C28426EB898C9BFD
:1002500062ED407C6FFCEFBC9C9F40F2BAA56FA59D
:10026000F490055A2AF75C936B6CF9676DC11BFC1F
:10027000E0E40D47FEF520E6B500D0ED902E03003A
:10028000943577050080841E080000204E0A000087
:1002900000C80C333333330F986E12831141EF8D46
:1002A0002114893BE65516CFFEE6DB18D1844B3886
:1002B0001BF77C1D901DA4BBE424203284725E22B7
:1002C0008100C9F124ECA1E53D2711241FBECFEF29
:1002D000DFE3DEBFCDBF00E00CBF10E2A0E0B0E284
:1002E000E0E5FDE100E00BBF02C007900D92AC32EB
:1002F000B107D9F71BE2ACE2B0E201C01D92AC300D
:10030000B107E1F70E9419030C94A60E0C940000AB
:100310008BECE0E5F0E0828388E0809350008091F0
:10032000510083FFFCCF88ED84BF83E080934000C1
:1003300008951F920F920FB60F9211248F939F93DF
:1003400081E090E080932C2090932D209F918F91BD
:100350000F900FBE0F901F901895E0E0F8E086E038
:10036000808311821282138214828FEF87A386A367
:10037000E0E4F8E083E08083118212821382148229
:1003800082E08683178281E084878CE987A380E4FA
:1003900086A30895E0E0F6E094E0948384E480830B
:1003A000E0E2F6E0848184608483808184608083DD
:1003B000E0E4F6E084818160848389EB8083E0E679
:1003C000F6E088E0818392830895FC01908180911A
:1003D000A10885FFFCCF9093A00831969923B1F72F
:1003E0000895EF92FF920F931F93E0E4F6E018E078
:1003F000E12EE182B4E0FB2EF28287E996E260EA28
:1004000078E041E00E947007E0EAF8E003E005834D
:10041000A0919726B091982613968C91139780639C
:1004200013968C9310E116831783848184608483F0
:10043000848180618483848188608483E0E6F6E03F
:10044000E182F28283EC93E260EA79E041E00E948B
:100450007007E0EAF9E00583A091C323B091C423BB
:1004600013968C911397806313968C93168317823F
:1004700084818460848384818061848384818860B2
:100480008483E0EAF0E0828181608283E0E8F6E044
:10049000E182F28281E198E260EA7AE041E00E9442
:1004A0007007E0EAFAE00583A0911128B0911228C4
:1004B00013968C9113978F7C806113968C9316837F
:1004C00017838481846084838481806184838481B0
:1004D000886084831F910F91FF90EF900895EF92B1
:1004E000FF920F931F93E0912920F0912A20EE2490
:1004F000E394E68225E3F22E8F2D8A95F1F704E549
:1005000013E2C80160E20E942007C80167E50E946B
:1005100020078F2D8A95F1F7E0912920F0912A206C
:10052000E5828F2D8A95F1F7E6828F2D8A95F1F776
:10053000C80161E20E942007C80160E00E94200714
:100540008F2D8A95F1F7E0912920F0912A20E582FC
:100550008F2D8A95F1F7E6828F2D8A95F1F7C801E4
:1005600062E20E942007C80160E00E9420078F2DF0
:100570008A95F1F7E0912920F0912A20E5828F2DCC
:100580008A95F1F7E6828F2D8A95F1F7C80163E22B
:100590000E942007C80168E80E9420078F2D8A95D5
:1005A000F1F7E0912920F0912A20E5828F2D8A959C
:1005B000F1F7E6828F2D8A95F1F7C80164E20E9477
:1005C0002007C80160E00E9420078F2D8A95F1F76F
:1005D000E0912920F0912A20E582E6828F2D8A95EC
:1005E000F1F7C80165E20E942007C80160E00E949F
:1005F00020078F2D8A95F1F7E0912920F0912A208C
:10060000E582E6828F2D8A95F1F7C8016FE10E949D
:100610002007C80160EC0E942007FA94F1F7E091EE
:100620002920F0912A20E5821F910F91FF90EF90F1
:1006300008952F923F924F925F926F927F928F9286
:100640009F92AF92BF92CF92DF92EF92FF920F9361
:100650001F93DF93CF93CDB7DEB76C97CDBFDEBFCF
:100660000E9488010E94CA010E94F1010E94AD010E
:10067000F0EA8F2E912CD40111961C92119787E0ED
:1006800012968C93E0E6F6E021E0218388E3808BEC
:1006900092E09183818B2583958384E593E260ECDE
:1006A00079E040E656E020E00CE0EE24CC24AA24D9
:1006B000A3940E94D70683EC93E260EA79E043E0DA
:1006C0000E947007E091C323F091C423838180636B
:1006D00083838091A2008460F401828378940E94D5
:1006E0006F0287E098E262E270E246E850E227E0BB
:1006F00000E616E0E2E0EE2E0E940E0752E0F52E34
:10070000D8011696FC9284E593E267E078E20E94B5
:100710002D07F801F58280E090E020E030E040E035
:1007200050E0FC01E95BFD4D20833183428353831C
:10073000FC01EC5BFE4D2083318342835383FC013B
:10074000EB55FD4D2083318342835383FC01EC5CE8
:10075000F64D2083318342835383FC01E450FD4DE9
:100760002083318342835383FC01EC50FF4D20836F
:10077000318342835383FC01EA5CFF4D2083318344
:1007800042835383FC01E456FF4D2083318342832F
:100790005383FC01ED50FE4D20833183428353830C
:1007A00004968035910509F0BCCF1B8E1C8E20E08D
:1007B00030E040E050E02D833E834F83588729830B
:1007C0003A834B835C8319012A0139014A01AA2427
:1007D000BB2402C0A984BA8480912C2090912D2042
:1007E000892BD1F310922C2010922D2040912008BB
:1007F0005091210849875A8787E098E264E170E2C6
:100800004DE850E227E000E616E0EE24E3940E9473
:100810000E0740E6C42E46E0D42E11E0D60116960F
:100820001C938AE18A95F1F784E593E267E078E228
:100830000E942D078AE18A95F1F7F601158387E07A
:1008400098E26BE170E246E850E227E000E616E04D
:1008500032E0E32E0E940E0712E0D60116961C939A
:100860008AE18A95F1F784E593E267E078E20E94F5
:100870002D078AE18A95F1F7F601158369857A8556
:100880006A197B0980E090E00E94680820E034E269
:1008900044EF59E40E94000820E030E040E052E4D8
:1008A0000E94F60860939722709398228093992271
:1008B00090939A2280918F20805880938F209091DE
:1008C000912090589093912020919320205820932C
:1008D0009320888B1F8680918E20CF84D888C80E65
:1008E000D11C9A8B198A8091902009891A89080F46
:1008F000111D2C8B1B8A80919220AB88BC88A80E7E
:10090000B11C2091882020582093882080918A2033
:10091000805880938A2090918C20905890938C20BE
:100920008E8B1D8A809189204D895E89480F511DCB
:100930004D875E87288F1F8A80918720AF89B88D69
:10094000A80FB11DAB87BC879A8F198E80918B2021
:10095000E98CFA8CE80EF11CEB8DFC8DE436F10588
:1009600020F43196EB8FFC8F35CF2B8D3C8D2C54A2
:10097000344008F042C0B80180E090E00E9468086E
:100980009B01AC016D817E818F8198850E949C07BF
:100990006D837E838F839887B60180E090E00E940C
:1009A00068089B01AC0169817A818B819C810E94DE
:1009B0009C0769837A838B839C83B50180E090E0F8
:1009C0000E9468089B01AC01C201B1010E949C0712
:1009D0001B012C01B70180E090E00E9468089B0198
:1009E000AC01C401B3010E949C073B014C018B8DFB
:1009F0009C8D01968B8F9C8FEDCEAB8DBC8DAC54B6
:100A0000B44009F06FC06D817E818F81988520E0B0
:100A100030E04AE754E40E94000860932C29709368
:100A20002D2980932E2990932F2969817A818B819A
:100A30009C8120E030E04AE754E40E940008609383
:100A40005023709351238093522390935323C201D8
:100A5000B10120E030E04AE754E40E94000820E0C1
:100A600030E04AE756E40E949B076093432270936C
:100A700044228093452290934622C401B30120E092
:100A800030E04AE754E40E9400086093CE2470935B
:100A9000CF248093D0249093D12420E030E040E014
:100AA00050E02093002B3093012B4093022B509366
:100AB000032B2093042B3093052B4093062B50934C
:100AC000072B8DEC9CECACE1B1E48093082B909368
:100AD000092BA0930A2BB0930B2BADE4B4E0AB8FA2
:100AE000BC8F78CE8091200890912108B80180E0D9
:100AF00090E00E94680820912C2930912D29409186
:100B00002E2950912F290E949B072EE230E940E2C6
:100B10005AEB0E94F6086093F0207093F1208093C6
:100B2000F2209093F320B60180E090E00E946808E4
:100B300020915023309151234091522350915323BF
:100B40000E949B072EE230E940E25AEB0E94F60831
:100B5000609332207093332080933420909335201B
:100B6000B50180E090E00E94680820914322309116
:100B7000442240914522509146220E949B072EE23A
:100B800030E940E25AE30E94F6086093A122709394
:100B9000A2228093A3229093A422ED85FE85BF011B
:100BA00080E090E00E9468082091EC203091ED20D8
:100BB0004091EE205091EF200E949B0729EA34EEED
:100BC00049E159EB0E94F6086093E8217093E9210E
:100BD0008093EA219093EB212B853C85B90180E03D
:100BE00090E00E946808209130293091312940918D
:100BF0003229509133290E949B0729EA34EE49E1BA
:100C000059E30E94F6086093942070939520809396
:100C1000962090939720B70180E090E00E946808AA
:100C20002091CE243091CF244091D0245091D124D2
:100C30000E949B0729E732E240E259E30E94F6084E
:100C400060931C2970931D2980931E2990931F295E
:100C50004DB75EB7405150404DBF5EBFEDB7FEB7D8
:100C6000319622ED34E2ADB7BEB711962D933C9389
:100C7000129740E050E24283538304831583C68277
:100C8000D782A086B1868D859E8582879387AB8526
:100C9000BC85A487B587E686F7860E941D0EEDB752
:100CA000FEB77096EDBFFEBF82ED94E20E94E501B3
:100CB00091CD1F920F920FB60F920BB60F92112487
:100CC0002F933F934F935F936F937F938F939F9354
:100CD000AF93BF93EF93FF9381E198E20E947C076B
:100CE000FF91EF91BF91AF919F918F917F916F9104
:100CF0005F914F913F912F910F900BBE0F900FBEC0
:100D00000F901F9018951F920F920FB60F920BB66F
:100D10000F9211242F933F934F935F936F937F9381
:100D20008F939F93AF93BF93EF93FF9383EC93E2E3
:100D30000E947C07FF91EF91BF91AF919F918F919E
:100D40007F916F915F914F913F912F910F900BBECB
:100D50000F900FBE0F901F9018951F920F920FB615
:100D60000F920BB60F9211242F933F934F935F93E3
:100D70006F937F938F939F93AF93BF93EF93FF9363
:100D800087E996E20E947C07FF91EF91BF91AF91B6
:100D90009F918F917F916F915F914F913F912F9193
:100DA0000F900BBE0F900FBE0F901F901895AF9233
:100DB000CF92EF920F93DC01FA016D937C93119720
:100DC00012964D935C93139714961C92149780E19E
:100DD0008183ED91FC911197CC2011F490E001C03A
:100DE00090E8222311F480E001C080E200650A2926
:100DF000902B892B8083ED91FC911197E1821596C0
:100E00001D921C9216971296ED91FC91139780EA11
:100E100081830F91EF90CF90AF900895EF920F9351
:100E20001F93FC0100831183E282638374834583F3
:100E300056832783108611861F910F91EF90089596
:100E4000FC01A081B18113966C930190F081E02D9B
:100E5000828187FFFDCF83810895CF93DF93EC01DB
:100E6000FB016115710511F480E037C06D837E834D
:100E70004281A081B181109711F016964C93678141
:100E800090E01AC0292F30E00380F481E02DE20FBA
:100E9000F31F8081E881F9818383E881F981828170
:100EA00087FFFDCF8381ED81FE810580F681E02DF6
:100EB000E20FF31F80839F5FED81FE81961710F391
:100EC0000190F081E02D309709F04583ED81FE819E
:100ED0006087ED81FE8181E08187DF91CF91089568
:100EE000FC01608371834283E85FFE4F108212929F
:100EF0003396108212920895CF93DF93DC01EC01B8
:100F0000C95FDE4F98819F5FA85FBE4F8C91A8504C
:100F1000B140ED91FC911197E081981711F480E0B8
:100F200007C08881A80FB11D1396EC93988381E0C8
:100F3000DF91CF9108955058BB27AA270ED01CC12E
:100F40000DD130F012D120F031F49F3F11F41EF496
:100F500002C10EF4E095E7FBF8C0E92F1ED180F343
:100F6000BA17620773078407950718F071F49EF5A6
:100F700036C10EF4E0950B2EBA2FA02D0B01B9014E
:100F800090010C01CA01A0011124FF27591B99F0FF
:100F9000593F50F4503E68F11A16F040A22F232F0B
:100FA000342F4427585FF3CF469537952795A7955B
:100FB000F0405395C9F77EF41F16BA0B620B730B02
:100FC000840BBAF09150A1F0FF0FBB1F661F771F73
:100FD000881FC2F70EC0BA0F621F731F841F48F428
:100FE000879577956795B795F7959E3F08F0B3CFAE
:100FF0009395880F08F09927EE0F97958795089598
:101000000CD0BAC0B2D040F0A9D030F021F45F3F8C
:1010100019F09BC05111E4C09EC0BFD098F3992332
:10102000C9F35523B1F3951B550BBB27AA276217AC
:101030007307840738F09F5F5F4F220F331F441FF1
:10104000AA1FA9F333D00E2E3AF0E0E830D0915029
:101050005040E695001CCAF729D0FE2F27D0660F16
:10106000771F881FBB1F261737074807AB07B0E855
:1010700009F0BB0B802DBF01FF2793585F4F2AF06B
:101080009E3F510568F061C0ABC05F3FECF3983EF6
:10109000DCF3869577956795B795F7959F5FC9F7C8
:1010A000880F911D9695879597F90895E1E0660F51
:1010B000771F881FBB1F621773078407BA0720F0CA
:1010C000621B730B840BBA0BEE1F88F7E095089533
:1010D000E89409C097FB3EF49095809570956195D2
:1010E0007F4F8F4F9F4F9923A9F0F92F96E9BB2788
:1010F0009395F695879577956795B795F111F8CF04
:10110000FAF4BB0F11F460FF1BC06F5F7F4F8F4F6E
:101110009F4F16C0882311F096E911C0772321F064
:101120009EE8872F762F05C0662371F096E8862FFC
:1011300070E060E02AF09A95660F771F881FDAF753
:10114000880F9695879597F9089597F99F6780E896
:1011500070E060E008959FEF80EC089500240A9409
:101160001616170618060906089500240A94121682
:101170001306140605060895092E0394000C11F4B5
:10118000882352F0BB0F40F4BF2B11F460FF04C062
:101190006F5F7F4F8F4F9F4F089557FD9058440FBB
:1011A000551F59F05F3F71F04795880F97FB991FC6
:1011B00061F09F3F79F08795089512161306140683
:1011C000551FF2CF4695F1DF08C016161706180610
:1011D000991FF1CF86957105610508940895E894EB
:1011E000BB2766277727CB0197F908950BD0C4CF8B
:1011F000B5DF28F0BADF18F0952309F0A6CFABCF02
:101200001124EECFCADFA0F3959FD1F3950F50E0E4
:10121000551F629FF001729FBB27F00DB11D639FA8
:10122000AA27F00DB11DAA1F649F6627B00DA11D4E
:10123000661F829F2227B00DA11D621F739FB00DF4
:10124000A11D621F839FA00D611D221F749F332764
:10125000A00D611D231F849F600D211D822F762FFD
:101260006A2F11249F5750408AF0E1F088234AF0FA
:10127000EE0FFF1FBB1F661F771F881F9150504046
:10128000A9F79E3F510570F060CFAACF5F3FECF306
:10129000983EDCF3869577956795B795F795E79532
:1012A0009F5FC1F7FE2B880F911D9695879597F943
:1012B00008952F923F924F925F926F927F928F92FA
:1012C0009F92AF92BF92CF92DF92EF92FF920F93D5
:1012D0001F93DF93CF93CDB7DEB76197CDBFDEBF4E
:1012E0003C016E877F876A01FC0116821782838129
:1012F00081FD03C06FEF7FEF6FC39E012F5F3F4FF4
:10130000288B398BF3012381EE85FF8523FD8591A1
:1013100023FF8191EE87FF87882309F45AC3853222
:1013200051F4EE85FF8523FD859123FF8191EE87A2
:10133000FF87853229F490E0B3010E94F10DE2CFDE
:10134000982F10E0882499241032B0F49B3269F071
:101350009C3228F4903251F0933271F40BC09D32DC
:1013600039F0903349F4116028C01260146025C030
:10137000186023C0106121C017FD2AC0892F805337
:101380008A3078F416FF06C0FAE09F9E902C112454
:10139000980E13C03AE0839E802C1124880E1062B0
:1013A0000CC09E3221F416FD14C3106406C09C3696
:1013B00011F4106802C0983659F4EE85FF8523FDBC
:1013C000959123FF9191EE87FF87992309F0BCCF78
:1013D000892F8554833020F4812F8061905E07C06F
:1013E000892F8556833008F09FC1812F8F7E86FD1F
:1013F00002C076E0972E6FE3F62EF822953619F4A8
:10140000F0E4FF2A07C0963619F420E8F22A02C059
:1014100091109A94F7FE0AC03BE3391518F45CE387
:10142000B52E02C0B92CB39427E009C047E0491596
:1014300020F4BB2447E0942EF7CF292DBB24C6010E
:1014400004968C879D87F6016081718182819381EA
:10145000AE014F5F5F4F0B2D0E94030D6C010981A0
:10146000202E332400FF04C003FD02C01DE209C08A
:10147000F1FE02C01BE205C0F2FC02C010E001C098
:1014800010E2C1018C709070892BB9F1112311F415
:1014900083E001C084E0881510F088240AC0881A0F
:1014A000F3FC07C080E290E0B3010E94F10D8A9442
:1014B000C9F7112329F0812F90E0B3010E94F10DAB
:1014C00023FE03C008EC11E00EC00CEC11E00BC0D1
:1014D000E114F10409F0805290E0B3010E94F10D93
:1014E0000F5F1F4F05C0EF2CFF24F0E1EF22FF2418
:1014F000F8018491882361F714C1F7FE12C0BC0C77
:1015000024FE04C08A81813309F4BA941B141CF0B0
:10151000BB24B3942DC0F8E0FB1550F538E0B32E92
:1015200027C0F6FC25C0892D90E08C159D054CF058
:101530002CEFC2162FEFD20624F030E8F32A01C0B8
:101540009A94992049F0E2E0F0E0EC0FFD1FE90DDC
:10155000F11D80818033A1F3F7FE0AC0B92CB3944A
:10156000892D90E0C816D90614F0992401C09C1862
:10157000F7FC03C025E030E009C01C141D041CF07A
:1015800021E030E003C096012F5F3F4F112311F09F
:101590002F5F3F4F992029F0892D90E00196280F69
:1015A000391F882D90E02817390714F0882401C0CE
:1015B000821A4F2C5524C20189709070892B39F002
:1015C00008C080E290E0B3010E94F10D8A94882067
:1015D000C1F7112329F0812F90E0B3010E94F10D92
:1015E00043FE07C008C080E390E0B3010E94F10D04
:1015F0008A948820C1F7F7FE46C08601D7FE02C054
:1016000000E010E076010894E11CF11CE01AF10AF8
:1016100041E050E04C0F5D1FE40EF51E26014B1813
:101620005108892D90E0AA24BB24A81AB90A5FEFBB
:101630000F3F150729F48EE290E0B3010E94F10DEF
:10164000C016D10634F0401651061CF4F701808113
:1016500001C080E3015010400894E11CF11C0A1500
:101660001B052CF090E0B3010E94F10DE0CF0C15AA
:101670001D0539F49A81963318F4953311F424FE3C
:1016800081E390E04BC08A81813309F00F7E90E0C6
:10169000B3010E94F10D9920A1F08EE290E0B30118
:1016A0000E94F10D12E0E1E0F0E0EC0FFD1FE10F10
:1016B000F11D1F5F808190E0B3010E94F10D9A94AB
:1016C00091F744FC03C085E690E002C085E490E019
:1016D000B3010E94F10DD7FC05C0C114D10441F43F
:1016E00004FF06C0D094C194D108D3948DE201C008
:1016F0008BE290E0B3010E94F10D80E305C08F5FA3
:1017000026EF3FEFC20ED31E3AE0C316D104BCF75A
:1017100090E0B3010E94F10DC601C096B3010E9492
:10172000F10DCC84DD8452C1933631F0933799F0BA
:10173000933509F059C023C0F601808189835E0189
:101740000894A11CB11C22E030E0C20ED31E21E09F
:10175000E22EF12C12C0F601A080B18016FD03C06C
:101760006FEF7FEF02C0692D70E022E030E0C20E23
:10177000D31EC5010E94E60D7C011F7713C0F60140
:10178000A080B18016FD03C06FEF7FEF02C0692D0E
:1017900070E022E030E0C20ED31EC5010E94DB0DD6
:1017A0007C01106813FF07C01BC080E290E0B3010A
:1017B0000E94F10D8A94882D90E0E816F906A8F3AE
:1017C0000FC0F50117FD859117FF81915F0190E032
:1017D000B3010E94F10D81108A940894E108F10888
:1017E000E114F10471F7F2C0943611F0993689F5DD
:1017F00017FF08C0F601208131814281538184E0C6
:1018000090E00AC0F601808191819C01442737FD58
:101810004095542F82E090E0C80ED91E9FE6F92E25
:10182000F12257FF09C050954095309521953F4FC3
:101830004F4F5F4F90E8F92ACA01B901AE014F5FDF
:101840005F4F2AE030E00E94480EE82EE889EE1A49
:1018500041C0953721F41F7E2AE030E01CC0197F7B
:101860009F3661F0903720F4983509F0B2C00FC070
:10187000903739F0983709F0ACC004C028E030E068
:101880000AC0106114FD146020E130E004C014FDB2
:10189000166020E132E017FF08C0F6016081718117
:1018A0008281938144E050E008C0F60180819181FB
:1018B000BC0180E090E042E050E0C40ED51EAE01D5
:1018C0004F5F5F4F0E94480EE82E5889E51A8FE758
:1018D000F82EF122F6FE0BC08EEFF822E91438F450
:1018E000F4FE07C0F2FC05C09FEEF92202C01E2DD7
:1018F00001C0192DF4FE0DC0FE01EE0DF11D808119
:10190000803319F4E9EEFE2208C01F5FF2FE05C025
:1019100003C08F2D867809F01F5F0F2DF3FC14C0D4
:10192000F0FE0FC0181510F09E2C0BC09E2C980CCA
:10193000911A182D06C080E290E0B3010E94F10DCB
:101940001F5F1815C0F304C0181510F4811A01C0E8
:10195000882404FF0FC080E390E0B3010E94F10DE2
:1019600002FF1DC001FD03C088E790E00EC088E5BE
:1019700090E00BC0802F867891F001FF02C08BE2CF
:1019800001C080E2F7FC8DE290E0B3010E94F10D0E
:1019900006C080E390E0B3010E94F10D9A94E9142F
:1019A000C0F3EA94E1E0F0E0EC0FFD1FEE0DF11D55
:1019B000808190E0B3010E94F10DEE2091F706C006
:1019C00080E290E0B3010E94F10D8A948820C1F773
:1019D00099CCF30166817781CB016196CDBFDEBFE3
:1019E000CF91DF911F910F91FF90EF90DF90CF90FB
:1019F000BF90AF909F908F907F906F905F904F902F
:101A00003F902F900895283008F027E03327DA011F
:101A1000990F311D87FD916000966105710539F4BC
:101A200032602E5F3D9330E32A95E1F708959F3FA2
:101A300030F080387105610509F03C5F3C5F3D93F3
:101A4000913008F08068911DDF93CF931F930F931F
:101A5000FF92EF92192F987F9695E92F969596957C
:101A6000E90FFF27E65DFD4F99273327EE24FF247A
:101A7000A701E70105900894079428F4360FE71EA4
:101A8000F81E491F511D660F771F881F991F069466
:101A9000A1F70590079428F4E70EF81E491F561F7A
:101AA000C11D770F881F991F661F0694A1F7059027
:101AB000079428F4F80E491F561FC71FD11D880F21
:101AC000991F661F771F0694A1F70590079420F4CD
:101AD000490F561FC71FD81F990F661F771F881FF2
:101AE0000694A9F784911095177041F0D695C79583
:101AF00057954795F794E7941A95C1F7E0EDF1E013
:101B000068941590159135916591959105907FE2B6
:101B10007395E118F10A430B560BC90BD009C0F7B6
:101B2000E10CF11E431F561FC91FD01D7EF47033F8
:101B300011F48A95E6CFE894015030F0080F0AF4CA
:101B40000027021708F4202F2395022F7A3328F05C
:101B500079E37D932A95E9F710C07D932A9589F65C
:101B6000069497956795379517951794E118F10A9C
:101B7000430B560BC90BD00998F023957E917395B2
:101B80007A3308F070E37C932013B8F77E9170618C
:101B90007D9330F0839571E37D9370E32A95E1F7AF
:101BA0001124EF90FF900F911F91CF91DF91992712
:101BB00087FD90950895FC010590615070400110DB
:101BC000D8F7809590958E0F9F1F0895FC01615066
:101BD000704001900110D8F7809590958E0F9F1F4F
:101BE00008950F931F93CF93DF938C01EB018B81AB
:101BF00081FF1BC082FF0DC02E813F818C819D81A2
:101C00002817390764F4E881F9810193E883F9839F
:101C100006C0E885F985802F1995892B31F48E81CE
:101C20009F8101968E839F8302C00FEF1FEFC80133
:101C3000DF91CF911F910F9108950F931F93DF9321
:101C4000CF93CDB7DEB72E97CDBFDEBF0E891F89EC
:101C500086E08C8309831A838FEF9FE78D839E83B1
:101C60009E01265E3F4FCE010196688D798DA901B8
:101C70000E9459092F813885020F131FF801108225
:101C80002E96CDBFDEBFCF91DF911F910F910895AA
:101C9000FA01AA27283051F1203181F1E8946F939D
:101CA0006E7F6E5F7F4F8F4F9F4FAF4FB1E03ED043
:101CB000B4E03CD0670F781F891F9A1FA11D680FE1
:101CC000791F8A1F911DA11D6A0F711D811D911D14
:101CD000A11D20D009F468943F912AE0269F112489
:101CE0003019305D3193DEF6CF010895462F4770ED
:101CF000405D4193B3E00FD0C9F7F6CF462F4F7048
:101D0000405D4A3318F0495D31FD4052419302D0A5
:101D1000A9F7EACFB4E0A69597958795779567954B
:101D2000BA95C9F700976105710508959B01AC014B
:101D30000A2E06945795479537952795BA95C9F772
:101D4000620F731F841F951FA01D0895F894FFCF85
:101D500025752025752025752025752025752025BC
:101D600075200A00E8FFFFFFFFFFFFE8FFFFFFFF0E
:0C1D7000FFFF603F0000800000600600E4
:00000001FF
