:100000000C94E4000C9405010C9405010C9405017A
:100010000C9405010C9405010C9405010C94050148
:100020000C9405010C9405010C9405010C94050138
:100030000C9405010C9405010C9405010C94050128
:100040000C9405010C9405010C9405010C94050118
:100050000C9418010C9405010C9405010C940501F5
:100060000C9405010C94E30D0C9405010C9405010E
:100070000C9405010C9405010C9405010C940501E8
:100080000C9405010C9405010C9405010C940501D8
:100090000C9405010C9405010C9405010C940501C8
:1000A0000C9405010C9405010C9405010C940501B8
:1000B0000C9405010C9405010C9405010C940501A8
:1000C0000C9405010C9405010C9405010C94050198
:1000D0000C9405010C9405010C9405010C94050188
:1000E0000C9405010C9405010C948F0D0C940501E2
:1000F0000C9405010C9405010C9405010C94050168
:100100000C9405010C9405010C9405010C94050157
:100110000C9405010C9405010C9405010C94050147
:100120000C9405010C9405010C9405010C94050137
:100130000C9405010C9405010C9405010C94050127
:100140000C9405010C9405010C9405010C94050117
:100150000C9405010C9405010C9405010C94050107
:100160000C94B90D0C9405010C9405010C94050137
:100170000C9405010C9405010C9405010C940501E7
:100180000C9405010C9405010C9405010C940501D7
:100190000C9405010C9405010C9405010C940501C7
:1001A0000C9405010C9405010C9405010C940501B7
:1001B0000C9405010C9405010C9405010C940501A7
:1001C0000C9405010C94050111241FBECFEFDFE351
:1001D000DEBFCDBF00E00CBF10E2A0E0B0E2E6E081
:1001E000FCE500E00BBF02C007900D92AA35B107F5
:1001F000D9F71DE2AAE5B0E201C01D92A530B10712
:10020000E1F70E94560A0C94012E0C9400008BEC2E
:10021000E0E5F0E0828388E0809350008091510017
:1002200083FFFCCF88ED84BF83E080934000089576
:100230001F920F920FB60F9211248F939F9381E01C
:1002400090E08093F9209093FA209F918F910F90E6
:100250000FBE0F901F901895E0E0F8E086E08083D5
:1002600011821282138214828FEF87A386A3E0E4A7
:10027000F8E083E08083118212821382148282E08C
:100280008683178281E084878CE987A380E486A334
:100290000895E0EAF0E0118287E082830895E0E0CB
:1002A000F6E094E0948384E48083E0E2F6E08481E5
:1002B00084608483808184608083E0E6F6E088E067
:1002C000818392830895982F8091A10885FFFCCFA8
:1002D0009093A0080895FC0190818091A10885FF6A
:1002E000FCCF9093A00831969923B1F70895982FE9
:1002F0008091A10985FFFCCF9093A0090895FC018E
:1003000090818091A10985FFFCCF9093A00931963F
:100310009923B1F70895982F8091A10A85FFFCCF0A
:100320009093A00A0895FC0190818091A10A85FF15
:10033000FCCF9093A00A31969923B1F708952F929C
:100340003F924F925F926F927F928F929F92AF9265
:10035000BF92CF92DF92EF92FF920F931F93DF93A2
:10036000CF93CDB7DEB72897CDBFDEBFC090E922CF
:10037000D090EA22E090EB22F090EC228091712163
:100380009091722101966AE070E00E94112B8C011D
:100390008093712190937221000F111F000F111F84
:1003A00023ED222E21E2322E200E311E60917B2180
:1003B00070917C2180917D2190917E21D1012D91A0
:1003C0003D914D915C910E94E7284B015C010D57D6
:1003D0001E4D6091732170917421809175219091CF
:1003E0007621F80120813181428153810E94E728E2
:1003F0002B013C01C701B601A70196010E949A2A70
:100400009B01AC01D1016D937D938D939C931397C8
:10041000F801C082D182E282F382C501B4010E9458
:10042000E8284B015C0160937B2170937C218093D1
:100430007D2190937E21C301B201A70196010E9404
:10044000E8289B01AC016093732170937421809321
:100450007521909376210E949A2A20E030E040E2B4
:1004600051EC0E9450299B01AC01C501B4010E94CE
:10047000E82820E030E040E251E40E9450292FE6D5
:1004800032E143E05BE30E94962A18161CF4CC2468
:10049000DD2470C0E091CD20F091CE20EE0FFF1F43
:1004A000EE0FFF1F9F01235D344D40E050E060E000
:1004B00070E0D9014D935D936D937C931397EB504E
:1004C000FB4D4083518362837383E0909020F090D2
:1004D00091200091922010919320C801B7012DEC3A
:1004E0003CEC4CEC5DE30E944C2988233CF4C801B1
:1004F000B7012AE939E949E95EE306C0C801B70155
:100500002DEC3CEC4CE45FE30E949A2A609390202F
:10051000709391208093922090939320E090942068
:10052000F09095200091962010919720C801B70176
:100530002DEC3CEC4CEC5DE30E944C2988233CF410
:10054000C801B7012AE939E949E95EE306C0C801F3
:10055000B7012DEC3CEC4CE45FE30E949A2A6093D7
:10056000942070939520809396209093972081E01B
:10057000C82ED12C8090942090909520A090962009
:10058000B09097206091902070919120809192205E
:1005900090919320209198203091992040919A2019
:1005A00050919B200E94E7287B018C012DEC3CECB4
:1005B0004CE45EE30E94962A181654F4809143217D
:1005C00090914421019680934321909344210EC041
:1005D000C801B7012DEC3CEC4CE45EEB0E944C29C9
:1005E00087FDECCF1092432110924421809143214A
:1005F000909144210B971CF0CC24CA94DC2CC501AB
:10060000B4012DEC3CEC4CE45EE30E94962A1816F3
:1006100054F0C501B4012DEC3CEC4CE45EEB0E94BF
:100620004C29882354F480914521909146210196CC
:10063000809345219093462104C010924521109249
:10064000462180914521909146210B971CF0CC24A6
:10065000CA94DC2CC6012896CDBFDEBFCF91DF91B6
:100660001F910F91FF90EF90DF90CF90BF90AF90D0
:100670009F908F907F906F905F904F903F902F90C2
:1006800008952F923F924F925F926F927F928F9236
:100690009F92AF92BF92CF92DF92EF92FF920F9311
:1006A0001F93DF93CF93CDB7DEB72A97CDBFDEBFC1
:1006B00089879A87892BB9F46091E1237091E223AD
:1006C0008091E3239091E4232091E5223091E6226A
:1006D0004091E7225091E8222B833C834D835E8337
:1006E00045EE52E231C089859A850197B9F460914F
:1006F0008D2270918E2280918F2290919022209154
:10070000292B30912A2B40912B2B50912C2B2B8372
:100710003C834D835E8349E25BE216C06091152BFA
:100720007091162B8091172B9091182B2091C72632
:100730003091C8264091C9265091CA262B833C830C
:100740004D835E8347EC56E249835A832090902480
:10075000309091244090922450909324E985FA851A
:10076000EE0FFF1FEE0FFF1FEF83F8878F010B596E
:100770001E4DA20191010E949A2AF8012081318127
:10078000428153810E94E8286B017C01F80160835B
:1007900071838283938327E234E64FEA5FE30E940A
:1007A0004C2988230CF0B9C0C701B60127E234E612
:1007B0004FEA5FEB0E94962A18160CF0AEC08091AB
:1007C000CB209091CC20019709F0A7C069847A844E
:1007D000660C771C27E431E2620E731EF301A080E1
:1007E000B1808F8098842DE431E2820E931E34E62E
:1007F000A316B10409F064C0F401C080D180E28086
:10080000F380C701B60120E030E040E050E00E94F4
:100810004C29882329F460E070E080E090E011C06A
:100820002F813885275A3E4DF9012081318142813F
:100830005381CA01B9010E94E828A70196010E94CC
:10084000502909851A85000F111F000F111FF8018B
:10085000E85CFF4D20813181428153810E94502903
:1008600020E030E048EC52E40E949A2A20E030E098
:1008700048ED52E40E9450299B01AC016B817C81C0
:100880008D819E810E94E828E981FA8160837183CD
:1008900082839383F801EB59FE4D80E090E0A0E065
:1008A000B0E080839183A283B383F801E75AFE4DC1
:1008B00080839183A283B383035B1E4DF80148C0FC
:1008C0000F811885075A1E4DC701B601A20191017B
:1008D0000E949A2A9B01AC01F8016081718182819A
:1008E00093810E94E828F801608371838283938357
:1008F000F4016081718182819381A20191010E9442
:10090000E828F40160837183828393830894A11C97
:10091000B11CF301A082B18228C029853A85220F3B
:10092000331F220F331FF901EB59FE4D80E090E099
:10093000A0E0B0E080839183A283B383F901E75AFA
:10094000FE4D80839183A283B383235B3E4DF901E7
:1009500080839183A283B38329853A85220F331F35
:10096000295B3E4DF901108211822A96CDBFDEBF70
:10097000CF91DF911F910F91FF90EF90DF90CF907B
:10098000BF90AF909F908F907F906F905F904F90AF
:100990003F902F9008952F923F924F925F926F92C7
:1009A0007F928F929F92AF92BF92CF92DF92EF92FF
:1009B000FF920F931F93DF93CF93CDB7DEB7699765
:1009C000CDBFDEBF11C08CEB95E20E94940F0B5C93
:1009D000184DF8018083809125229091262201965E
:1009E00080932522909326228CEB95E20E948A0F19
:1009F0000091252210912622882329F700931721A0
:100A000010931821C8016EE070E00E94FD2A2B01AE
:100A10002091C3203091C420F0917A20FD8BB091B9
:100A20007B20A0917C2090917D2040917620498B65
:100A3000509177205A8B809178208B8BE091792090
:100A4000EC8BF0917220FD87409173204E8750917E
:100A500074205F8780917520888B609194247091B9
:100A60009524E0910721F0910821EB87FC874091C4
:100A700005215091062149875A87E0910321F09181
:100A80000421EF83F88740910121509102214D8389
:100A90005E83E091FF20F0910021EB83FC83409185
:100AA000FD205091FE2049835A83E091DF23F0918D
:100AB000E023EE8BFF8B15E3C12E17E2D12E22240B
:100AC000332495C00894C11CD11CF601808182306A
:100AD000C9F78585833009F087C03196DF0111960B
:100AE0008181F601718066249301280F311D2983CD
:100AF0003A83FD013196CF010196218111969C9098
:100B00008824A401420F511D4B835C83FC01319664
:100B1000DF0111962181FC01B180AA24A501420FB9
:100B2000511D4D835E83FD013196CF0101962181D8
:100B30001196FC90EE24F701E20FF11DEF83F88788
:100B4000FC013196DF0111962181FC01118100E049
:100B5000A801420F511D49875A8712968C9112970E
:100B600011965C91598F188EE88DF98DE80FF11D63
:100B7000EB87FC872B813C81B90180E090E00E94EB
:100B8000E42920E030E04AE754E40E9450296D87D0
:100B90007E878F87988B4D815E81BA0180E090E0DF
:100BA0000E94E42920E030E04AE754E40E94502902
:100BB000698B7A8B8B8B9C8BE981FA81BF0180E0FA
:100BC00090E00E94E42920E030E048EC52E40E94EA
:100BD00050296D8BB72FA82F21E030E063E070E043
:100BE00042E050E04E8B5F8B0894211C311C241492
:100BF000350408F46ACF2093C3203093C4202D8994
:100C00003B2F4A2F592FC901DA0180937A20909304
:100C10007B20A0937C20B0937D2029893A894B8941
:100C20005C89C901DA018093762090937720A093A4
:100C30007820B09379202D853E854F855889C9014C
:100C4000DA018093722090937320A0937420B09364
:100C5000752060939424709395248B859C85809354
:100C6000072190930821E985FA85E0930521F09307
:100C700006212F81388520930321309304214D8153
:100C80005E8140930121509302218B819C8180934E
:100C9000FF2090930021E981FA81E093FD20F093F9
:100CA000FE202E893F892093DF233093E02310928A
:100CB0002522109226226996CDBFDEBFCF91DF910B
:100CC0001F910F91FF90EF90DF90CF90BF90AF906A
:100CD0009F908F907F906F905F904F903F902F905C
:100CE00008952F923F924F925F926F927F928F92D0
:100CF0009F92AF92BF92CF92DF92EF92FF920F93AB
:100D00001F93DF93CF9300D000D0CDB7DEB711C0D3
:100D100080E998E20E94940F0353144DD8018C93FC
:100D200080912322909124220196809323229093F4
:100D3000242280E998E20E948A0F009123221091D8
:100D40002422882329F70353144DF80110828DECD7
:100D50009BE26BE570E00E94242B2C01E82FF92F19
:100D6000DF010D900020E9F71D01089421083108EA
:100D70002E1A3F0A009731F4109223221092242257
:100D80001092CD2BD2011196F2018181853409F0A8
:100D90004FC2FAE02F16310408F44AC218968C911B
:100DA00018978D3509F044C2FD01319611963C919A
:100DB000DF0111967181AD014F5F5F4F11962C914C
:100DC0003E3409F0DEC180E090E0A0E0B0E0809326
:100DD000B3209093B420A093B520B093B620809315
:100DE000BB209093BC20A093BD20B093BE2081E097
:100DF00090E08093442090934520B1C12093352109
:100E00006093362180913521422F481B40931F214A
:100E100080913621861B809320218D819E810197B0
:100E200021F4709231219092322180913121972DBD
:100E3000981B90931B2180913221A92DA81BA09370
:100E40001C218091B9209091BA207301E81AF90A07
:100E5000E0928D23F0928E238091C1209091C22048
:100E60008401081B190B00938D2810938E2897017D
:100E700040E050E0B1E0EB16B0E8FB0690F060E037
:100E800070E081E090E0621B730B840B950B0E9475
:100E9000E6299B01AC01505829833A834B835C833C
:100EA00008C0CA01B9010E94E42969837A838B834F
:100EB0009C83980140E050E080E80130180788F0FA
:100EC00060E070E081E090E0621B730B840B950B97
:100ED0000E94E6295B016C01D7FAD094D7F8D09430
:100EE00006C0CA01B9010E94E4295B016C019701A7
:100EF00040E050E091E0E91690E8F90678F060E013
:100F000070E081E090E0621B730B840B950B0E94F4
:100F1000E62920E030E04AEF57EC08C0CA01B901E9
:100F20000E94E42920E030E04AEF57E40E94502973
:100F30006093B3207093B4208093B5209093B62033
:100F4000980140E050E00150104878F060E070E017
:100F500081E090E0621B730B840B950B0E94E629E5
:100F600020E030E04AEF57EC08C0CA01B9010E9406
:100F7000E42920E030E04AEF57E40E9450296093D2
:100F8000BB207093BC208093BD209093BE206981CC
:100F90007A818B819C812CE638E64DE250E40E94F8
:100FA0009A2A7B018C01C601B5012CE638E64DE298
:100FB00050E40E949A2A5B016C01ED81FE81319719
:100FC000E1F4C801B7012AE939E942E053E40E949B
:100FD00050290E94B82960933321C601B5012AE93E
:100FE00039E942E053E40E9450290E94B8296093F5
:100FF00034211092362010923720C801B701209179
:1010000021213091222140912321509124210E94BD
:10101000E8287B018C016093212170932221809329
:10102000232190932421C601B501209125213091DF
:10103000262140912721509128210E94E8285B0118
:101040006C01609325217093262180932721909332
:101050002821C801B7012AE939E942E053E40E9496
:1010600050290E94B82920913321621B60931D21D1
:10107000C601B5012AE939E942E053E40E9450294A
:101080000E94B82920913421621B60931E21609137
:10109000B3207091B4208091B5209091B6202EEBB2
:1010A00036EA45EC59E30E9450295B016C016093DC
:1010B000292170932A2180932B2190932C216091D8
:1010C000BB207091BC208091BD209091BE202EEB62
:1010D00036EA45EC59E30E9450297B018C0160936C
:1010E0002D2170932E2180932F2190933021C601C2
:1010F000B5010E94B82960939B29C801B7010E94DD
:10110000B82960938F286092B9207092BA2080929B
:10111000C1209092C22081E090E0809311209093B2
:1011200012208091442090914520892BC1F080E0CD
:1011300090E0A0E0B0E08093B3209093B420A0931F
:10114000B520B093B6208093BB209093BC20A09391
:10115000BD20B093BE20109244201092452026EF6F
:101160003FEF220E331E20922322309224224AE0A7
:1011700050E0440E551E8DEC9BE2B2010E942F2BD5
:1011800057C0672E77248FE16822772486E0660CAB
:10119000771C8A95E1F72F73620E711C932F990FBC
:1011A000990F990F80E0680E791E6092B7207092B7
:1011B000B820DA011196FD0131968181882E99249B
:1011C0009FE18922992406E0880C991C0A95E1F791
:1011D00082818F73880E911C11962C91922F990FFA
:1011E000990F990F80E0880E991E8092BF209092EF
:1011F000C020C30164E670E00E94FD2A9B013070AC
:101200002093372130933821C40164E670E00E94B6
:10121000FD2A70706093392170933A21A091362095
:10122000B0913720AD83BE83119709F0EBCDE6CDA9
:101230002696CDBFDEBFCF91DF911F910F91FF901A
:10124000EF90DF90CF90BF90AF909F908F907F9066
:101250006F905F904F903F902F900895EF92FF9284
:101260000F931F93E0E4F6E028E0E22EE18294E0A1
:10127000F92EF28280E998E260EA78E041E00E948B
:10128000460FE0EAF8E003E00583A0919028B091D2
:10129000912813968C911397806313968C9310E189
:1012A000168317838481846084838481806184832E
:1012B000848188608483E0E6F6E0E182F2828CEB50
:1012C00095E260EA79E041E00E94460FE0EAF9E049
:1012D0000583A091BC25B091BD2513968C911397E1
:1012E000806313968C931683178284818460848331
:1012F000848180618483848188608483E0EAF0E073
:10130000828181608283E0E8F6E0E182F2828AE015
:101310009AE260EA7AE041E00E94460FE0EAFAE0F1
:101320000583A0910A2AB0910B2A13968C911397EA
:101330008F7C806113968C931683178384818460DD
:1013400084838481806184838481886084831F9105
:101350000F91FF90EF900895EF92FF920F931F93DC
:10136000E0913420F0913520EE24E394E68235E3D9
:10137000F32E8F2D8A95F1F70DE415E2C80160E296
:101380000E94F60EC80167E50E94F60E8F2D8A9521
:10139000F1F7E0913420F0913520E5828F2D8A9588
:1013A000F1F7E6828F2D8A95F1F7C80161E20E947C
:1013B000F60EC80160E00E94F60E8F2D8A95F1F7B7
:1013C000E0913420F0913520E5828F2D8A95F1F758
:1013D000E6828F2D8A95F1F7C80162E20E94F60E2F
:1013E000C80160E00E94F60E8F2D8A95F1F7E0911A
:1013F0003420F0913520E5828F2D8A95F1F7E68231
:101400008F2D8A95F1F7C80163E20E94F60EC8019C
:1014100068E80E94F60E8F2D8A95F1F7E09134204E
:10142000F0913520E5828F2D8A95F1F7E6828F2D98
:101430008A95F1F7C80164E20E94F60EC80160E0E7
:101440000E94F60E8F2D8A95F1F7E0913420F091ED
:101450003520E582E6828F2D8A95F1F7C80165E295
:101460000E94F60EC80160E00E94F60E8F2D8A954C
:10147000F1F7E0913420F0913520E582E6828F2D5E
:101480008A95F1F7C8016FE10E94F60EC80160EC81
:101490000E94F60EFA94F1F7E0913420F091352095
:1014A000E5821F910F91FF90EF9008952F923F9248
:1014B0004F925F926F927F928F929F92AF92BF9264
:1014C000CF92DF92EF92FF920F931F93DF93CF9310
:1014D000CDB7DEB76C97CDBFDEBF0E9407010E947B
:1014E0004F010E942E090E942C01E0EAF0E01182D7
:1014F00087E08283789400E6802E06E0902E91E0CB
:10150000D40111969C93119788E350968C93509731
:1015100012E0F12E1196FC92119751968C935197EF
:1015200015969C9315971596FC928DE495E260ECC8
:1015300079E040E656E020E00CE0EE24CC24AA243A
:10154000A3940E940D0E0E94AC0980E09AE268E22A
:1015500070E24FE752E227E000E616E0A2E0EA2E52
:101560000E94630EF401F6828DE495E260E07AE277
:101570000E94030FD4011596FC9280E090E020E0D9
:1015800030E040E050E0FC01E05CFB4D2083318323
:1015900042835383FC01E35CFC4D2083318342830F
:1015A0005383FC01E256FB4D2083318342835383F6
:1015B000FC01E35DF44D2083318342835383FC01BE
:1015C000EB50FB4D2083318342835383FC01E35175
:1015D000FD4D2083318342835383FC01E15DFD4D4A
:1015E0002083318342835383FC01EB56FD4D2083DE
:1015F000318342835383FC01E451FC4D20833183CA
:101600004283538304968035910509F0BCCF198637
:101610001A861B8E1C8E20E030E040E050E02D83C7
:101620003E834F83588729833A834B835C83290108
:101630003A0149015A0104C04B855C8549875A87A4
:101640008091F9209091FA20892BD1F31092F92002
:101650001092FA2080912008909121088B879C8716
:1016600080E09AE263E170E246E852E227E000E6B9
:1016700016E0EE24E3940E94630EF0E6CF2EF6E02F
:10168000DF2E11E0D60116961C938AE18A95F1F7B8
:101690008DE495E260E07AE20E94030F8AE18A9588
:1016A000F1F7F601158380E09AE261E270E24FE71C
:1016B00052E227E000E616E0E2E0EE2E0E94630E22
:1016C00012E0D60116961C938AE18A95F1F78DE413
:1016D00095E260E07AE20E94030F8AE18A95F1F7D1
:1016E000F60115836B857C8529853A85621B730B12
:1016F00080E090E00E94E42920E034E244EF59E4E5
:101700000E94502920E030E040E052E40E949A2AF2
:1017100060939024709391248093922490939324C7
:101720008091882280588093882290918A229058B4
:1017300090938A2220918C22205820938C228E8B89
:101740001D8A809187224D895E89480F511D4B8BE0
:101750005C8B988F1F8A809189226F89788D680FA2
:10176000711D2A8F198E80918B22A98DBA8DA80F99
:10177000B11DA98BBA8B2091812220582093812200
:101780008091832280588093832290918522905863
:1017900090938522382E222480918222F101E80F35
:1017A000F11DEF87F88BD22ECC24809180229601F8
:1017B000280F311D2D873E87F92EEE24809184223B
:1017C0008701080F111D4B8D5C8D4436510508F4BF
:1017D00047C08B8D9C8D8C54944008F046C080E0AF
:1017E00090E00E94E4299B01AC016D817E818F8194
:1017F00098850E94E8286D837E838F839887EB8984
:10180000FC89BF0180E090E00E94E4299B01AC01CB
:1018100069817A818B819C810E94E82869837A831F
:101820008B839C8329893A89B90180E090E00E94EA
:10183000E4299B01AC01C301B2010E94E8282B01FD
:101840003C01B80180E090E00E94E4299B01AC01DA
:10185000C501B4010E94E8284B015C014B8D5C8DF1
:101860004F5F5F4F4B8F5C8FE7CE8B8D9C8D8C5481
:10187000944009F06FC06D817E818F81988520E052
:1018800030E04AE754E40E9450296093252B70937E
:10189000262B8093272B9093282B69817A818B812B
:1018A0009C8120E030E04AE754E40E945029609394
:1018B000492570934A2580934B2590934C25C3016D
:1018C000B20120E030E04AE754E40E94502920E0D1
:1018D00030E04AE756E40E94E72860933C24709386
:1018E0003D2480933E2490933F24C501B40120E021
:1018F00030E04AE754E40E9450296093C726709371
:10190000C8268093C9269093CA2620E030E040E0A4
:1019100050E02093F92C3093FA2C4093FB2C5093F9
:10192000FC2C2093FD2C3093FE2C4093FF2C5093E5
:10193000002D8DEC9CECACE1B1E48093012D9093F3
:10194000022DA093032DB093042DADE4B4E0AB8F32
:10195000BC8F72CE809120089091210880E090E0A9
:101960000E94E4292091252B3091262B4091272B92
:101970005091282B0E94E7282EE230E940E25AEBF2
:101980000E949A2A6093E9227093EA228093EB22C4
:101990009093EC22EB89FC89BF0180E090E00E94EB
:1019A000E4292091492530914A2540914B255091B9
:1019B0004C250E94E7282EE230E940E25AEB0E94D3
:1019C0009A2A60932B2270932C2280932D2290933D
:1019D0002E2229893A89B90180E090E00E94E42909
:1019E00020913C2430913D2440913E2450913F244D
:1019F0000E94E7282EE230E940E25AE30E949A2A48
:101A000060939A2470939B2480939C2490939D24AC
:101A10004F855889BA0180E090E00E94E429209126
:101A2000E5223091E6224091E7225091E8220E947F
:101A3000E72829EA34EE49E159EB0E949A2A60939B
:101A4000E1237093E2238093E3239093E423AD8515
:101A5000BE85BD0180E090E00E94E4292091292B01
:101A600030912A2B40912B2B50912C2B0E94E72850
:101A700029EA34EE49E159E30E949A2A60938D22C3
:101A800070938E2280938F2290939022B80180E0F1
:101A900090E00E94E4292091C7263091C826409109
:101AA000C9265091CA260E94E72829E732E240E27F
:101AB00059E30E949A2A6093152B7093162B8093FA
:101AC000172B9093182BEDB7FEB73A97EDBFFEBFDB
:101AD00031962BEC36E2ADB7BEB711962D933C9301
:101AE000129740E050E2428353838F859889848324
:101AF0009583AD85BE85A683B783008711870E9435
:101B0000362BEDB7FEB73A96EDBFFEBF8BEC96E2F3
:101B10000E946B018BEC96E20E947F018DCD1F929B
:101B20000F920FB60F920BB60F9211242F933F9383
:101B30004F935F936F937F938F939F93AF93BF93D5
:101B4000EF93FF938AE09AE20E94A00FFF91EF913A
:101B5000BF91AF919F918F917F916F915F914F91C5
:101B60003F912F910F900BBE0F900FBE0F901F90C3
:101B700018951F920F920FB60F920BB60F92112469
:101B80002F933F934F935F936F937F938F939F9385
:101B9000AF93BF93EF93FF938CEB95E20E94A00F5E
:101BA000FF91EF91BF91AF919F918F917F916F9135
:101BB0005F914F913F912F910F900BBE0F900FBEF1
:101BC0000F901F9018951F920F920FB60F920BB6A1
:101BD0000F9211242F933F934F935F936F937F93B3
:101BE0008F939F93AF93BF93EF93FF9380E998E216
:101BF0000E94A00FFF91EF91BF91AF919F918F91A4
:101C00007F916F915F914F913F912F910F900BBEFC
:101C10000F900FBE0F901F901895AF92CF92EF923A
:101C20000F93DC01FA016D937C93119712964D93FB
:101C30005C93139714961C92149780E18183ED9125
:101C4000FC911197CC2011F490E001C090E8222380
:101C500011F480E001C080E200650A29902B892BF5
:101C60008083ED91FC911197E18215961D921C9253
:101C700016971296ED91FC91139780EA81830F914C
:101C8000EF90CF90AF900895EF920F93DC01FB019E
:101C90006D937C93119712964D935C931397222327
:101CA00011F480E401C080E6802B8083ED91FC91EB
:101CB0001197E1821296ED91FC91139780E4818354
:101CC0000F91EF900895EF920F931F93FC01008303
:101CD0001183E2826383748345835683278310864E
:101CE00011861F910F91EF900895CF93DF93DC0140
:101CF0001596CD91DC9116979885ED91FC911197F1
:101D0000808184FD05C081E014968C93149724C0D3
:101D10008381ED81FE81E90FF11D80839F5F159620
:101D2000ED91FC9116978781981758F40380F48100
:101D3000E02DE90FF11D8081ED91FC9111978383D6
:101D40000BC082810190F081E02D85831596ED9185
:101D5000FC91169781E081871596ED91FC9116977D
:101D60009087DF91CF910895CF93DF93DC01EB0152
:101D700014969C9114971596ED91FC9116973097B7
:101D800029F415966D937C93169710C0818588234E
:101D900011F482E028C0992349F01296ED91FC914C
:101DA0001397848184FD02C081E01DC01596CD93F8
:101DB000DC931697198614961C9214978A81E881F1
:101DC000F98186831596ED91FC91169710861596EC
:101DD000ED91FC9116970380F481E02D8081ED91C7
:101DE000FC91838380E0DF91CF910895FC01A08175
:101DF000B18113966C930190F081E02D828187FF71
:101E0000FDCF83810895CF93DF93EC01FB01611532
:101E1000710511F480E037C06D837E834281A0811B
:101E2000B181109711F016964C93678190E01AC01B
:101E3000292F30E00380F481E02DE20FF31F808131
:101E4000E881F9818383E881F981828187FFFDCF71
:101E50008381ED81FE810580F681E02DE20FF31F85
:101E600080839F5FED81FE81961710F30190F081D2
:101E7000E02D309709F04583ED81FE816087ED818B
:101E8000FE8181E08187DF91CF910895FC0160831D
:101E900071834283E85FFE4F108212923396108264
:101EA00012920895FC0162830895FC01E75FFE4FE2
:101EB0008191908120E08F5F8370891321E0822FD0
:101EC0000895CF93DF93DC01EC01C75FDE4F88817B
:101ED000A65FBE4F9C91AA50B14020E08F5F8370F7
:101EE0008917A1F021E08881FD01E80FF11DED5F68
:101EF000FE4F60838F5F83708883ED91FC91119713
:101F000083818C7F12969C91892B8383822FDF9112
:101F1000CF910895FC01E95FFE4F9191808120E00F
:101F2000981321E0822F0895FC01DC01A85FBE4FC9
:101F30008C91E80FF11D83819C919F5F9C93089584
:101F4000CF93DF93DC01EC01C95FDE4F98819F5F87
:101F5000A85FBE4F8C91A850B140ED91FC911197B4
:101F6000E081981711F480E007C08881A80FB11DA7
:101F70001396EC93988381E0DF91CF910895CF93EE
:101F8000DF93FC01EC01C65FDE4F9881E75FFE4FF7
:101F90008081E950F140A081B181891739F413960D
:101FA0008C9113978C7F13968C930BC08881E80FCC
:101FB000F11DED5FFE4F80818C9388818F5F837070
:101FC0008883DF91CF910895FC0170FF03C0848165
:101FD000816002C084818E7F848360830895FC01C8
:101FE000848180FF05C08081282F30E0316003C0EC
:101FF0008081282F30E0C90108952F923F924F929F
:102000005F926F927F928F929F92AF92BF92CF9288
:10201000DF92EF92FF920F931F93DF93CF93CDB791
:10202000DEB7C454D040CDBFDEBF24968FAF249717
:1020300025969FAF259723964EAF5FAF2397FE015E
:10204000319680E4DF011D928A95E9F71B01442453
:1020500055245AC0F101EA0DFB1D60817181828116
:102060009381F60120813181428153810E949A2A15
:102070009B01AC01C801B7010E94E8287B018C01DB
:1020800084E090E0A80EB91EA0E1B0E0CA0EDB1E0D
:10209000B0E1AB16B104F1F6F401E192F1920193D3
:1020A00011934F010894611C711CF4E06F167104C8
:1020B00099F0D401ED90FD900D911C916301CC0C31
:1020C000DD1CCC0CDD1C2396EEADFFAD2397CE0EB0
:1020D000DF1EAA24BB24BECF0894411C511C80E102
:1020E00090E0280E391E94E04916510469F4FE016F
:1020F000319624968FAD249725969FAD25979C0108
:10210000AE014F5B5F4F0FC0420184E0880C991C09
:102110008A95E1F7A1E0B0E0AC0FBD1F8A0E9B1ECF
:1021200066247724C6CFE080F18002811381D90133
:10213000ED92FD920D931C931397E480F580068138
:1021400017811496ED92FD920D931C931797E084DE
:10215000F184028513851896ED92FD920D931C93E0
:102160001B97E484F584068517851C96ED92FD92F5
:102170000D931C931F977096205F3F4FE417F50750
:1021800091F6CC5BDF4FCDBFDEBFCF91DF911F91CA
:102190000F91FF90EF90DF90CF90BF90AF909F9006
:1021A0008F907F906F905F904F903F902F90089509
:1021B0002F923F924F925F926F927F928F929F9257
:1021C000AF92BF92CF92DF92EF92FF920F931F9345
:1021D000DF93CF93CDB7DEB76297CDBFDEBF898BDC
:1021E0009A8B2A01FE01319680E1DF011D928A95CA
:1021F000E9F73B018824992438E0232E312C240E62
:10220000351E4CC0F3016081718182819381D601BA
:102210002D913D914D915C910E949A2AF50120816A
:102220003181428153810E94E8287B018C01D301D6
:1022300014966D917D918D919C911797F601208553
:102240003185428553850E949A2A9B01AC01C801C1
:10225000B7010E94E828D5016D937D938D939D93DE
:102260005D01E4E0F0E0CE0EDF1EC214D30451F6AF
:102270000894811C911C88E090E0680E791E92E021
:102280008916910459F4AE014F5F5F4F89899A898D
:102290009C01F9019E012F5E3F4F0EC0540123E0C7
:1022A000AA0CBB1C2A95E1F7A1E0B0E0AC0FBD1F62
:1022B000AA0EBB1E6201A6CFDA01AD90BD90CD90F3
:1022C000DC901397A082B182C282D3821496AD9023
:1022D000BD90CD90DC901797A482B582C682D7823C
:1022E000485F5F4F38964217530731F76296CDBF6C
:1022F000DEBFCF91DF911F910F91FF90EF90DF90A4
:10230000CF90BF90AF909F908F907F906F905F9095
:102310004F903F902F9008954F925F926F927F92CF
:102320008F929F92AF92BF92CF92DF92EF92FF92E5
:102330000F931F93DF93CF93CDB7DEB72897CDBF11
:10234000DEBF3C014A01DE011196E2E5F0E288E0E1
:1023500001900D928150E1F75E010894A11CB11C1F
:102360006B0149E0442E512C4C0E5D1EF60160813C
:10237000718182819381F401208131814281538175
:102380000E949A2AF50120813181428153810E9465
:10239000E8287B018C01F601648175818681978133
:1023A000F40124813581468157810E949A2A9B013C
:1023B000AC01C801B7010E94E828F501619371934F
:1023C000819391935F0188E090E0C80ED91EE415D7
:1023D000F50561F689819A81AB81BC81F301808327
:1023E0009183A283B3838D819E81AF81B8858483DD
:1023F0009583A683B7832896CDBFDEBFCF91DF91AB
:102400001F910F91FF90EF90DF90CF90BF90AF9012
:102410009F908F907F906F905F904F9008958F92D4
:102420009F92AF92BF92CF92DF92EF92FF920F9363
:102430001F93CF93DF93480159016B017A01EC019F
:1024400000E010E0C501B401F70120813181428133
:1024500053810E949A2A9B01AC01F601608171812F
:10246000828193810E94E828688379838A839B8391
:10247000C501B401F70124813581468157810E944D
:102480009A2A9B01AC01F60164817581868197814E
:102490000E94E8286C837D838E839F830F5F1F4F8C
:1024A00088E090E0C80ED91EE80EF91E289602308A
:1024B000110541F6DF91CF911F910F91FF90EF90A1
:1024C000DF90CF90BF90AF909F908F9008958F92A4
:1024D0009F92AF92BF92CF92DF92EF92FF920F93B3
:1024E0001F934C015B016A0178018901C801B701A2
:1024F000FA0120813181428153810E949A2A9B01F5
:10250000AC01F50160817181828193810E94E8288C
:10251000F4016083718382839383C801B701F6015C
:1025200024813581468157810E949A2A9B01AC0102
:10253000F50164817581868197810E94E828F40104
:1025400064837583868397831F910F91FF90EF902B
:10255000DF90CF90BF90AF909F908F9008952F9273
:102560003F924F925F926F927F928F929F92AF9223
:10257000BF92CF92DF92EF92FF920F931F93DF9360
:10258000CF93CDB7DEB76697CDBFDEBF8D8B9E8B69
:10259000FB0180819181A281B381898B9A8BAB8B66
:1025A000BC8BA484B584C684D784648075808680FF
:1025B00097802084318442845384BC01CD01A601DC
:1025C00095010E949A2A7B018C01C401B301A201EA
:1025D00091010E949A2A9B01AC01C801B7010E9497
:1025E000E7287B018C0120E030E040E050E00E94D1
:1025F0004C29882309F450C0C601B501A8019701F0
:102600000E94502969837A838B839C83C401B30120
:102610009058A80197010E9450296D837E838F8373
:102620009887C201B1019058A80197010E945029D2
:1026300069877A878B879C8769897A898B899C8946
:10264000A80197010E9450296D877E878F87988BFC
:10265000AE014F5F5F4F2D893E89C901FC019E018C
:102660002F5E3F4FDA01ED90FD900D911C91139775
:10267000E082F182028313831496ED90FD900D9118
:102680001C911797E482F58206831783485F5F4F9A
:1026900038964217530731F76696CDBFDEBFCF910C
:1026A000DF911F910F91FF90EF90DF90CF90BF903F
:1026B000AF909F908F907F906F905F904F903F90E2
:1026C0002F9008952F923F924F925F926F927F9238
:1026D0008F929F92AF92BF92CF92DF92EF92FF9232
:1026E0000F931F93DF93CF93CDB7DEB7C655D0407E
:1026F000CDBFDEBF8C01DC011C968D919D910D90AC
:10270000BC91A02D8DA39EA3AFA3B8A760E1E62E38
:10271000F12CE00EF11ED70118968D919D910D9030
:10272000BC91A02D89A39AA3ABA3BCA36DA17EA14C
:102730008FA198A529A13AA14BA15CA10E949A2A38
:1027400069A77AA78BA79CA750E2C52ED12CC00EF3
:10275000D11ED60114968D919D910D90BC91A02D06
:102760008D8F9E8FAF8FB8A3F801F0966796EEAF6E
:10277000FFAF6797D801D0968D919D910D90BC9138
:10278000A02D898F9A8FAB8FBC8FD80118968D9111
:102790009D910D90BC91A02D8D8B9E8BAF8BB88F92
:1027A000F7016484758486849784BC01CD01A401FB
:1027B00093010E949A2A6DA77EA78FA798ABD70195
:1027C00014968D919D910D90BC91A02D898B9A8B23
:1027D000AB8BBC8B6DA17EA18FA198A529893A896D
:1027E0004B895C890E949A2A69AB7AAB8BAB9CAB14
:1027F000D60118968D919D910D90BC91A02D8D873D
:102800009E87AF87B88BF80124803580468057803B
:10281000C201B101A40193010E949A2A6DAB7EAB63
:102820008FAB98AF6D897E898F89988D29893A8978
:102830004B895C890E949A2A69AF7AAF8BAF9CAFB3
:10284000D6011C968D919D910D90BC91A02D8987EC
:102850009A87AB87BC87C201B10129A13AA14BA1DC
:102860005CA10E949A2A21966CAF7DAF8EAF9FAF7C
:102870002197D80190968D919D910D90BC91A02D9E
:102880008D839E83AF83B8876796AEADBFAD6797E4
:1028900014968D919D910D90BC91A02D89839A8362
:1028A000AB83BC83F801A088B188C288D3886DA1AE
:1028B0007EA18FA198A5A60195010E949A2A25962E
:1028C0006CAF7DAF8EAF9FAF2597D801ED90FD9097
:1028D0000D911C91C801B701A40193010E949A2A8D
:1028E00029966CAF7DAF8EAF9FAF29976D897E899A
:1028F0008F89988DA60195010E949A2A2D966CAF1A
:102900007DAF8EAF9FAF2D97C801B70129A13AA126
:102910004BA15CA10E949A2A61966CAF7DAF8EAFED
:102920009FAF61976796EEADFFAD67976084718446
:1029300082849384C201B101A60195010E949A2A62
:102940001B012C01C801B70129893A894B895C898F
:102950000E949A2A65966CAF7DAF8EAF9FAF659748
:102960006796AEADBFAD67971C96AD90BD90CD900C
:10297000DC901F9769A57AA58BA59CA52D8D3E8D12
:102980004F8D58A10E949A2A298D3A8D4B8D5C8DCE
:102990000E949A2A7B018C016DA57EA58FA598A91E
:1029A0002D8D3E8D4F8D58A10E949A2A298D3A8DEA
:1029B0004B8D5C8D0E949A2A9B01AC01C801B70126
:1029C0000E94E7287B018C0169A97AA98BA99CA99F
:1029D0002D853E854F8558890E949A2A298D3A8DEA
:1029E0004B8D5C8D0E949A2A9B01AC01C801B701F6
:1029F0000E94E7287B018C016DA97EA98FA998AD63
:102A00002D853E854F8558890E949A2A298D3A8DB9
:102A10004B8D5C8D0E949A2A9B01AC01C801B701C5
:102A20000E94E8287B018C0169AD7AAD8BAD9CAD2D
:102A300029853A854B855C850E949A2A298D3A8D95
:102A40004B8D5C8D0E949A2A9B01AC01C801B70195
:102A50000E94E8287B018C0121966CAD7DAD8EAD86
:102A60009FAD219729853A854B855C850E949A2ADE
:102A7000298D3A8D4B8D5C8D0E949A2A9B01AC0169
:102A8000C801B7010E94E7287B018C0169A57AA5DE
:102A90008BA59CA52D813E814F8158850E949A2A45
:102AA00029813A814B815C810E949A2A9B01AC0169
:102AB000C801B7010E94E7287B018C016DA57EA5A6
:102AC0008FA598A92D813E814F8158850E949A2A11
:102AD00029813A814B815C810E949A2A9B01AC0139
:102AE000C801B7010E94E8287B018C0125966CADD6
:102AF0007DAD8EAD9FAD25972D853E854F8558893F
:102B00000E949A2A29813A814B815C810E949A2AEB
:102B10009B01AC01C801B7010E94E8287B018C0130
:102B200029966CAD7DAD8EAD9FAD29972D853E85E7
:102B30004F8558890E949A2A29813A814B815C816C
:102B40000E949A2A9B01AC01C801B7010E94E728A4
:102B50007B018C012D966CAD7DAD8EAD9FAD2D971B
:102B600029853A854B855C850E949A2A29813A817C
:102B70004B815C810E949A2A9B01AC01C801B7017C
:102B80000E94E7287B018C0161966CAD7DAD8EAD16
:102B90009FAD619729853A854B855C850E949A2A6D
:102BA00029813A814B815C810E949A2A9B01AC0168
:102BB000C801B7010E94E8287B018C0169A97AA9A4
:102BC0008BA99CA92D813E814F8158850E949A2A0C
:102BD000A40193010E949A2A9B01AC01C801B7018C
:102BE0000E94E8287B018C016DA97EA98FA998AD70
:102BF0002D813E814F8158850E949A2AA40193011C
:102C00000E949A2A9B01AC01C801B7010E94E728E3
:102C10007B018C0125966CAD7DAD8EAD9FAD25976A
:102C20002D8D3E8D4F8D58A10E949A2AA4019301AB
:102C30000E949A2A9B01AC01C801B7010E94E728B3
:102C40007B018C0129966CAD7DAD8EAD9FAD299732
:102C50002D8D3E8D4F8D58A10E949A2AA40193017B
:102C60000E949A2A9B01AC01C801B7010E94E82882
:102C70007B018C01C201B10129853A854B855C85B8
:102C80000E949A2AA40193010E949A2A9B01AC01F6
:102C9000C801B7010E94E8287B018C0165966CADE4
:102CA0007DAD8EAD9FAD659729853A854B855C8559
:102CB0000E949A2AA40193010E949A2A9B01AC01C6
:102CC000C801B7010E94E7287B018C0169AD7AAD8C
:102CD0008BAD9CAD2D813E814F8158850E949A2AF3
:102CE000A60195010E949A2A9B01AC01C801B70177
:102CF0000E94E7287B018C0121966CAD7DAD8EADE5
:102D00009FAD21972D813E814F8158850E949A2A3F
:102D1000A60195010E949A2A9B01AC01C801B70146
:102D20000E94E8287B018C012D966CAD7DAD8EADA7
:102D30009FAD2D972D8D3E8D4F8D58A10E949A2AC3
:102D4000A60195010E949A2A9B01AC01C801B70116
:102D50000E94E8287B018C0161966CAD7DAD8EAD43
:102D60009FAD61972D8D3E8D4F8D58A10E949A2A5F
:102D7000A60195010E949A2A9B01AC01C801B701E6
:102D80000E94E7287B018C01C201B1012D853E859F
:102D90004F8558890E949A2AA60195010E949A2A75
:102DA0009B01AC01C801B7010E94E7287B018C019F
:102DB00065966CAD7DAD8EAD9FAD65972D853E85DD
:102DC0004F8558890E949A2AA60195010E949A2A45
:102DD0009B01AC01C801B7010E94E828CA5ADF4F25
:102DE000CDBFDEBFCF91DF911F910F91FF90EF908C
:102DF000DF90CF90BF90AF909F908F907F906F901B
:102E00005F904F903F902F9008952F923F924F9256
:102E10005F926F927F928F929F92AF92BF92CF926A
:102E2000DF92EF92FF920F931F93DF93CF93CDB773
:102E3000DEB7C05CD040CDBFDEBF8DAB9EABC15412
:102E4000DF4F68837983CF5BD040CB010E94621350
:102E500069837A838B839C8320E030E040E050E0FC
:102E60000E944C29882321F420E030E00C94352284
:102E7000E0E1EE2EF12CC154DF4F88819981CF5BC8
:102E8000D040E80EF91ED70118968D919D910D90B6
:102E9000BC91A02D89AB9AABABABBCABC154DF4F9F
:102EA00008811981CF5BD040005E1F4FD8011C966E
:102EB0008D919D910D90BC91A02D8DA79EA7AFA740
:102EC000B8AB69A97AA98BA99CA92DA53EA54FA548
:102ED00058A90E949A2A6FAB78AF89AF9AAF70E376
:102EE000C72ED12CC154DF4FE881F981CF5BD04090
:102EF000CE0EDF1ED60114968D919D910D90BC9142
:102F0000A02D89A79AA7ABA7BCA7D7011C968D9126
:102F10009D910D90BC91A02D8DA39EA3AFA3B8A7AA
:102F2000D80118968D919D910D90BC91A02D89A3EB
:102F30009AA3ABA3BCA36DA17EA18FA198A529A143
:102F40003AA14BA15CA10E949A2A6BAF7CAF8DAFD6
:102F50009EAFD80114968D919D910D90BC91A02D9E
:102F60008D8F9E8FAF8FB8A36DA17EA18FA198A5E5
:102F70002D8D3E8D4F8D58A10E949A2A23966CAFBD
:102F80007DAF8EAF9FAF2397D60118968D919D91FF
:102F90000D90BC91A02D898F9A8FAB8FBC8FD701DC
:102FA00014968D919D910D90BC91A02D8D8B9E8B33
:102FB000AF8BB88FBC01CD012DA53EA54FA558A95B
:102FC0000E949A2A27966CAF7DAF8EAF9FAF27974E
:102FD00069A97AA98BA99CA92D8D3E8D4F8D58A1E9
:102FE0000E949A2A2B966CAF7DAF8EAF9FAF2B9726
:102FF000D6011C968D919D910D90BC91A02D898B31
:103000009A8BAB8BBC8B6D897E898F89988D29A11A
:103010003AA14BA15CA10E949A2A2F966CAF7DAF7A
:103020008EAF9FAF2F97C154DF4FE881F981CF5BFF
:10303000D0406484758486849784C401B30129A137
:103040003AA14BA15CA10E949A2A63966CAF7DAF16
:103050008EAF9FAF6397C154DF4FA881B981CF5B1B
:10306000D04018962D903D904D905C901B97C201DA
:10307000B1012DA53EA54FA558A90E949A2A679691
:103080006CAF7DAF8EAF9FAF6797C401B3012D8D3D
:103090003E8D4F8D58A10E949A2A6B966CAF7DAFE2
:1030A0008EAF9FAF6B97C154DF4FA881B981CF5BC3
:1030B000D04014968D919D910D90BC91A02D8D873F
:1030C0009E87AF87B88BBC01CD012DA53EA54FA52E
:1030D00058A90E949A2A6F966CAF7DAF8EAF9FAFB2
:1030E0006F97C201B1012D8D3E8D4F8D58A10E9469
:1030F0009A2AA3966CAF7DAF8EAF9FAFA3976D85D5
:103100007E858F85988929A13AA14BA15CA10E9457
:103110009A2AA7966CAF7DAF8EAF9FAFA797C201DB
:10312000B1012DA13EA14FA158A50E949A2AAB96AC
:103130006CAF7DAF8EAF9FAFAB97C401B30129A930
:103140003AA94BA95CA90E949A2AAF966CAF7DAFB1
:103150008EAF9FAFAF97C401B3012D893E894F89D0
:10316000588D0E949A2AE3966CAF7DAF8EAF9FAFC9
:10317000E3976D857E858F8598892DA13EA14FA10E
:1031800058A50E949A2AE7966CAF7DAF8EAF9FAF8D
:10319000E797C201B1012D893E894F89588D0E9460
:1031A0009A2AEB966CAF7DAF8EAF9FAFEB976D8594
:1031B0007E858F85988929A93AA94BA95CA90E9487
:1031C0009A2AEF966CAF7DAF8EAF9FAFEF97C15449
:1031D000DF4FA881B981CF5BD040D0968D919D9172
:1031E0000D90BC91A02D89879A87AB87BC87C1546D
:1031F000DF4FA881B981CF5BD04090968D919D9192
:103200000D90BC91A02D8D839E83AF83B8876DA157
:103210007EA18FA198A52D813E814F8158850E9466
:103220009A2AC158DF4F688379838A839B83CF575B
:10323000D040C154DF4FE881F981CF5BD040A088F6
:10324000B188C288D388C601B5012DA53EA54FA57A
:1032500058A90E949A2ACD57DF4F688379838A83C1
:103260009B83C358D04069A97AA98BA99CA92D81B9
:103270003E814F8158850E949A2AC957DF4F688343
:1032800079838A839B83C758D040C601B50129A1A1
:103290003AA14BA15CA10E949A2AC557DF4F6883CF
:1032A00079838A839B83CB58D040C401B3012D819D
:1032B0003E814F8158850E949A2AC157DF4F68830B
:1032C00079838A839B83CF58D040C154DF4FA88134
:1032D000B981CF5BD040ED90FD900D911C91C8015C
:1032E000B7012DA53EA54FA558A90E949A2ACD56F3
:1032F000DF4F688379838A839B83C359D040C2019F
:10330000B1012D813E814F8158850E949A2AC9566C
:10331000DF4F688379838A839B83C759D040C80174
:10332000B70129A13AA14BA15CA10E949A2AC556D6
:10333000DF4F688379838A839B83CB59D040C40154
:10334000B301A60195010E949A2A3B014C01C801D4
:10335000B7012DA13EA14FA158A50E949A2AC1569E
:10336000DF4F688379838A839B83CF59D040C20122
:10337000B101A60195010E949A2ACD55DF4F6883BD
:1033800079838A839B83C35AD040C801B70129A996
:103390003AA94BA95CA90E949A2AC955DF4F6883B4
:1033A00079838A839B83C75AD0406D897E898F89B0
:1033B000988D2D813E814F8158850E949A2AC5554E
:1033C000DF4F688379838A839B83CB5AD040C601C1
:1033D000B5012D8D3E8D4F8D58A10E949A2AC15561
:1033E000DF4F688379838A839B83CF5AD0406D8572
:1033F0007E858F8598892D813E814F8158850E94D9
:103400009A2ACD54DF4F688379838A839B83C35B79
:10341000D040C801B7012D8D3E8D4F8D58A10E941F
:103420009A2AC954DF4F688379838A839B83C75B59
:10343000D0406D857E858F859889A60195010E9473
:103440009A2A1B012C01C801B7012D893E894F8999
:10345000588D0E949A2AC554DF4F688379838A83E6
:103460009B83CB5BD0406FA978AD89AD9AAD29A580
:103470003AA54BA55CA50E949A2A7B018C016BADF5
:103480007CAD8DAD9EAD29A53AA54BA55CA50E944E
:103490009A2A9B01AC01C801B7010E94E7287B0171
:1034A0008C0123966CAD7DAD8EAD9FAD2397298D9C
:1034B0003A8D4B8D5C8D0E949A2A9B01AC01C8010C
:1034C000B7010E94E8287B018C0127966CAD7DAD89
:1034D0008EAD9FAD2797298D3A8D4B8D5C8D0E94C7
:1034E0009A2A9B01AC01C801B7010E94E7287B0121
:1034F0008C012B966CAD7DAD8EAD9FAD2B97298940
:103500003A894B895C890E949A2A9B01AC01C801C7
:10351000B7010E94E7287B018C012F966CAD7DAD31
:103520008EAD9FAD2F9729893A894B895C890E947E
:103530009A2A9B01AC01C801B7010E94E8282981A1
:103540003A814B815C810E945029EDA9FEA96083DC
:1035500071838283938363966CAD7DAD8EAD9FAD99
:10356000639729A53AA54BA55CA50E949A2A7B01E1
:103570008C0167966CAD7DAD8EAD9FAD679729A52B
:103580003AA54BA55CA50E949A2A9B01AC01C801F3
:10359000B7010E94E7287B018C016B966CAD7DAD75
:1035A0008EAD9FAD6B97298D3A8D4B8D5C8D0E94B2
:1035B0009A2A9B01AC01C801B7010E94E7287B0150
:1035C0008C016F966CAD7DAD8EAD9FAD6F97298DE3
:1035D0003A8D4B8D5C8D0E949A2A9B01AC01C801EB
:1035E000B7010E94E8287B018C01A3966CAD7DADEC
:1035F0008EAD9FADA39729893A894B895C890E943A
:103600009A2A9B01AC01C801B7010E94E8287B01FE
:103610008C01A7966CAD7DAD8EAD9FADA797298926
:103620003A894B895C890E949A2A9B01AC01C801A6
:10363000B7010E94E72829813A814B815C810E9471
:103640005029ADA9BEA914966D937D938D939C933B
:103650001797AB966CAD7DAD8EAD9FADAB9729A5A1
:103660003AA54BA55CA50E949A2A7B018C01AF96D6
:103670006CAD7DAD8EAD9FADAF9729A53AA54BA59D
:103680005CA50E949A2A9B01AC01C801B7010E9467
:10369000E7287B018C01E3966CAD7DAD8EAD9FADCF
:1036A000E397298D3A8D4B8D5C8D0E949A2A9B0160
:1036B000AC01C801B7010E94E8287B018C01E796A4
:1036C0006CAD7DAD8EAD9FADE797298D3A8D4B8D5D
:1036D0005C8D0E949A2A9B01AC01C801B7010E942F
:1036E000E7287B018C01EB966CAD7DAD8EAD9FAD77
:1036F000EB9729893A894B895C890E949A2A9B0118
:10370000AC01C801B7010E94E7287B018C01EF964C
:103710006CAD7DAD8EAD9FADEF9729893A894B8910
:103720005C890E949A2A9B01AC01C801B7010E94E2
:10373000E82829813A814B815C810E945029EDA9BA
:10374000FEA96087718782879387AF966CAD7DAD48
:103750008EAD9FADAF972D8D3E8D4F8D58A10E94A0
:103760009A2A7B018C01AB966CAD7DAD8EAD9FAD81
:10377000AB972D8D3E8D4F8D58A10E949A2A9B01AB
:10378000AC01C801B7010E94E7287B018C01E396D8
:103790006CAD7DAD8EAD9FADE39729A13AA14BA154
:1037A0005CA10E949A2A9B01AC01C801B7010E944A
:1037B000E7287B018C01E7966CAD7DAD8EAD9FADAA
:1037C000E79729A13AA14BA15CA10E949A2A9B01EB
:1037D000AC01C801B7010E94E8287B018C01EB967F
:1037E0006CAD7DAD8EAD9FADEB972DA53EA54FA5E4
:1037F00058A90E949A2A9B01AC01C801B7010E94F6
:10380000E8287B018C01EF966CAD7DAD8EAD9FAD50
:10381000EF972DA53EA54FA558A90E949A2A9B0176
:10382000AC01C801B7010E94E72829813A814B8188
:103830005C810E945029ADA9BEA91C966D937D9311
:103840008D939C931F976D01E0E1F0E0CE0EDF1E9B
:103850006BAD7CAD8DAD9EAD29853A854B855C8584
:103860000E949A2A7B018C016FA978AD89AD9AAD2F
:1038700029853A854B855C850E949A2A9B01AC017B
:10388000C801B7010E94E7287B018C01C158DF4FB6
:10389000688179818A819B81CF57D040298D3A8D6B
:1038A0004B8D5C8D0E949A2A9B01AC01C801B70127
:1038B0000E94E7287B018C01CD57DF4F6881798119
:1038C0008A819B81C358D040298D3A8D4B8D5C8D68
:1038D0000E949A2A9B01AC01C801B7010E94E82806
:1038E0007B018C01C957DF4F688179818A819B8177
:1038F000C758D04029893A894B895C890E949A2A05
:103900009B01AC01C801B7010E94E8287B018C0132
:10391000C557DF4F688179818A819B81CB58D04020
:1039200029893A894B895C890E949A2A9B01AC01BA
:10393000C801B7010E94E72829813A814B815C8147
:103940000E945029ADA9BEA950966D937D938D9389
:103950009C93539767966CAD7DAD8EAD9FAD679789
:1039600029853A854B855C850E949A2A7B018C01CA
:1039700063966CAD7DAD8EAD9FAD639729853A851D
:103980004B855C850E949A2A9B01AC01C801B70156
:103990000E94E7287B018C01C157DF4F6881798144
:1039A0008A819B81CF58D040298D3A8D4B8D5C8D7B
:1039B0000E949A2A9B01AC01C801B7010E94E82825
:1039C0007B018C01CD56DF4F688179818A819B8193
:1039D000C359D040298D3A8D4B8D5C8D0E949A2A17
:1039E0009B01AC01C801B7010E94E7287B018C0153
:1039F000C956DF4F688179818A819B81C759D04040
:103A000029893A894B895C890E949A2A9B01AC01D9
:103A1000C801B7010E94E7287B018C01C556DF4F22
:103A2000688179818A819B81CB59D04029893A89E3
:103A30004B895C890E949A2A9B01AC01C801B7019D
:103A40000E94E82829813A814B815C810E9450299B
:103A5000F6016483758386839783AF966CAD7DADE5
:103A60008EAD9FADAF9729853A854B855C850E94C9
:103A70009A2A7B018C01AB966CAD7DAD8EAD9FAD6E
:103A8000AB9729853A854B855C850E949A2A9B01D4
:103A9000AC01C801B7010E94E7287B018C01C40179
:103AA000B301298D3A8D4B8D5C8D0E949A2A9B0122
:103AB000AC01C801B7010E94E7287B018C01C15607
:103AC000DF4F688179818A819B81CF59D040298DD0
:103AD0003A8D4B8D5C8D0E949A2A9B01AC01C801E6
:103AE000B7010E94E8287B018C01CD55DF4F68812A
:103AF00079818A819B81C35AD04029893A894B892F
:103B00005C890E949A2A9B01AC01C801B7010E94FE
:103B1000E8287B018C01C955DF4F688179818A8152
:103B20009B81C75AD04029893A894B895C890E9478
:103B30009A2A9B01AC01C801B7010E94E72829819C
:103B40003A814B815C810E945029D60118966D9371
:103B50007D938D939C931B97AB966CAD7DAD8EAD95
:103B60009FADAB972D813E814F8158850E949A2A47
:103B70007B018C01AF966CAD7DAD8EAD9FADAF97E7
:103B80002D813E814F8158850E949A2A9B01AC016C
:103B9000C801B7010E94E7287B018C01C401B30171
:103BA00029A13AA14BA15CA10E949A2A9B01AC01D8
:103BB000C801B7010E94E8287B018C01C156DF4F84
:103BC000688179818A819B81CF59D04029A13AA10E
:103BD0004BA15CA10E949A2A9B01AC01C801B701CC
:103BE0000E94E7287B018C01CD55DF4F68817981E8
:103BF0008A819B81C35AD0402DA53EA54FA558A9C7
:103C00000E949A2A9B01AC01C801B7010E94E728D3
:103C10007B018C01C955DF4F688179818A819B8145
:103C2000C75AD0402DA53EA54FA558A90E949A2A53
:103C30009B01AC01C801B7010E94E82829813A81A3
:103C40004B815C810E945029F601648775878687C5
:103C50009787CDA8DEA880E290E0C80ED91E2796EF
:103C60006CAD7DAD8EAD9FAD279729853A854B858F
:103C70005C850E949A2A7B018C0123966CAD7DADF8
:103C80008EAD9FAD239729853A854B855C850E9433
:103C90009A2A9B01AC01C801B7010E94E7287B0169
:103CA0008C01C158DF4F688179818A819B81CF5710
:103CB000D04029A53AA54BA55CA50E949A2A9B0154
:103CC000AC01C801B7010E94E8287B018C01CD57E7
:103CD000DF4F688179818A819B81C358D04029A5B3
:103CE0003AA54BA55CA50E949A2A9B01AC01C8018C
:103CF000B7010E94E7287B018C01C555DF4F688121
:103D000079818A819B81CB5AD04029893A894B8914
:103D10005C890E949A2A9B01AC01C801B7010E94EC
:103D2000E7287B018C01C155DF4F688179818A8149
:103D30009B81CF5AD04029893A894B895C890E945E
:103D40009A2A9B01AC01C801B7010E94E828298189
:103D50003A814B815C810E945029ADA9BEA9909601
:103D60006D937D938D939C9393976B966CAD7DAD86
:103D70008EAD9FAD6B9729853A854B855C850E94FA
:103D80009A2A7B018C016F966CAD7DAD8EAD9FAD97
:103D90006F9729853A854B855C850E949A2A9B01FD
:103DA000AC01C801B7010E94E7287B018C01C15713
:103DB000DF4F688179818A819B81CF58D04029A5C6
:103DC0003AA54BA55CA50E949A2A9B01AC01C801AB
:103DD000B7010E94E7287B018C01CD56DF4F688137
:103DE00079818A819B81C359D04029A53AA54BA5E9
:103DF0005CA50E949A2A9B01AC01C801B7010E94F0
:103E0000E8287B018C01CD54DF4F688179818A815C
:103E10009B81C35BD04029893A894B895C890E9488
:103E20009A2A9B01AC01C801B7010E94E8287B01D6
:103E30008C01C954DF4F688179818A819B81C75B7E
:103E4000D04029893A894B895C890E949A2A9B0132
:103E5000AC01C801B7010E94E72829813A814B8152
:103E60005C810E945029F601648375838683978361
:103E7000E7966CAD7DAD8EAD9FADE79729853A8510
:103E80004B855C850E949A2A7B018C01E3966CAD80
:103E90007DAD8EAD9FADE39729853A854B855C85D9
:103EA0000E949A2A9B01AC01C801B7010E94E72831
:103EB0007B018C01C401B30129A53AA54BA55CA5E2
:103EC0000E949A2A9B01AC01C801B7010E94E82810
:103ED0007B018C01C156DF4F688179818A819B818A
:103EE000CF59D04029A53AA54BA55CA50E949A2A96
:103EF0009B01AC01C801B7010E94E7287B018C013E
:103F0000C201B10129893A894B895C890E949A2AA8
:103F10009B01AC01C801B7010E94E7287B018C011D
:103F2000C554DF4F688179818A819B81CB5BD0400A
:103F300029893A894B895C890E949A2A9B01AC01A4
:103F4000C801B7010E94E82829813A814B815C8130
:103F50000E945029D60118966D937D938D939C9362
:103F60001B97E3966CAD7DAD8EAD9FADE3972D8134
:103F70003E814F8158850E949A2A7B018C01E796E9
:103F80006CAD7DAD8EAD9FADE7972D813E814F81AC
:103F900058850E949A2A9B01AC01C801B7010E9472
:103FA000E7287B018C01C401B3012D8D3E8D4F8D1F
:103FB00058A10E949A2A9B01AC01C801B7010E9436
:103FC000E7287B018C01C156DF4F688179818A81A6
:103FD0009B81CF59D0402D8D3E8D4F8D58A10E9491
:103FE0009A2A9B01AC01C801B7010E94E8287B0115
:103FF0008C01C201B1012DA53EA54FA558A90E9473
:104000009A2A9B01AC01C801B7010E94E8287B01F4
:104010008C01C554DF4F688179818A819B81CB5B9C
:10402000D0402DA53EA54FA558A90E949A2A9B01D4
:10403000AC01C801B7010E94E72829813A814B8170
:104040005C810E945029F60164877587868797876F
:10405000CDA8DEA880E390E0C80ED91E2B966CADEB
:104060007DAD8EAD9FAD2B9729853A854B855C85BF
:104070000E949A2A7B018C012F966CAD7DAD8EAD8E
:104080009FAD2F9729853A854B855C850E949A2A9A
:104090009B01AC01C801B7010E94E7287B018C019C
:1040A000C957DF4F688179818A819B81C758D04089
:1040B00029A53AA54BA55CA50E949A2A9B01AC01B3
:1040C000C801B7010E94E7287B018C01C557DF4F6B
:1040D000688179818A819B81CB58D04029A53AA5F6
:1040E0004BA55CA50E949A2A9B01AC01C801B701AF
:1040F0000E94E8287B018C01C555DF4F68817981DA
:104100008A819B81CB5AD040298D3A8D4B8D5C8D15
:104110000E949A2A9B01AC01C801B7010E94E828BD
:104120007B018C01C155DF4F688179818A819B8138
:10413000CF5AD040298D3A8D4B8D5C8D0E949A2AA2
:104140009B01AC01C801B7010E94E72829813A818F
:104150004B815C810E945029ADA9BEA9D0966D9378
:104160007D938D939C93D397A7966CAD7DAD8EADCB
:104170009FADA79729853A854B855C850E949A2A31
:104180007B018C01A3966CAD7DAD8EAD9FADA397E9
:1041900029853A854B855C850E949A2A9B01AC0152
:1041A000C801B7010E94E7287B018C01C956DF4F87
:1041B000688179818A819B81C759D04029A53AA518
:1041C0004BA55CA50E949A2A9B01AC01C801B701CE
:1041D0000E94E8287B018C01C556DF4F68817981F8
:1041E0008A819B81CB59D04029A53AA54BA55CA5D6
:1041F0000E949A2A9B01AC01C801B7010E94E728DE
:104200007B018C01CD54DF4F688179818A819B814C
:10421000C35BD040298D3A8D4B8D5C8D0E949A2ACC
:104220009B01AC01C801B7010E94E7287B018C010A
:10423000C954DF4F688179818A819B81C75BD040F7
:10424000298D3A8D4B8D5C8D0E949A2A9B01AC0181
:10425000C801B7010E94E82829813A814B815C811D
:104260000E945029F6016483758386839783EB96B9
:104270006CAD7DAD8EAD9FADEB9729853A854B85B5
:104280005C850E949A2A7B018C01EF966CAD7DAD16
:104290008EAD9FADEF9729853A854B855C850E9451
:1042A0009A2A9B01AC01C801B7010E94E7287B0153
:1042B0008C01CD55DF4F688179818A819B81C35AFA
:1042C000D04029A53AA54BA55CA50E949A2A9B013E
:1042D000AC01C801B7010E94E7287B018C01C955D8
:1042E000DF4F688179818A819B81C75AD04029A597
:1042F0003AA54BA55CA50E949A2A9B01AC01C80176
:10430000B7010E94E8287B018C01C201B101298D0F
:104310003A8D4B8D5C8D0E949A2A9B01AC01C8019D
:10432000B7010E94E8287B018C01C554DF4F6881EA
:1043300079818A819B81CB5BD040298D3A8D4B8DD1
:104340005C8D0E949A2A9B01AC01C801B7010E94B2
:10435000E72829813A814B815C810E945029D6014E
:1043600018966D937D938D939C931B97EF966CADF0
:104370007DAD8EAD9FADEF972D813E814F815885EC
:104380000E949A2A7B018C01EB966CAD7DAD8EADBF
:104390009FADEB972D813E814F8158850E949A2ACF
:1043A0009B01AC01C801B7010E94E7287B018C0189
:1043B000CD55DF4F688179818A819B81C35AD04076
:1043C0002D8D3E8D4F8D58A10E949A2A9B01AC01E4
:1043D000C801B7010E94E8287B018C01C955DF4F55
:1043E000688179818A819B81C75AD0402D8D3E8D0D
:1043F0004F8D58A10E949A2A9B01AC01C801B701B8
:104400000E94E7287B018C01C201B10129A13AA1D8
:104410004BA15CA10E949A2A9B01AC01C801B70183
:104420000E94E7287B018C01C554DF4F68817981A8
:104430008A819B81CB5BD04029A13AA14BA15CA191
:104440000E949A2A9B01AC01C801B7010E94E8288A
:1044500029813A814B815C810E945029F601648751
:1044600075878687978721E030E0C901C054DF4F08
:10447000CDBFDEBFCF91DF911F910F91FF90EF90E5
:10448000DF90CF90BF90AF909F908F907F906F9074
:104490005F904F903F902F9008952F923F924F92B0
:1044A0005F926F927F928F929F92AF92BF92CF92C4
:1044B000DF92EF92FF920F931F93DF93CF93CDB7CD
:1044C000DEB7A697CDBFDEBF8DA39EA32A01FE0156
:1044D000319684E2DF011D928A95E9F73B01882439
:1044E0009924BCE02B2E312C240E351E63C0F30121
:1044F0006081718182819381D5012D913D914D9192
:104500005C910E949A2AF601208131814281538177
:104510000E94E8287B018C01D30114966D917D9156
:104520008D919C911797F501248535854685578592
:104530000E949A2A9B01AC01C801B7010E94E82899
:104540007B018C01D30118966D917D918D919C9189
:104550001B97F501208D318D428D538D0E949A2A33
:104560009B01AC01C801B7010E94E828D6016D93F8
:104570007D938D939D936D01E4E0F0E0AE0EBF1E40
:10458000A214B30409F0B3CF0894811C911C8CE0F1
:1045900090E0680E791E93E08916910459F4AE01FB
:1045A0004F5F5F4F8DA19EA19C01F9019E012B5D84
:1045B0003F4F11C06401CC0CDD1CC80CD91CCC0CC5
:1045C000DD1CCC0CDD1CA1E0B0E0AC0FBD1FCA0EA1
:1045D000DB1E52018CCFDA01AD90BD90CD90DC9006
:1045E0001397A082B182C282D3821496AD90BD90FF
:1045F000CD90DC901797A482B582C682D782189698
:10460000AD90BD90CD90DC901B97A086B186C28600
:10461000D386445F5F4F3C9642175307E1F6A69658
:10462000CDBFDEBFCF91DF911F910F91FF90EF9033
:10463000DF90CF90BF90AF909F908F907F906F90C2
:104640005F904F903F902F9008952F923F924F92FE
:104650005F926F927F928F929F92AF92BF92CF9212
:10466000DF92EF92FF920F931F93DF93CF93CDB71B
:10467000DEB7C459D140CDBFDEBFCD56DE4F8883F3
:10468000C359D140CC56DE4F9883C459D140CF5640
:10469000DE4F48835983C159D140FE01319680E9EC
:1046A00091E0DF019C011D9221503040E1F71B0198
:1046B0004424552464C0F101EA0DFB1D6081718121
:1046C00082819381D6012D913D914D915C910E9403
:1046D0009A2A9B01AC01C801B7010E94E8287B011E
:1046E0008C01E4E0F0E0AE0EBF1E28E230E0C20E26
:1046F000D31E38E2A316B104F1F6D4016D937D9375
:104700008D939D934D010894611C711CBAE06B164A
:104710007104A9F0F401E080F1800281138163014A
:10472000CC0CDD1CCC0CDD1CCF56DE4F2881398132
:10473000C159D140C20ED31EAA24BB24BCCF0894B9
:10474000411C511C88E290E0280E391E9AE049165F
:104750005104A9F4CD56DE4F8881C359D140CC56BF
:10476000DE4F9881C459D1409C0100E010E088E2FE
:10477000C82ED12C7E010894E11CF11C2CC0A8E2AB
:10478000B0E04A9E40014B9E900C5A9E900C112422
:10479000E1E0F0E0EC0FFD1F8E0E9F1E66247724F3
:1047A000B9CF5901A40EB51EFB0181919191A19140
:1047B000B191BF01F50180839183A283B3834C5FE4
:1047C0005F4F4832510569F70F5F1F4F285D3F4F1C
:1047D0000A30110561F00C9DB0010D9D700D1C9DFE
:1047E000700D11246E0D7F1D40E050E0DACFCC56E5
:1047F000DE4FCDBFDEBFCF91DF911F910F91FF90B4
:10480000EF90DF90CF90BF90AF909F908F907F9070
:104810006F905F904F903F902F9008954F925F92CE
:104820006F927F928F929F92AF92BF92CF92DF92C0
:10483000EF92FF920F931F93DF93CF93CDB7DEB725
:104840002C97CDBFDEBF3C014A01DE011196E6E4A4
:10485000F0E28CE001900D928150E1F75E01089446
:10486000A11CB11C6B012DE0422E512C4C0E5D1E83
:10487000F6016081718182819381F401208131810F
:10488000428153810E949A2AF5012081318142811F
:1048900053810E94E8287B018C01F60164817581B7
:1048A00086819781F40124813581468157810E9458
:1048B0009A2A9B01AC01C801B7010E94E8287B013C
:1048C0008C01F6016085718582859385F4012085D0
:1048D0003185428553850E949A2A9B01AC01C8010B
:1048E000B7010E94E828F501619371938193919338
:1048F0005F018CE090E0C80ED91EE415F50509F0C3
:10490000B7CF89819A81AB81BC81F3018083918388
:10491000A283B3838D819E81AF81B8858483958383
:10492000A683B78389859A85AB85BC858087918767
:10493000A287B3872C96CDBFDEBFCF91DF911F91A9
:104940000F91FF90EF90DF90CF90BF90AF909F902E
:104950008F907F906F905F904F9008952F923F922D
:104960004F925F926F927F928F929F92AF92BF927F
:10497000CF92DF92EF92FF920F931F93DF93CF932B
:10498000CDB7DEB7A897CDBFDEBF1C013A01FE014F
:10499000319688E2DF011D928A95E9F74F015B01AC
:1049A00039E2432E512C4C0E5D1E2DC0F501EC0D4D
:1049B000FD1DD301AC0DBD1D60817181828193818C
:1049C0002D913D914D915C910E949A2A9B01AC01E1
:1049D000C801B7010E94E8287B018C01E4E0F0E007
:1049E000CE0EDF1EF8E2CF16D10401F7D4016D938D
:1049F0007D938D939D934D01E8E2F0E0AE0EBF1ED6
:104A0000A415B50541F0D401ED90FD900D911C91D8
:104A1000CC24DD24CBCF40E050E0BE016F5F7F4F60
:104A20009101240F351FFB01E40FF51F8081918157
:104A3000A281B381F90180839183A283B3834C5F08
:104A40005F4F4832510561F7A896CDBFDEBFCF91C9
:104A5000DF911F910F91FF90EF90DF90CF90BF906B
:104A6000AF909F908F907F906F905F904F903F900E
:104A70002F9008958F929F92AF92BF92CF92DF9224
:104A8000EF92FF920F931F93CF93DF936801790109
:104A90005B018A01EC0188249924C701B601F80161
:104AA00020813181428153810E949A2A9B01AC016D
:104AB000F50160817181828193810E94E828688379
:104AC00079838A839B83C701B601F80124813581EC
:104AD000468157810E949A2A9B01AC01F5016481AD
:104AE0007581868197810E94E8286C837D838E83FF
:104AF0009F83C701B601F801208531854285538522
:104B00000E949A2A9B01AC01F5016085718582851E
:104B100093850E94E828688779878A879B8708940D
:104B2000811C911C8CE090E0A80EB91E045F1F4F01
:104B30002C9693E08916910409F0AFCFDF91CF91C5
:104B40001F910F91FF90EF90DF90CF90BF90AF90AB
:104B50009F908F9008952F923F924F925F926F9205
:104B60007F928F929F92AF92BF92CF92DF92EF92FD
:104B7000FF920F931F93DF93CF9300D000D0CDB758
:104B8000DEB789839A834B835C83380149015B01DB
:104B9000CC24DD2434C0ED80FE80E20CF31C0D81BA
:104BA0001E810A0D1B1DED81FE81E40DF51DC40162
:104BB000B30120813181428153810E949A2A9B0155
:104BC000AC01F80160817181828193810E94E828A3
:104BD000F70160837183828393838D819E81049624
:104BE0008D839E838897B9F6E8E2F0E0AE0EBF1E93
:104BF000CE0EDF1EF0E9CF16F1E0DF0659F0298076
:104C00003A802C0C3D1C4B805C804C0C5D1C1D8242
:104C10001E82C1CF2696CDBFDEBFCF91DF911F91FF
:104C20000F91FF90EF90DF90CF90BF90AF909F904B
:104C30008F907F906F905F904F903F902F9008954E
:104C40004F925F926F927F928F929F92AF92BF929C
:104C5000CF92DF92EF92FF920F931F93CF93DF9348
:104C60002C013B014A0158016901C0E0D0E072010A
:104C7000EC0EFD1E83010C0F1D1FF401EC0FFD1F38
:104C8000C601B50120813181428153810E949A2A57
:104C90009B01AC01F80160817181828193810E9446
:104CA000E828F70160837183828393832496CC3054
:104CB000D105E9F6DF91CF911F910F91FF90EF9011
:104CC000DF90CF90BF90AF909F908F907F906F902C
:104CD0005F904F9008954F925F926F927F928F9264
:104CE0009F92AF92BF92CF92DF92EF92FF920F937B
:104CF0001F93CF93DF932C013B014A0158016901B7
:104D0000C0E0D0E07201EC0EFD1E83010C0F1D1FF0
:104D1000F401EC0FFD1FC601B501208131814281F4
:104D200053810E949A2A9B01AC01F8016081718134
:104D3000828193810E94E828F701608371838283D6
:104D400093832496C832D105E9F6DF91CF911F9164
:104D50000F91FF90EF90DF90CF90BF90AF909F901A
:104D60008F907F906F905F904F9008952F923F9219
:104D70004F925F926F927F928F929F92AF92BF926B
:104D8000CF92DF92EF92FF920F931F93DF93CF9317
:104D9000CDB7DEB7AC97CDBFDEBF1C016B01DB0129
:104DA000589618962D913D914D915C911B972D8FA2
:104DB0003E8F4F8F58A3645F7F4FFB012481358165
:104DC00046815781298F3A8F4B8F5C8F14962D9196
:104DD0003D914D915C9117972D8B3E8B4F8B588F4A
:104DE000DB0118968D919D910D90BC91A02D898B22
:104DF0009A8BAB8BBC8B6D8D7E8D8F8D98A1298D01
:104E00003A8D4B8D5C8D0E949A2A7B018C016D89B5
:104E10007E898F89988D29893A894B895C890E947E
:104E20009A2A9B01AC01C801B7010E94E72869A337
:104E30007AA38BA39CA3D60114962D913D914D91FD
:104E40005C9117972D873E874F87588B18962D9129
:104E50003D914D915C911B9729873A874B875C87E1
:104E60006D8D7E8D8F8D98A12D853E854F855889BE
:104E70000E949A2A7B018C016D897E898F89988D89
:104E800029853A854B855C850E949A2A9B01AC0155
:104E9000C801B7010E94E7286DA37EA38FA398A73E
:104EA00069897A898B899C892D853E854F855889AA
:104EB0000E949A2A7B018C01698D7A8D8B8D9C8D45
:104EC00029853A854B855C850E949A2A9B01AC0115
:104ED000C801B7010E94E72869A77AA78BA79CA7FA
:104EE000D6011C962D913D914D915C911F972D837C
:104EF0003E834F83588758964D905D906D907C907F
:104F00005B972D913D914D915C9129833A834B8321
:104F10005C83CA01B90129A13AA14BA15CA10E94FD
:104F20009A2A7B018C016D817E818F8198852DA1CC
:104F30003EA14FA158A50E949A2A9B01AC01C8012D
:104F4000B7010E94E7287B018C01C301B20129A5AA
:104F50003AA54BA55CA50E949A2A9B01AC01C80109
:104F6000B7010E94E8284B015C0120E030E040E0FE
:104F700050E00E944C29882309F413C169A17AA149
:104F80008BA19CA1A50194010E945029F10160838D
:104F90007183828393836DA17EA18FA198A5905880
:104FA000A50194010E945029D10114966D937D931F
:104FB0008D939C93179769A57AA58BA59CA5A501B0
:104FC00094010E945029F10160877187828793873D
:104FD0005CE0C52ED12CC20CD31C6D8D7E8D8F8DC7
:104FE00098A12D813E814F8158850E949A2A7B018C
:104FF0008C01C301B20129893A894B895C890E94DD
:105000009A2A9B01AC01C801B7010E94E728905879
:10501000A50194010E945029D1011C966D937D93A6
:105020008D939C931F976D8D7E8D8F8D98A1298177
:105030003A814B815C810E949A2A7B018C01C301D9
:10504000B20129853A854B855C850E949A2A9B018D
:10505000AC01C801B7010E94E728A50194010E9494
:105060005029F601648375838683978369897A89D9
:105070008B899C8929813A814B815C810E949A2A83
:105080007B018C016D817E818F81988529853A8590
:105090004B855C850E949A2A9B01AC01C801B7012F
:1050A0000E94E7289058A50194010E945029D6013A
:1050B00018966D937D938D939C931B9748E1C42E16
:1050C000D12CC20CD31C6D897E898F89988D2D813E
:1050D0003E814F8158850E949A2A7B018C01C30131
:1050E000B201298D3A8D4B8D5C8D0E949A2A9B01CD
:1050F000AC01C801B7010E94E728A50194010E94F4
:105100005029F101608F718F828F938F6D897E8915
:105110008F89988D29813A814B815C810E949A2ADE
:105120007B018C01C301B2012D853E854F855889D5
:105130000E949A2A9B01AC01C801B7010E94E7288E
:105140009058A50194010E945029D60114966D93A0
:105150007D938D939C931797698D7A8D8B8D9C8D04
:1051600029813A814B815C810E949A2A7B018C01C2
:105170006D817E818F8198852D853E854F855889EB
:105180000E949A2A9B01AC01C801B7010E94E7283E
:10519000A50194010E945029F601608771878287DA
:1051A0009387AC96CDBFDEBFCF91DF911F910F915A
:1051B000FF90EF90DF90CF90BF90AF909F908F9037
:1051C0007F906F905F904F903F902F900895505830
:1051D000BB27AA270ED070C161D130F066D120F074
:1051E00031F49F3F11F41EF456C10EF4E095E7FB35
:1051F0004CC1E92F72D180F3BA1762077307840795
:10520000950718F071F49EF58AC10EF4E0950B2E07
:10521000BA2FA02D0B01B90190010C01CA01A00108
:105220001124FF27591B99F0593F50F4503E68F163
:105230001A16F040A22F232F342F4427585FF3CFA4
:10524000469537952795A795F0405395C9F77EF475
:105250001F16BA0B620B730B840BBAF09150A1F0BE
:10526000FF0FBB1F661F771F881FC2F70EC0BA0F44
:10527000621F731F841F48F4879577956795B795CC
:10528000F7959E3F08F0B3CF9395880F08F09927C4
:10529000EE0F979587950895D4D008F481E008958E
:1052A0000CD00AC102D140F0F9D030F021F45F3FB8
:1052B00019F0EBC0511134C1EEC00FD198F399230E
:1052C000C9F35523B1F3951B550BBB27AA276217CA
:1052D0007307840738F09F5F5F4F220F331F441F0F
:1052E000AA1FA9F333D00E2E3AF0E0E830D0915047
:1052F0005040E695001CCAF729D0FE2F27D0660F34
:10530000771F881FBB1F261737074807AB07B0E872
:1053100009F0BB0B802DBF01FF2793585F4F2AF088
:105320009E3F510568F0B1C0FBC05F3FECF3983E73
:10533000DCF3869577956795B795F7959F5FC9F7E5
:10534000880F911D9695879597F90895E1E0660F6E
:10535000771F881FBB1F621773078407BA0720F0E7
:10536000621B730B840BBA0BEE1F88F7E095089550
:10537000BCD088F09F5790F0B92F9927B751A0F073
:10538000D1F0660F771F881F991F1AF0BA95C9F7D9
:1053900012C0B13081F0C3D0B1E00895C0C0672F12
:1053A000782F8827B85F39F0B93FCCF38695779589
:1053B0006795B395D9F73EF4909580957095619572
:1053C0007F4F8F4F9F4F0895E89409C097FB3EF49D
:1053D00090958095709561957F4F8F4F9F4F992342
:1053E000A9F0F92F96E9BB279395F69587957795C0
:1053F0006795B795F111F8CFFAF4BB0F11F460FF80
:105400001BC06F5F7F4F8F4F9F4F16C0882311F0D7
:1054100096E911C0772321F09EE8872F762F05C0EB
:10542000662371F096E8862F70E060E02AF09A9586
:10543000660F771F881FDAF7880F9695879597F97B
:105440000895990F0008550FAA0BE0E8FEEF161615
:105450001706E807F907C0F012161306E407F50768
:1054600098F0621B730B840B950B39F40A2661F0DC
:10547000232B242B252B21F408950A2609F4A1407F
:10548000A6958FEF811D811D089597F99F6780E88C
:1054900070E060E008959FEF80EC089500240A9486
:1054A0001616170618060906089500240A941216FF
:1054B0001306140605060895092E0394000C11F432
:1054C000882352F0BB0F40F4BF2B11F460FF04C0DF
:1054D0006F5F7F4F8F4F9F4F089557FD9058440F38
:1054E000551F59F05F3F71F04795880F97FB991F43
:1054F00061F09F3F79F08795089512161306140600
:10550000551FF2CF4695F1DF08C01616170618068C
:10551000991FF1CF86957105610508940895E89467
:10552000BB2766277727CB0197F908958ADF08F410
:105530008FEF08950BD0C0CFB1DF28F0B6DF18F0A1
:10554000952309F0A2CFA7CF1124EACFC6DFA0F39D
:10555000959FD1F3950F50E0551F629FF001729F08
:10556000BB27F00DB11D639FAA27F00DB11DAA1F27
:10557000649F6627B00DA11D661F829F2227B00D74
:10558000A11D621F739FB00DA11D621F839FA00DFF
:10559000611D221F749F3327A00D611D231F849F4F
:1055A000600D211D822F762F6A2F11249F575040A6
:1055B0008AF0E1F088234AF0EE0FFF1FBB1F661F41
:1055C000771F881F91505040A9F79E3F510570F0FA
:1055D0005CCFA6CF5F3FECF3983EDCF386957795E2
:1055E0006795B795F795E7959F5FC1F7FE2B880FF5
:1055F000911D9695879597F90895AA1BBB1B51E1BC
:1056000007C0AA1FBB1FA617B70710F0A61BB70B32
:10561000881F991F5A95A9F780959095BC01CD01D7
:10562000089597FB092E07260AD077FD04D0E5DF01
:1056300006D000201AF4709561957F4F0895F6F713
:10564000909581959F4F0895FC018191861721F0D7
:105650008823D9F7992708953197CF010895FB0141
:10566000DC0101900D920020E1F708950F931F9344
:10567000DF93CF93CDB7DEB72E97CDBFDEBF0E89B8
:105680001F8986E08C8309831A838FEF9FE78D83C0
:105690009E839E01265E3F4FCE010196688D798DD7
:1056A000A9010E94612B2F813885020F131FF80179
:1056B00010822E96CDBFDEBFCF91DF911F910F914B
:1056C00008952F923F924F925F926F927F928F92A6
:1056D0009F92AF92BF92CF92DF92EF92FF920F9381
:1056E0001F93DF93CF93CDB7DEB72B97CDBFDEBF30
:1056F0003C012B015A01FC0116821782838181FD36
:1057000003C06FEF7FEFC6C19AE0892E1E01089497
:10571000211C311CF3012381F20123FD859123FF1C
:1057200081912F01882309F4B2C1853239F423FD18
:10573000859123FF81912F01853229F490E0B301F7
:105740000E94772DE7CF982FFF24EE249924FFE1C4
:10575000FF15D0F09B3269F09C3228F4903259F05A
:10576000933291F40EC09D3249F0903369F441E0D8
:1057700024C052E0F52A84E0F82A28C098E0F92AEB
:1057800025C0E0E1FE2A22C0F7FC29C0892F805302
:105790008A3070F4F6FE05C0989C902C1124980E67
:1057A00015C0E89CE02C1124E80EF0E2FF2A0EC0A0
:1057B0009E3229F4F6FC6BC140E4F42A07C09C3603
:1057C00019F450E8F52A02C0983649F4F20123FD95
:1057D000959123FF91912F01992309F0B8CF892F3B
:1057E0008554833018F08052833038F444E050E020
:1057F000A40EB51E5FE359830FC0933631F0933783
:1058000079F0933509F056C020C0F5018081898375
:1058100042E050E0A40EB51E610101E010E012C0AC
:10582000F501C080D180F6FC03C06FEF7FEF02C0AE
:10583000692D70E042E050E0A40EB51EC6010E9442
:105840006C2D8C015FE7F52214C0F501C080D1807A
:10585000F6FC03C06FEF7FEF02C0692D70E042E0FD
:1058600050E0A40EB51EC6010E94612D8C0150E8C7
:10587000F52AF3FE07C01AC080E290E0B3010E944F
:10588000772DEA948E2D90E008171907A8F30EC023
:10589000F601F7FC8591F7FE81916F0190E0B3016D
:1058A0000E94772DE110EA94015010400115110576
:1058B00079F7EAC0943611F0993669F5F7FE08C019
:1058C000F501208131814281538184E090E00AC05A
:1058D000F501808191819C01442737FD4095542F2B
:1058E00082E090E0A80EB91E9FE6F92257FF09C09A
:1058F00050954095309521953F4F4F4F5F4FE0E8D1
:10590000FE2ACA01B901A1012AE030E00E94A32DBC
:10591000D82ED21840C0953729F41F2D1F7E2AE0BB
:1059200030E01DC01F2D197F9F3661F0903720F4A5
:10593000983509F0ACC00FC0903739F0983709F0AE
:10594000A6C004C028E030E00AC0106114FD146055
:1059500020E130E004C014FD166020E132E017FFC2
:1059600008C0F501608171818281938144E050E03B
:1059700008C0F50180819181BC0180E090E042E0A7
:1059800050E0A40EB51EA1010E94A32DD82ED2185E
:105990008FE7F82EF122F6FE0BC05EEFF522D91448
:1059A00038F4F4FE07C0F2FC05C08FEEF82202C006
:1059B0001D2D01C0192DF4FE0DC0FE01ED0DF11DD0
:1059C0008081803319F499EEF92208C01F5FF2FE3E
:1059D00005C003C08F2D867809F01F5F0F2DF3FCE3
:1059E00014C0F0FE0FC01E1510F09D2C0BC09D2C96
:1059F0009E0C911A1E2D06C080E290E0B3010E9419
:105A0000772D1F5F1E15C0F304C01E1510F4E11A98
:105A100001C0EE2404FF0FC080E390E0B3010E94B8
:105A2000772D02FF1DC001FD03C088E790E00EC086
:105A300088E590E00BC0802F867891F001FF02C0CE
:105A40008BE201C080E2F7FC8DE290E0B3010E949E
:105A5000772D06C080E390E0B3010E94772D9A94E1
:105A6000D914C0F3DA94F101ED0DF11D808190E0BD
:105A7000B3010E94772DDD20A9F706C080E290E0F7
:105A8000B3010E94772DEA94EE20C1F743CEF301D3
:105A900066817781CB012B96CDBFDEBFCF91DF91A1
:105AA0001F910F91FF90EF90DF90CF90BF90AF903C
:105AB0009F908F907F906F905F904F903F902F902E
:105AC0000895FC010590615070400110D8F7809551
:105AD00090958E0F9F1F0895FC01615070400190BA
