:100000000C94E4000C94F0000C94F0000C94F000BC
:100010000C94F0000C94F0000C94F0000C94F000A0
:100020000C94F0000C94F0000C94F0000C94F00090
:100030000C94F0000C94F0000C94F0000C94F00080
:100040000C94F0000C94F0000C94F0000C94F00070
:100050000C94F0000C94F0000C94F0000C94F00060
:100060000C94F0000C94F0000C94F0000C94F00050
:100070000C94F0000C94F0000C94F0000C94F00040
:100080000C94F0000C94F0000C94F0000C94F00030
:100090000C94F0000C94F0000C94F0000C94F00020
:1000A0000C94F0000C94F0000C94F0000C94F00010
:1000B0000C94F0000C94F0000C94F0000C94F00000
:1000C0000C94F0000C94F0000C94F0000C94F000F0
:1000D0000C94F0000C94F0000C94F0000C94F000E0
:1000E0000C94F0000C94F0000C94F0000C94F000D0
:1000F0000C94F0000C94F0000C94F0000C94F000C0
:100100000C94F0000C94F0000C94F0000C94F000AF
:100110000C94F0000C94F0000C94F0000C94F0009F
:100120000C94F0000C94F0000C94F0000C94F0008F
:100130000C94F0000C94F0000C94F0000C94F0007F
:100140000C94F0000C94F0000C94F0000C94F0006F
:100150000C94F0000C94F0000C94F0000C94F0005F
:100160000C94F0000C94F0000C94F0000C94F0004F
:100170000C94F0000C94F0000C94F0000C94F0003F
:100180000C94F0000C94F0000C94F0000C94F0002F
:100190000C94F0000C94F0000C94F0000C94F0001F
:1001A0000C94F0000C94F0000C94F0000C94F0000F
:1001B0000C94F0000C94F0000C94F0000C94F000FF
:1001C0000C94F0000C94F00011241FBECFEFDFE37D
:1001D000DEBFCDBF00E00CBF0E94F2000C94F9001E
:1001E0000C94000081E08093A0068FE08093A50628
:0601F000FDCFF894FFCFE3
:00000001FF
