:100000000C9411010C9432010C9432010C943201C5
:100010000C9432010C9432010C9432010C94320194
:100020000C9432010C9432010C9432010C94320184
:100030000C9432010C9432010C9432010C94320174
:100040000C9432010C9432010C9432010C94320164
:100050000C9445010C9432010C9432010C94320141
:100060000C9432010C941C300C9432010C9432012B
:100070000C9432010C9432010C9432010C94320134
:100080000C9432010C9432010C9432010C94320124
:100090000C9432010C9432010C9432010C94320114
:1000A0000C9432010C9432010C9432010C94320104
:1000B0000C9432010C9432010C9432010C943201F4
:1000C0000C9432010C9432010C9432010C943201E4
:1000D0000C9432010C9432010C9432010C943201D4
:1000E0000C9432010C9432010C94C82F0C94320100
:1000F0000C9432010C9432010C9432010C943201B4
:100100000C9432010C9432010C9432010C943201A3
:100110000C9432010C9432010C9432010C94320193
:100120000C9432010C9432010C9432010C94320183
:100130000C9432010C9432010C9432010C94320173
:100140000C9432010C9432010C9432010C94320163
:100150000C9432010C9432010C9432010C94320153
:100160000C94F22F0C9432010C9432010C94320155
:100170000C9432010C9432010C9432010C94320133
:100180000C9432010C9432010C9432010C94320123
:100190000C9432010C9432010C9432010C94320113
:1001A0000C9432010C9432010C9432010C94320103
:1001B0000C9432010C9432010C9432010C943201F3
:1001C0000C9432010C94320105A84CCDB2D44EB936
:1001D0003836A9020C50B9918688083CA6AAAA2AEA
:1001E000BE000000803F494E46494E4954594E4199
:1001F0004ECDCCCC3D0AD7233C17B7D13877CC2B8A
:10020000329595E6241FB14F0A000020410000C836
:100210004200401C4620BCBE4CCA1B0E5AAEC59DB7
:10022000740011241FBECFEFDFE3DEBFCDBF00E0BF
:100230000CBF10E2A0E0B0E2E0EAF7EA00E00BBF9A
:1002400002C007900D92AC3FB107D9F71EE2ACEFA8
:10025000B0E201C01D92A13FB107E1F70E94591120
:100260000C94CE530C9400008BECE0E5F0E082831C
:1002700088E0809350008091510083FFFCCF88ED8F
:1002800084BF83E08093400008951F920F920FB6C1
:100290000F9211248F939F9381E090E080939B2194
:1002A00090939C219F918F910F900FBE0F901F9064
:1002B0001895E0E0F8E086E08083118212821382D4
:1002C00014828FEF87A386A3E0E4F8E083E08083C5
:1002D000118212821382148282E08683178281E067
:1002E00084878CE987A380E486A30895E0EAF0E0A0
:1002F000118287E082830895E0E0F6E094E0948341
:1003000084E48083E0E2F6E08481846084838081F9
:1003100084608083E0E4F6E084818160848389EBFB
:100320008083E0E6F6E088E0818392830895982F49
:100330008091A10885FFFCCF9093A0080895FC014F
:1003400090818091A10885FFFCCF9093A008319601
:100350009923B1F70895982F8091A10985FFFCCFCB
:100360009093A0090895FC0190818091A10985FFD7
:10037000FCCF9093A00931969923B1F70895982F57
:100380008091A10A85FFFCCF9093A00A0895FC01FB
:1003900090818091A10A85FFFCCF9093A00A3196AD
:1003A0009923B1F70895AC0180914D2090914E2092
:1003B0008417950749F020E030E080914F2090911C
:1003C00050208417950711F421E030E0C901089509
:1003D0002F923F924F925F926F927F928F929F9255
:1003E000AF92BF92CF92DF92EF92FF920F931F9343
:1003F000DF93CF93CDB7DEB72897CDBFDEBFC090D8
:10040000A326D090A426E090A526F090A626809161
:10041000792590917A2501966AE070E00E940A4E53
:100420008C018093792590937A25000F111F000F7E
:10043000111F3BED232E35E2332E200E311E60912D
:100440008325709184258091852590918625D10101
:100450002D913D914D915C910E94204B4B015C018F
:1004600005571A4D60917B2570917C2580917D25E3
:1004700090917E25F80120813181428153810E9433
:10048000204B2B013C01C701B601A70196010E9438
:10049000144D9B01AC01D1016D937D938D939C9381
:1004A0001397F801C082D182E282F382C501B401C0
:1004B0000E94214B4B015C0160938325709384253E
:1004C0008093852590938625C301B201A7019601EB
:1004D0000E94214B9B01AC0160937B2570937C258E
:1004E00080937D2590937E250E94144D20E030E07E
:1004F00040E251EC0E948C4B9B01AC01C501B40160
:100500000E94214B20E030E040E251E40E948C4BFD
:100510002FE632E143E05BE30E94104D18161CF415
:10052000CC24DD2470C0E0916F21F0917021EE0F9A
:10053000FF1FEE0FFF1F9F012D59324D40E050E08D
:1005400060E070E0D9014D935D936D937C931397B8
:10055000EF53F84D4083518362837383E0903221DF
:10056000F09033210091342110913521C801B70159
:100570002DEC3CEC4CEC5DE30E94854B88233CF475
:10058000C801B7012AE939E949E95EE306C0C801B3
:10059000B7012DEC3CEC4CE45FE30E94144D6093FA
:1005A0003221709333218093342190933521E09050
:1005B0003621F09037210091382110913921C8015E
:1005C000B7012DEC3CEC4CEC5DE30E94854B88239D
:1005D0003CF4C801B7012AE939E949E95EE306C0FC
:1005E000C801B7012DEC3CEC4CE45FE30E94144DD4
:1005F000609336217093372180933821909339216D
:1006000091E0C92ED12C8090362190903721A09076
:100610003821B0903921609132217091332180913D
:1006200034219091352120913A2130913B21409104
:100630003C2150913D210E94204B7B018C01C11433
:10064000D10421F081E0C82ED12C54C026E636E634
:1006500046EE5EE30E94104D181654F480914B252F
:1006600090914C25019680934B2590934C250EC07C
:10067000C801B70126E636E646EE5EEB0E94854BE2
:1006800087FDECCF10924B2510924C2580914B2585
:1006900090914C250B971CF0CC24CA94DC2CC501FE
:1006A000B40126E636E646EE5EE30E94104D1816CB
:1006B00054F0C501B40126E636E646EE5EEB0E9434
:1006C000854B882354F480914D2590914E250196B9
:1006D00080934D2590934E2504C010924D25109285
:1006E0004E2580914D2590914E250B971CF0CC24E2
:1006F000CA94DC2CC6012896CDBFDEBFCF91DF9116
:100700001F910F91FF90EF90DF90CF90BF90AF902F
:100710009F908F907F906F905F904F903F902F9021
:1007200008952F923F924F925F926F927F928F9295
:100730009F92AF92BF92CF92DF92EF92FF920F9370
:100740001F93DF93CF93CDB7DEB72A97CDBFDEBF20
:1007500089879A87892BB9F4609123277091242780
:10076000809125279091262720919F263091A026C1
:100770004091A1265091A2262B833C834D835E831A
:100780004FE956E231C089859A850197B9F46091A5
:100790006F2670917026809171269091722620911B
:1007A0005F2D3091602D4091612D5091622D2B83F2
:1007B0003C834D835E834FE55DE216C06091472D1B
:1007C0007091482D8091492D90914A2D20910929B1
:1007D00030910A2940910B2950910C292B833C839D
:1007E0004D835E8349E059E249835A8320908227F2
:1007F000309083274090842750908527E985FA859B
:10080000EE0FFF1FEE0FFF1FEF83F8878F010359D5
:100810001A4DA20191010E94144DF80120813181ED
:10082000428153810E94214B6B017C01F80160835E
:1008300071838283938327E234E64FEA5FE30E9469
:10084000854B88230CF0B9C0C701B60127E234E616
:100850004FEA5FEB0E94104D18160CF0AEC080916D
:100860006D2190916E21019709F0A7C069847A8467
:10087000660C771C2FE435E2620E731EF301A08034
:10088000B1808F80988425E535E2820E931E34E690
:10089000A316B10409F064C0F401C080D180E280E5
:1008A000F380C701B60120E030E040E050E00E9454
:1008B000854B882329F460E070E080E090E011C06F
:1008C0002F8138852F593A4DF9012081318142819C
:1008D0005381CA01B9010E94214BA70196010E94D0
:1008E0008C4B09851A85000F111F000F111FF8018D
:1008F000EF52FF4D20813181428153810E948C4B08
:1009000020E030E048EC52E40E94144D20E030E05A
:1009100048ED52E40E948C4B9B01AC016B817C81C1
:100920008D819E810E94214BE981FA8160837183D0
:1009300082839383F801E359FA4D80E090E0A0E0D0
:10094000B0E080839183A283B383F801EF59FA4D1D
:1009500080839183A283B3830B5A1A4DF80148C058
:100960000F8118850F591A4DC701B601A2019101D7
:100970000E94144D9B01AC01F8016081718182815C
:1009800093810E94214BF80160837183828393835A
:10099000F4016081718182819381A20191010E94A1
:1009A000214BF40160837183828393830894A11C9B
:1009B000B11CF301A082B18228C029853A85220F9B
:1009C000331F220F331FF901E359FA4D80E090E005
:1009D000A0E0B0E080839183A283B383F901EF5953
:1009E000FA4D80839183A283B3832B5A3A4DF90148
:1009F00080839183A283B38329853A85220F331F95
:100A0000215B3A4DF901108211822A96CDBFDEBFDB
:100A1000CF91DF911F910F91FF90EF90DF90CF90DA
:100A2000BF90AF909F908F907F906F905F904F900E
:100A30003F902F9008956F927F928F929F92AF92E6
:100A4000BF92CF92DF92EF92FF920F931F93CF93BB
:100A5000DF9310C082EC9AE20E94CD31CD54D24D8A
:100A6000888380912B2690912C26019680932B26AB
:100A700090932C2682EC9AE20E94C331C0912B26DF
:100A8000D0912C26882331F7CD54D24D188283EB98
:100A90009DE26BE570E00E94584F4C01E82FF92F62
:100AA000DF010D900020E9F73D010894610871080D
:100AB0006E1A7F0A009731F410922B2610922C2682
:100AC0001092B32DD4011196F4018181853409F07F
:100AD00012C1FAE06F16710408F40DC118968C91DA
:100AE00018978D3509F007C1FD01319611963C919B
:100AF000DF0111962181AD014F5F5F4F11968C91FF
:100B00003E3409F0A3C080E090E0A0E0B0E0809324
:100B1000552190935621A0935721B093582180934B
:100B20005D2190935E21A0935F21B093602181E0CD
:100B300090E08093DD209093DE2076C060E070E04E
:100B400081E090E06E197F09800B910B0E94274C89
:100B500020E030E04AEF57EC08C0C801B7010E941E
:100B6000254C20E030E04AEF57E40E948C4B609324
:100B700055217093562180935721909358219501C8
:100B800040E050E081E0A81680E8B80678F060E028
:100B900070E081E090E0621B730B840B950B0E9468
:100BA000274C20E030E04AEF57EC08C0CA01B901F9
:100BB0000E94254C20E030E04AEF57E40E948C4B25
:100BC00060935D2170935E2180935F2190936021FB
:100BD000C0925B21D0925C21C0936321D0936421A9
:100BE00081E090E080932620909327208091DD2063
:100BF0009091DE20892BC1F080E090E0A0E0B0E091
:100C00008093552190935621A0935721B09358215A
:100C100080935D2190935E21A0935F21B09360212A
:100C20001092DD201092DE20A6EFBFEF6A0E7B1E31
:100C300060922B2670922C26EAE0F0E08E0E9F1E2A
:100C400083EB9DE2B4010E94634F55C0C22EDD24A8
:100C5000FFE1CF22DD2406E0CC0CDD1C0A95E1F794
:100C60008F73C80ED11C932F990F990F990F80E0A5
:100C7000C80ED91EC0925921D0925A21DA0111967C
:100C8000FD0131968181C82FD0E0CF71D07016E080
:100C9000CC0FDD1F1A95E1F782818F73C80FD11D2C
:100CA00011962C91922F990F990F990F80E0C80FF0
:100CB000D91FC0936121D093622180915B219091D3
:100CC0005C219601281B390B2093F7263093F826D8
:100CD00080916321909164215E01A81AB90AA092C3
:100CE000BF2AB092C02A790100E010E021503048BC
:100CF00008F024CF32CFDF91CF911F910F91FF9059
:100D0000EF90DF90CF90BF90AF909F908F907F90AB
:100D10006F9008954F925F926F927F928F929F9201
:100D2000AF92BF92CF92DF92EF92FF920F931F93F9
:100D3000CF93DF9313C08CE39CE20E94CD3127E573
:100D400033E2820E931EF401808380912D269091D0
:100D50002E26019680932D2690932E268CE39CE2DE
:100D60000E94C33180902D2690902E26882319F75B
:100D7000C40168E070E00E940A4E6B01662477248B
:100D800081E0482E512C78C087E593E26FEF70E048
:100D90000E94584FFC01DC01119681818F3F09F0C0
:100DA00068C0FD0131969F012F5F3F4FB180AA249B
:100DB00011968C91A501480F511D40934F235093DC
:100DC0005023F9013196DF011196F180EE24F901EB
:100DD0008181E701C80FD11DC0934D23D0934E23CD
:100DE00012961C91129700E011968C919801280F91
:100DF000311D209351233093522341505040CA015A
:100E00008C0F9D1F4F5F5F4F80935323909354230C
:100E10002817390771F5BA01882777FD8095982F33
:100E20000E94274C20E030E048EC52E40E948C4BBA
:100E30006093492370934A2380934B2390934C23D0
:100E4000BE01882777FD8095982F0E94274C20E0CF
:100E500030E048EC52E40E948C4B60934523709341
:100E600046238093472390934823409255235092E2
:100E700056230894611C711C6C147D040CF484CFFF
:100E800080E090E005C0FC01E95AFC4D108201961B
:100E900088159905C4F310922D2610922E26DF9105
:100EA000CF911F910F91FF90EF90DF90CF90BF9067
:100EB000AF909F908F907F906F905F904F9008952C
:100EC0002F923F924F925F926F927F928F929F925A
:100ED000AF92BF92CF92DF92EF92FF920F931F9348
:100EE000DF93CF93CDB7DEB7EA97CDBFDEBF11C09A
:100EF0008EEF97E20E94CD310F501E4DD8018C939A
:100F000080912F2690913026019680932F269093E2
:100F100030268EEF97E20E94C33100912F26109168
:100F20003026A1EFB1E2882319F70A0F1B1FF80141
:100F30001082FD0101900020E9F7E750F24273971B
:100F400010F00C940D108091F1218E3711F00C945B
:100F50000D108091F2218E3511F00C940D108091BE
:100F6000F321893411F00C940D10CD0169E470E087
:100F70000E94584F8C010F5F1F4FC8010E943A4FCB
:100F80009C018093D3219093D42110921F2310921F
:100F9000202380914D2090914E208217930749F095
:100FA00080914F20909150208217930711F00C945C
:100FB0000D10C8016CE770E00E94584F8C010F5F64
:100FC0001F4FC8010E94364F90586093D5217093EF
:100FD000D6218093D7219093D821C8016CE770E087
:100FE0000E94584F8C010F5F1F4FC8010E94364F5F
:100FF00020E030E048EC52E40E948C4B6093D92111
:101000007093DA218093DB219093DC21C8016CE797
:1010100070E00E94584F8C010F5F1F4FC8010E9463
:10102000364F20E030E048EC52E40E948C4B609355
:10103000DD217093DE218093DF219093E021C801B0
:101040006CE770E00E94584F01960E94364F20E0F6
:1010500030E048EC52E40E948C4B6093E1217093A5
:10106000E2218093E3219093E42182E090E0809359
:101070001F23909320238091DF209091E0200197FF
:1010800071F586E190E00E94314EFC018093F827D3
:101090009093F9278091D3219091D42180839183DB
:1010A00080E090E0A0E0B0E082839383A483B583E6
:1010B00086839783A087B18782879387A487B58724
:1010C000108A118A128A138A148A158A8091DF2065
:1010D0009091E02001968093DF209093E020409152
:1010E000D3215091D4212091F8273091F92729AFAD
:1010F0003AAFD9018D919C914817590709F005C263
:1011000031E0432E512C40921F23509220232091F6
:10111000D9213091DA214091DB215091DC21E090FE
:10112000DD21F090DE210091DF211091E021CA0144
:10113000B9010E94144D5B016C01C801B701A801FF
:1011400097010E94144D9B01AC01C601B5010E949C
:10115000214B0E94814D26E636E646EA5FE30E9477
:10116000854B87FD11C020E030E040E050E0298B46
:101170003A8B4B8B5C8B2D873E874F87588B29870B
:101180003A874B875C8792C64092652150926621D0
:1011900080E090E0A0E0B0E0898B9A8BAB8BBC8BB9
:1011A0008D879E87AF87B88B89879A87AB87BC87E7
:1011B0007DC6A9ADBAAD8D919C9111978417950705
:1011C00009F0A1C11E968D919C911F972091D92164
:1011D0003091DA214091DB215091DC212DA73EA7EF
:1011E0004FA758AB2091DD213091DE214091DF21C6
:1011F0005091E02129AB3AAB4BAB5CAB892B09F0AA
:1012000032C183E090E080931F239093202360916C
:10121000D5217091D6218091D7219091D8212BEDA5
:101220003FE049E450E40E94144D20E030E044E304
:1012300053EC0E948C4B2091082130910921409160
:101240000A2150910B210E94214B7B018C01362EEB
:101250002F2C0DAB1EAB862F9F2DD8018093212301
:1012600090932223A0932323B0932423B701C80192
:101270000E94894B3B014C01B701C8010E94774D88
:101280005B016C01C401B3012DA53EA54FA558A972
:101290000E94144D7B018C01C601B50129A93AA910
:1012A0004BA95CA90E94144D9B01AC01C801B70178
:1012B0000E94204B9B01AC016091002170910121A3
:1012C00080910221909103210E94204B698F7A8F97
:1012D0008B8F9C8F609325237093262380932723E5
:1012E00090932823C601B5012DA53EA54FA558A969
:1012F0000E94144D7B018C01C401B30129A93AA9B4
:101300004BA95CA90E94144D9B01AC01C801B70117
:101310000E94214B9B01AC01609104217091052139
:1013200080910621909107210E94204B6D8F7E8F26
:101330008F8F98A36093292370932A2380932B2364
:1013400090932C23A9ADBAAD52964D905C905397D3
:10135000B201882777FD8095982F0E94274C3B018A
:101360004C01E9ADFAAD22853385448555850E944F
:10137000144D7B018C01632D722D8DA99EA920E057
:1013800030E044E353E40E94144D2BED3FE049E488
:1013900050E40E948C4B9B01AC01C801B7010E9434
:1013A000214B7B018C010894411C511CB201882700
:1013B00077FD8095982F0E94274C5B016C01C80136
:1013C000B701A60195010E948C4BA9ADBAAD1A9642
:1013D0006D937D938D939C931D97C401B3011296D9
:1013E0002D913D914D915C9115970E94144D298D41
:1013F0003A8D4B8D5C8D0E94214BA60195010E9478
:101400008C4BE9ADFAAD6283738384839583C40109
:10141000B30126813781408551850E94144D2D8D61
:101420003E8D4F8D58A10E94214BA60195010E942F
:101430008C4BA9ADBAAD16966D937D938D939C930D
:10144000199752964D925C925397B4E14B16510402
:1014500009F063C081E090E0E9ADFAAD8687978737
:10146000808B918B5AC0A9ADBAAD1A968D919D9182
:101470000D90BC91A02D898B9A8BAB8BBC8BA9ADA9
:10148000BAAD12962D913D914D915C9115972D8796
:101490003E874F87588B16962D913D914D915C91CB
:1014A000199729873A874B875C8721E0422E512C78
:1014B00040921F23509220236DA57EA58FA598A949
:1014C0009B01AC010E94144D7B018C0169A97AA992
:1014D0008BA99CA99B01AC010E94144D9B01AC01FE
:1014E000C801B7010E94214B0E94814D26E636E6D5
:1014F00046EA5FE30E94854B8823FCF44092652115
:10150000509266211AC029AF3AAFE9ADFAAD2489ED
:1015100035892115310509F04CCE20E030E040E05E
:1015200050E0298B3A8B4B8B5C8B2D873E874F8706
:10153000588B29873A874B875C8780911F2390912E
:101540002023029709F0ABC1A9ADBAAD2D913C9112
:1015500011978091D3219091D4212817390709F050
:101560009EC11E968D919C911F972091D9213091FB
:10157000DA214091DB215091DC212DA73EA74FA716
:1015800058AB2091DD213091DE214091DF21509137
:10159000E02129AB3AAB4BAB5CAB892B09F032C1F4
:1015A00083E090E080931F23909320236091D521C6
:1015B0007091D6218091D7219091D8212BED3FE0D9
:1015C00049E450E40E94144D20E030E044E353EC41
:1015D0000E948C4B209108213091092140910A21D1
:1015E00050910B210E94214B7B018C01362E2F2C18
:1015F0000FAB18AF862F9F2DD80180932123909396
:101600002223A0932323B0932423B701C8010E946F
:10161000894B3B014C01B701C8010E94774D5B012A
:101620006C01C401B3012DA53EA54FA558A90E9488
:10163000144D7B018C01C601B50129A93AA94BA91A
:101640005CA90E94144D9B01AC01C801B7010E9426
:10165000204B9B01AC016091002170910121809190
:101660000221909103210E94204B69A37AA38BA3AE
:101670009CA3609325237093262380932723909324
:101680002823C601B5012DA53EA54FA558A90E9446
:10169000144D7B018C01C401B30129A93AA94BA9BE
:1016A0005CA90E94144D9B01AC01C801B7010E94C6
:1016B000214B9B01AC016091042170910521809127
:1016C0000621909107210E94204B6DA37EA38FA33A
:1016D00098A76093292370932A2380932B239093B8
:1016E0002C23A9ADBAAD52964D905C905397B201A0
:1016F000882777FD8095982F0E94274C3B014C014D
:10170000E9ADFAAD22853385448555850E94144D97
:101710007B018C01632D722D8FA998AD20E030E004
:1017200044E353E40E94144D2BED3FE049E450E4C0
:101730000E948C4B9B01AC01C801B7010E94214B58
:101740007B018C010894411C511CB201882777FD54
:101750008095982F0E94274C5B016C01C801B7014E
:10176000A60195010E948C4BA9ADBAAD1A966D9356
:101770007D938D939C931D97C401B30112962D9177
:101780003D914D915C9115970E94144D29A13AA16C
:101790004BA15CA10E94214BA60195010E948C4B9C
:1017A000E9ADFAAD6283738384839583C401B30189
:1017B00026813781408551850E94144D2DA13EA17F
:1017C0004FA158A50E94214BA60195010E948C4B68
:1017D000A9ADBAAD16966D937D938D939C93199791
:1017E00052964D925C925397B4E14B16510409F016
:1017F00056C081E090E0E9ADFAAD86879787808B8F
:10180000918B4DC0A9ADBAAD1A962D913D914D91D8
:101810005C911D97298B3A8B4B8B5C8B12962D918B
:101820003D914D915C9115972D873E874F87588B41
:1018300016962D913D914D915C91199729873A8784
:101840004B875C8791E0492E512C40921F23509288
:1018500020236DA57EA58FA598A99B01AC010E94B0
:10186000144D7B018C0169A97AA98BA99CA99B01C4
:10187000AC010E94144D9B01AC01C801B7010E944C
:10188000214B0E94814D26E636E646EA5FE30E9440
:10189000854B882324F440926521509266218091E3
:1018A0001F2390912023029709F00CC12090D92189
:1018B0003090DA214090DB215090DC212091DD2115
:1018C0003091DE214091DF215091E0212D833E8334
:1018D0004F835887C201B101A20191010E94144DAA
:1018E0007B018C016D817E818F8198859B01AC018C
:1018F0000E94144D9B01AC01C801B7010E94214B0D
:101900000E94814D26E636E646EA5FE30E94854B5B
:1019100088230CF0D7C06091D5217091D621809199
:10192000D7219091D8212BED3FE049E450E40E946B
:10193000144D20E030E044E353EC0E948C4B2091A6
:1019400008213091092140910A2150910B210E94D8
:10195000214B7B018C01CB01D801809321239093F3
:101960002223A0932323B0932423B701C8010E940C
:10197000894B3B014C01B701C8010E94774D5B01C7
:101980006C01C401B301A20191010E94144D7B01BD
:101990008C01C601B5012D813E814F8158850E9481
:1019A000144D9B01AC01C801B7010E94204B9B0163
:1019B000AC016091002170910121809102219091F0
:1019C00003210E94204B609325237093262380934C
:1019D000272390932823C601B501A20191010E94FB
:1019E000144D7B018C01C401B3012D813E814F81D7
:1019F00058850E94144D9B01AC01C801B7010E949B
:101A0000214B9B01AC0160910421709105218091D3
:101A10000621909107210E94204B60932923709307
:101A20002A2380932B2390932C2386E190E00E941D
:101A3000314E8C018091D3219091D421D8018D9386
:101A40009C93609121237091222380912323909174
:101A5000242320E030E044E353E40E94144D2BEDB6
:101A60003FE049E450E40E948C4BF80162877387A1
:101A7000848795878091252390912623A091272301
:101A8000B091282382839383A483B58380912923F3
:101A900090912A23A0912B23B0912C2386839783A6
:101AA000A087B18716861786108A118A81E090E098
:101AB000828B938B148A158AA9ADBAAD54960D9377
:101AC0001C9355976091D5217091D6218091D72193
:101AD0009091D82129893A894B895C890E94214BB0
:101AE00069A77AA78BA79CA76093D5217093D6216D
:101AF0008093D7219093D82169897A898B899C8991
:101B00002BED3FE049E450E40E94144D5B016C0171
:101B100020E030E044E353E40E948C4B7B018C01D5
:101B2000C8010E94894B6D8B7E8B8F8B988F209183
:101B3000D9213091DA214091DB215091DC21298398
:101B40003A834B835C83C601B50120E030E044E377
:101B500053EC0E948C4B0E94774D3B014C0120902E
:101B6000DD213090DE214090DF215090E021B7014F
:101B7000C8010E94774D5B016C016D897E898F8958
:101B8000988D29813A814B815C810E94144D7B01A3
:101B90008C01C401B301A20191010E94144D9B016B
:101BA000AC01C801B7010E94214B2D853E854F85B0
:101BB00058890E94214B6093D9217093DA21809338
:101BC000DB219093DC21C601B50129813A814B814B
:101BD0005C810E94144D7B018C016D897E898F8907
:101BE000988DA20191010E94144D9B01AC01C80186
:101BF000B7010E94214B29853A854B855C850E945F
:101C0000214B6093DD217093DE218093DF2190933F
:101C1000E02129A43AA44BA45CA46091082170910E
:101C2000092180910A2190910B2120E030E044E3CA
:101C300053E40E94144D2BED3FE049E450E40E9430
:101C40008C4B7B018C0120E030E040E050E00E94B2
:101C5000854B87FD0AC0C201B10120E030E040E0C1
:101C600050E00E94854B8823B4F469A57AA58BA522
:101C70009CA520E030E044EB53E40E94214B1B0183
:101C80002C01C801B70120E030E044EB53E40E948E
:101C9000214B7B018C0110924323109244238091AD
:101CA000652190916621019709F000C1A9ADBAADF7
:101CB00050968D919C915197019709F0F7C05096DD
:101CC0001D921C925197C201B101A80197010E9477
:101CD000204B0E94F44B9B0177FF03C03095219568
:101CE0003F4FB901882777FD8095982F0E94274C98
:101CF00020E030E040EA50E40E94104D18160CF449
:101D00005FC06091D9217091DA218091DB2190919F
:101D1000DC2120910021309101214091022150913C
:101D200003210E94204B20E030E048EC52E40E9466
:101D3000144D0E94F44B9B0177FF03C03095219511
:101D40003F4FB901882777FD8095982F0E94274C37
:101D500020E030E040E251E40E94104D181684F17A
:101D60006091DD217091DE218091DF219091E02151
:101D700020910421309105214091062150910721A5
:101D80000E94204B20E030E048EC52E40E94144DC9
:101D90000E94F44B9B0177FF03C0309521953F4F84
:101DA000B901882777FD8095982F0E94274C20E065
:101DB00030E040E251E40E94104D18160CF076C05D
:101DC00081E090E080934323909344238091F8270F
:101DD0009091F9278093BF279093C0275BC0208103
:101DE0003181A9ADBAAD8D919C9111972817390712
:101DF00009F04CC082E090E0809343239093442309
:101E000054968D919C915597FA01848B958B0E94E5
:101E1000DE4E609108217091092180910A219091F4
:101E20000B2120E030E044E353E40E94144D2BEDFD
:101E30003FE049E450E40E948C4B6093D5217093BD
:101E4000D6218093D7219093D82180910021909121
:101E50000121A0910221B09103218093D921909377
:101E6000DA21A093DB21B093DC21809104219091B1
:101E70000521A0910621B09107218093DD21909347
:101E8000DE21A093DF21B093E02110C0E093BF27B3
:101E9000F093C0274091BF275091C027DA01549694
:101EA000ED91FC915597309709F099CFE091F82783
:101EB000F091F9272091D3213091D4218081918113
:101EC0002817390709F455C069897A898B899C8953
:101ED00020E030E040E050E00E94854B882309F08C
:101EE00048C06D857E858F85988920E030E040E090
:101EF00050E00E94854B8823E1F569857A858B85C2
:101F00009C8520E030E040E050E00E94854B882333
:101F100081F58091E5219091E621A091E721B09192
:101F2000E8218093D5219093D621A093D721B09317
:101F3000D8218091E9219091EA21A091EB21B091E3
:101F4000EC218093D9219093DA21A093DB21B093E7
:101F5000DC218091ED219091EE21A091EF21B091B3
:101F6000F0218093DD219093DE21A093DF21B093B7
:101F7000E0216091D5217091D6218091D721909157
:101F8000D8216093E5217093E6218093E721909317
:101F9000E821E090D921F090DA210091DB21109125
:101FA000DC21E092E921F092EA210093EB211093E9
:101FB000EC212091DD213091DE214091DF215091F3
:101FC000E0212093ED213093EE214093EF215093B7
:101FD000F021E0921421F092152100931621109324
:101FE0001721209318213093192140931A215093DF
:101FF0001B212BED3FE049E450E40E94144D20E00A
:1020000030E044E353E40E948C4B60931C217093B6
:102010001D2180931E2190931F2120912F26309106
:10202000302680E090E005C0FC01EF50FE4D1082AC
:10203000019682179307C4F310922F261092302630
:10204000EA96CDBFDEBFCF91DF911F910F91FF9038
:10205000EF90DF90CF90BF90AF909F908F907F9048
:102060006F905F904F903F902F900895EF92FF9266
:102070000F931F93E0E4F6E058E0E52EE18244E0A0
:10208000F42EF28282EC9AE260EA78E041E00E946B
:102090007F31E0EAF8E003E00583A091C22AB09125
:1020A000C32A13968C911397806313968C9310E137
:1020B0001683178384818460848384818061848310
:1020C000848188608483E0E6F6E0E182F2828EEF2C
:1020D00097E260EA79E041E00E947F31E0EAF9E0CE
:1020E0000583A091FE27B091FF2713968C9113973B
:1020F000806313968C931683178284818460848313
:10210000848180618483848188608483E0E8F6E050
:10211000E182F2828CE39CE260EA7AE041E00E9494
:102120007F31E0EAFAE00583A0913C2CB0913D2C90
:1021300013968C9113978F7C806113968C931683E2
:102140001782848184608483848180618483848114
:10215000886084831F910F91FF90EF900895EF9214
:10216000FF920F931F93E0914920F0914A20EE24B3
:10217000E394E68265E3F62E8F2D8A95F1F701EF61
:1021800017E2C80160E20E942F31C80167E50E9492
:102190002F318F2D8A95F1F7E0914920F0914A2057
:1021A000E5828F2D8A95F1F7E6828F2D8A95F1F7DA
:1021B000C80161E20E942F31C80160E00E942F3106
:1021C0008F2D8A95F1F7E0914920F0914A20E58220
:1021D0008F2D8A95F1F7E6828F2D8A95F1F7C80148
:1021E00062E20E942F31C80160E00E942F318F2DE2
:1021F0008A95F1F7E0914920F0914A20E5828F2DF0
:102200008A95F1F7E6828F2D8A95F1F7C80163E28E
:102210000E942F31C80168E80E942F318F2D8A95C6
:10222000F1F7E0914920F0914A20E5828F2D8A95BF
:10223000F1F7E6828F2D8A95F1F7C80164E20E94DA
:102240002F31C80160E00E942F318F2D8A95F1F760
:10225000E0914920F0914A20E582E6828F2D8A950F
:10226000F1F7C80165E20E942F31C80160E00E94C9
:102270002F318F2D8A95F1F7E0914920F0914A2076
:10228000E582E6828F2D8A95F1F7C8016FE10E9401
:102290002F31C80160EC0E942F31FA94F1F7E091E0
:1022A0004920F0914A20E5821F910F91FF90EF9015
:1022B00008952F923F924F925F926F927F928F92EA
:1022C0009F92AF92BF92CF92DF92EF92FF920F93C5
:1022D0001F93DF93CF93CDB7DEB7CC52D340CDBFA2
:1022E000DEBF0E9434010E947C010E9436100E94D1
:1022F000590140EA842E912CD40111961C92119719
:1023000087E012968C93E0E6F6E021E0218388E3F3
:10231000808B92E09183818B2583958381EF97E277
:1023200060EC79E040E656E020E00CE0EE24CC24BE
:10233000AA24A3940E9446308091A2008460F401F4
:10234000828378940E94AF1082E39CE26DE370E296
:1023500041E656E227E000E616E032E0E32E0E9476
:102360009C3092E0F92ED8011696FC9281EF97E20C
:1023700062E37CE20E943C31F801F58280E1FE01DB
:102380003196DF01E82E1D92EA94E9F7FE0171967D
:10239000DF011D928A95E9F7DE019196E1E9F0E20D
:1023A00080E401900D928150E1F780E090E020E020
:1023B00030E040E050E0FC01E65AF84D20833183E4
:1023C00042835383FC01E153F94D208331834283DF
:1023D0005383FC01E057F84D2083318342835383BC
:1023E000FC01ED59F24D2083318342835383FC017C
:1023F000EF53F84D2083318342835383FC01E95529
:10240000F94D2083318342835383FC01E75CF94D0E
:102410002083318342835383FC01E958F94D2083A3
:10242000318342835383FC01E25DF84D2083318385
:102430004283538304968832910509F0BCCF662409
:102440007724C75DDD4F18821982C952D2400F2E02
:10245000F0E0EF2EF0E0FF2EF0E00F2FF0E01F2F66
:10246000F02DCB5DDD4FE882F9820A831B83C552D4
:10247000D240CF5DDD4FE882F9820A831B83C152CF
:10248000D240C35EDD4FE882F9820A831B83CD51BF
:10249000D24047015801C75EDD4FE882F9820A83C6
:1024A0001B83C951D24000E010E020E83FE3CB5E3F
:1024B000DD4F088319832A833B83C551D240CF5E09
:1024C000DD4F88829982AA82BB82C151D2409E018F
:1024D0002F553F4FC75DDC4F28833983C952D34006
:1024E000AE014F595E4FC55DDC4F48835983CB52D7
:1024F000D34006C0C55DDD4F68807980CB52D240A5
:1025000080919B2190919C21892BD1F310929B214A
:1025100010929C218091200890912108C55DDD4F8B
:1025200088839983CB52D24082E39CE268E270E2D6
:1025300048E656E227E000E616E0EE24E3940E9427
:102540009C3080E6C82E86E0D82E11E0D601169683
:102550001C930AE1F02E8F2D8A95F1F781EF97E217
:1025600062E37CE20E943C318F2D8A95F1F7F601FF
:10257000158382E39CE266E370E241E656E227E0DF
:1025800000E616E0B2E0EB2E0E949C3012E0D6018D
:1025900016961C938F2D8A95F1F781EF97E262E3EF
:1025A0007CE20E943C31FA94F1F7F6011583C55D97
:1025B000DD4F68817981CB52D2406619770980E07E
:1025C00090E00E94254C20E034E244EF59E40E9460
:1025D0008C4B20E030E040E052E40E94144D6093C8
:1025E00082277093832780938427909385278091F7
:1025F0006A26805880936A2690916C269058909312
:102600006C2620916E26205820936E26C654DD4FEE
:102610008883CA5BD240C754DD4F1882C95BD24061
:1026200080916926C754DD4FE880F980C95BD240AC
:10263000E80EF11CC454DD4F9883CC5BD240C554E6
:10264000DD4F1882CB5BD24080916B26C554DD4FA5
:1026500068817981CB5BD240680F711DC254DD4F18
:102660002883CE5BD240C354DD4F1882CD5BD2406D
:1026700080916D26C354DD4FC880D980CD5BD24098
:10268000C80ED11C00916326005800936326109158
:102690006526105810936526809167268058809390
:1026A00067265090642640906226C054DD4F888390
:1026B000C05CD240C154DD4F1882CF5BD2408091C4
:1026C0006626C154DD4F68807980CF5BD240680EAA
:1026D000711CC75DDD4F28813981C952D240243633
:1026E000310548F42F5F3F4FC75DDD4F28833983A5
:1026F000C952D240FFCEC75DDD4F48815981C952D2
:10270000D2404C54544008F065C080E090E00E94F4
:10271000254C9B01AC01CB5DDD4F688179818A81BD
:102720009B81C552D2400E94214BCB5DDD4F688317
:1027300079838A839B83C552D240B70180E090E0C1
:102740000E94254C9B01AC01CF5DDD4F68817981F2
:102750008A819B81C152D2400E94214BCF5DDD4FC7
:10276000688379838A839B83C152D240B60180E01B
:1027700090E00E94254C9B01AC01C35EDD4F688157
:1027800079818A819B81CD51D2400E94214BC35EC9
:10279000DD4F688379838A839B83CD51D240B30117
:1027A00080E090E00E94254C9B01AC01C501B40182
:1027B0000E94214B4B015C01C75DDD4FA881B981AF
:1027C000C952D2401196C75DDD4FA883B983C95263
:1027D000D24090CEC75DDD4FE881F981C952D24029
:1027E000EC54F44009F081C0CB5DDD4F6881798104
:1027F0008A819B81C552D24020E030E04AE754E410
:102800000E948C4B60935B2D70935C2D80935D2DAB
:1028100090935E2DCF5DDD4F688179818A819B81A8
:10282000C152D24020E030E04AE754E40E948C4B91
:102830006093ED277093EE278093EF279093F02716
:10284000C35EDD4F688179818A819B81CD51D24001
:1028500020E030E04AE754E40E948C4B20E030E076
:102860004AE756E40E94204B6093562770935727FF
:102870008093582790935927C501B40120E030E098
:102880004AE754E40E948C4B6093092970930A290B
:1028900080930B2990930C2980E090E0A0E0B0E0B9
:1028A0008093DF2E9093E02EA093E12EB093E22E42
:1028B0008093E32E9093E42EA093E52EB093E62E22
:1028C0008DEC9CECACE1B1E48093E72E9093E82E84
:1028D000A093E92EB093EA2E4DE454E0C75DDD4F9E
:1028E00048835983C952D24005CE809120089091E7
:1028F0002108109255231092562380E090E00E9408
:10290000254C20915B2D30915C2D40915D2D509197
:102910005E2D0E94204B2EE230E940E25AEB0E94ED
:10292000144D6093A3267093A4268093A5269093BC
:10293000A626B70180E090E00E94254C2091ED276B
:102940003091EE274091EF275091F0270E94204BC5
:102950002EE230E940E25AEB0E94144D6093352696
:10296000709336268093372690933826B60180E000
:1029700090E00E94254C2091562730915727409196
:102980005827509159270E94204B2EE230E940E20F
:102990005AE30E94144D60938C2770938D27809387
:1029A0008E2790938F27CE53DD4F1883C25CD24081
:1029B000CF53DD4F1882C15CD240CF53DD4F6881C9
:1029C0007981C15CD240650D711D80E090E00E946C
:1029D000254C20919F263091A0264091A126509110
:1029E000A2260E94204B29EA34EE49E159EB0E94CD
:1029F000144D609323277093242780932527909369
:102A00002627CC53DD4F0883C45CD240CD53DD4F25
:102A10001882C35CD240CD53DD4F68817981C35C9D
:102A2000D240640D711D80E090E00E94254C209101
:102A30005F2D3091602D4091612D5091622D0E944B
:102A4000204B29EA34EE49E159E30E94144D60938A
:102A50006F26709370268093712690937226B3012F
:102A600080E090E00E94254C2091092930910A29AC
:102A700040910B2950910C290E94204B29E732E20A
:102A800040E259E30E94144DDC019B01AC0120930C
:102A9000472D3093482D4093492D50934A2DCB011B
:102AA00080934F2D9093502DA093512DB093522D84
:102AB00082E090E00E94910360913126709132266D
:102AC000809133269091342620918227309183275C
:102AD00040918427509185270E94144D9B01AC01A1
:102AE0006091FA277091FB278091FC279091FD2738
:102AF0000E94214B6093FA277093FB278093FC2759
:102B00009093FD2780916F219091702101966AE04A
:102B100070E00E940A4EFC0180936F219093702117
:102B20008091242090912520DF01A81BB90BCD01B5
:102B30000A966AE070E00E940A4E80936B2190939F
:102B40006C21EE0FFF1FEE0FFF1F9F012057384D26
:102B500040914F2D5091502D6091512D7091522DDB
:102B6000D9014D935D936D937C9313979F012D59DC
:102B7000324D4091A3265091A4266091A5267091D4
:102B8000A626D9014D935D936D937C9313979F0176
:102B90002F53384D40913526509136266091372677
:102BA00070913826D9014D935D936D937C93139763
:102BB000E25DF84D8091822790918327A091842730
:102BC000B091852780839183A283B38310922620BE
:102BD0001092272010926521109266218091D121B8
:102BE0009091D22101968093D1219093D2210A977E
:102BF00031F40E9460071092D1211092D2210E94DC
:102C00001B050F2EF0E0AF2EF0E0BF2EF0E0CF2E30
:102C1000F0E0DF2EF02DA0926721B0926821C092E3
:102C20006921D0926A21CF5EDD4F688179818A81E6
:102C30009B81C151D24020918227309183274091BE
:102C40008427509185270E94214BCF5EDD4F6883FA
:102C500079838A839B83C151D240809126209091B1
:102C6000272000916F2110917021892B11F5D80137
:102C7000AA0FBB1FAA0FBB1FFD01E75CF94DA08285
:102C8000B182C282D382FD01E958F94DA082B1829E
:102C9000C282D382FD01E750F94DA082B182C28287
:102CA000D382A557B24DAD92BD92CD92DC921397CF
:102CB00077C0000F111F000F111F69E3E62E66E2B7
:102CC000F62EE00EF11E60915521709156218091F3
:102CD00057219091582120915D2130915E214091A2
:102CE0005F21509160210E94214B20E030E040E0C4
:102CF0005FE30E94144DF7016083718382839383A5
:102D0000F801E750F94D8091552190915621A091FD
:102D10005721B091582180839183A283B383F80116
:102D2000E557F24D80915D2190915E21A0915F2148
:102D3000B091602180839183A283B3830958194D98
:102D4000CF5EDD4F288139814A815B81C151D240FC
:102D5000D8012D933D934D935C931397A0925521E9
:102D6000B0925621C0925721D0925821A0925D2155
:102D7000B0925E21C0925F21D09260210F2EF0E0D0
:102D8000EF2EF0E0FF2EF0E00F2FF0E01F2FF02DE0
:102D9000CF5EDD4FE882F9820A831B83C151D240A6
:102DA000E0916B21F0916C21EE0FFF1FEE0FFF1FE2
:102DB000E958F94D0081118122813381CB54DD4FD7
:102DC000088319832A833B83C55BD2406091A32685
:102DD0007091A4268091A5269091A6262091822705
:102DE0003091832740918427509185270E94144D6C
:102DF0009B01AC016091322170913321809134218B
:102E0000909135210E94214B6093322170933321A0
:102E10008093342190933521609135267091362628
:102E200080913726909138262091822730918327F0
:102E300040918427509185270E94144D9B01AC013D
:102E400060913621709137218091382190913921FC
:102E50000E94214B60933621709337218093382153
:102E6000909339218091262090912720892B09F475
:102E700098C00F2EF0E0CF2EF0E0DF2EF0E0EF2E26
:102E8000F0E0FF2EF02D46015701C55FDD4FC882EF
:102E9000D982EA82FB82CB50D2402601370100E082
:102EA00010E0F801E958F94DC701B60120813181E0
:102EB000428153810E94214B6B017C01F801E75C48
:102EC000F94DC501B40120813181428153810E94B5
:102ED000214B4B015C01F801E750F94DC301B201F0
:102EE00020813181428153810E94214B2B013C0181
:102EF000F801E557F24DC55FDD4F688179818A8120
:102F00009B81CB50D24020813181428153810E94EC
:102F1000214BC55FDD4F688379838A839B83CB50C8
:102F2000D2400C5F1F4F0832110509F0BACFC7011C
:102F3000B60120E030E040E050E00E94104D18164D
:102F400084F5C501B401A70196010E948C4B6093E2
:102F50003A2170933B2180933C2190933D21C30102
:102F6000B201A70196010E948C4B60933E217093A1
:102F70003F218093402190934121C55FDD4F6881BF
:102F800079818A819B81CB50D240A70196010E9412
:102F90008C4B609342217093432180934421909302
:102FA00045210E94E80180936D2190936E21E0916C
:102FB0006F21F0917021EE0FFF1FE555F54D8083D5
:102FC0009183E0916B21F0916C21EE0FFF1FEE0FCA
:102FD000FF1FDF01A057B84DE25DF84D60817181A0
:102FE000828193812D913D914D915C910E94144D70
:102FF0009B01AC01C75EDD4F688179818A819B812D
:10300000C951D2400E94214B5B016C012BED3FE086
:1030100049E450EC0E94854B88239CF4C601B5011D
:103020002BED3FE049EC50E40E94214B5B016C0129
:103030002BED3FE049E450EC0E94854B87FDEECF3D
:1030400015C0C601B5012BED3FE049E450E40E94F4
:10305000104D18165CF4C601B5012BED3FE049ECAC
:1030600050E40E94204B5B016C01EBCFCB5EDD4F47
:10307000688179818A819B81C551D24027E137EBF4
:1030800041ED58E30E94214B3B014C0180916521A9
:1030900090916621892B09F4F8C0E0901C21F090F2
:1030A0001D2100911E2110911F21C801B7012BED98
:1030B0003FE049E450EC0E94854B87FD0BC015C0F2
:1030C000C801B7012BED3FE049EC50E40E94214BD1
:1030D0007B018C01C801B7012BED3FE049E450ECC6
:1030E0000E94854B87FDECCF1FC0C801B7012BEDB7
:1030F0003FE049E450E40E94104D18165CF01CC0FB
:10310000C801B7012BED3FE049EC50E40E94204B91
:103110007B018C01C801B7012BED3FE049E450E48D
:103120000E94104D181664F3E0921C21F0921D21AC
:1031300000931E2110931F21C601B5012BED3FE026
:1031400049EC5FEB0E94854B8823DCF4E0901C2166
:10315000F0901D2100911E2110911F21C801B7017F
:103160002BED3FE049EC5FE30E94104D18164CF444
:10317000C801B7012BED3FE049EC50E40E94204B21
:1031800024C0C601B5012BED3FE049EC5FE30E948E
:10319000104D181614F5E0901C21F0901D2100919F
:1031A0001E2110911F21C801B7012BED3FE049EC12
:1031B0005FEB0E94854B882384F4C801B7012BED97
:1031C0003FE049EC50E40E94214B60931C21709336
:1031D0001D2180931E2190931F21C401B3012DEC6A
:1031E0003CEC4CEC5EE30E94214B7B018C0120E027
:1031F00030E040E050E00E94854B882309F445C050
:1032000060E070E080E89FE3A80197010E948C4B8A
:103210009B01AC01C401B3010E94144D7B018C01E0
:1032200060911C2170911D2180911E2190911F2180
:10323000A60195010E94204B9B01AC01C801B7017A
:103240000E94144D9B01AC01C601B5010E94214BA7
:10325000C75EDD4F688379838A839B83C951D240DF
:10326000C801B701A40193010E94144D9B01AC0158
:10327000C401B3010E94204BCB5EDD4F688379838C
:103280008A839B83C551D24010C0C75EDD4FA882A0
:10329000B982CA82DB82C951D240CB5EDD4F6882DF
:1032A00079828A829B82C551D240C75EDD4F688198
:1032B00079818A819B81C951D2400E94894BCF5428
:1032C000DD4F688379838A839B83C15BD240C75E6D
:1032D000DD4F688179818A819B81C951D2400E94EA
:1032E000774DC355DD4F688379838A839B83CD5A9D
:1032F000D2409B01AC015058C755DD4F288339831C
:103300004A835B83C95AD24060912621709127215C
:10331000809128219091292120E030E040E050E088
:103320000E94854B8823F1F480916521909166215C
:103330000197C1F48091142190911521A09116213B
:10334000B0911721898B9A8BAB8BBC8B8091182104
:1033500090911921A0911A21B0911B218D8B9E8BE8
:10336000AF8BB88FDE01AF59BF4FE1E5F0E280E4EB
:1033700001900D928150E1F780E4C75DDC4FA88198
:10338000B981C952D3401D928A95E9F740906B21CB
:1033900050906C218201000F111F000F111FF801C6
:1033A000E25DF84D2081318142815381CF50DE4F63
:1033B000288339834A835B83C15FD140898D9A8D8D
:1033C000AB8DBC8DCB55DD4F88839983AA83BB839E
:1033D000C55AD240CA01B901CB55DD4F2881398188
:1033E0004A815B81C55AD2400E94144D29893A898D
:1033F0004B895C890E94214BC550DE4F68837983DD
:103400008A839B83CB5FD14069837A838B839C8340
:103410002D8D3E8D4F8D58A1CF55DD4F288339839B
:103420004A835B83C15AD240CF50DE4F6881798195
:103430008A819B81C15FD1400E94144D2D893E89B4
:103440004F89588D0E94214BC150DE4F688379838C
:103450008A839B83CF5FD1406D837E838F839887E0
:10346000F801ED59F24DA080B180C280D3800F5396
:10347000184DD8016D907D908D909C90CF54DD4F6C
:10348000688179818A819B81C15BD240A6019501C7
:103490000E94144D7B018C01C755DD4F68817981F5
:1034A0008A819B81C95AD240A40193010E94144D84
:1034B0009B01AC01C801B7010E94214B9B01AC01EB
:1034C000CF50DE4F688179818A819B81C15FD14075
:1034D0000E94144D9B01AC01CB55DD4F6881798171
:1034E0008A819B81C55AD2400E94214B69877A8785
:1034F0008B879C87C355DD4F688179818A819B8149
:10350000CD5AD240A60195010E94144D7B018C0139
:10351000CF54DD4F688179818A819B81C15BD24024
:10352000A40193010E94144D9B01AC01C801B70195
:103530000E94214B9B01AC01CF50DE4F6881798105
:103540008A819B81C15FD1400E94144D9B01AC01D7
:10355000CF55DD4F688179818A819B81C15AD240E4
:103560000E94214B6D877E878F87988B440C551C5A
:10357000EBEAFAE24E0E5F1ED2018D919C918F5FB5
:103580009F4F09F058C0A0903221B0903321C090D5
:103590003421D09035216090362170903721809071
:1035A000382190903921CF54DD4F688179818A810B
:1035B0009B81C15BD240A60195010E94144D7B0105
:1035C0008C01C755DD4F688179818A819B81C95AF9
:1035D000D240A40193010E94144D9B01AC01C8018B
:1035E000B7010E94214B69877A878B879C87C355D7
:1035F000DD4F688179818A819B81CD5AD240A601B5
:1036000095010E94144D7B018C01CF54DD4F6881E0
:1036100079818A819B81C15BD240A40193010E9480
:10362000144D9B01AC01C801B7010E94214B6D876D
:103630007E878F87988B80E090E0A0E8BFE3CF5132
:10364000DF4F88839983AA83BB83C15ED04020E08B
:1036500030E040E050E0CB51DF4F288339834A838C
:103660005B83C55ED040CF50DE4FE880F9800A8191
:103670001B81C15FD140C751DF4FE882F9820A83C5
:103680001B83C95ED040C351DF4F288339834A83EF
:103690005B83CD5ED040CF50DF4F288339834A8390
:1036A0005B83C15FD040CB50DF4F88839983AA836F
:1036B000BB83C55FD040C750DF4F288339834A831F
:1036C0005B83C95FD040C350DF4FE882F9820A8331
:1036D0001B83CD5FD040CF5FDE4F288339834A8381
:1036E0005B83C150D140CB5FDE4F288339834A834F
:1036F0005B83C550D140C75FDE4F88839983AA831F
:10370000BB83C950D140C35FDE4F288339834A83CE
:103710005B83CD50D140CF5EDE4F288339834A830F
:103720005B83C151D140CB5EDE4F288339834A830E
:103730005B83C551D140C75EDE4F288339834A83FE
:103740005B83C951D140C35EDE4F88839983AA83CE
:10375000BB83CD51D140CF5DDE4F88839983AA834F
:10376000BB83C152D140CB5DDE4F288339834A836E
:103770005B83C552D140C75DDE4F288339834A83BE
:103780005B83C952D140C35DDE4F288339834A83AE
:103790005B83CD52D140CF5CDE4F288339834A838F
:1037A0005B83C153D140CB5CDE4F88839983AA836E
:1037B000BB83C553D140C75CDE4F288339834A831E
:1037C0005B83C953D140C35CDE4F288339834A836E
:1037D0005B83CD53D140CF5BDE4FE882F9820A8311
:1037E0001B83C154D140CB5BDE4F288339834A838E
:1037F0005B83C554D140C75BDE4F88839983AA831E
:10380000BB83C954D140C35BDE4F288339834A83CD
:103810005B83CD54D140CF5ADE4F288339834A830E
:103820005B83C155D140CB5ADE4FE882F9820A83CF
:103830001B83C555D140C75ADE4F288339834A833D
:103840005B83C955D140C35ADE4F88839983AA83CD
:10385000BB83CD55D14080E4C55DDC4FA881B981E3
:10386000CB52D3401D928A95E9F76624772450C045
:10387000F10161917191819191911F01D6012D9179
:103880003D914D915C910E94144D9B01AC01C8018A
:10389000B7010E94214B7B018C010894A11CB11C33
:1038A000E0E1F0E0CE0EDF1EF4E0AF16B10401F768
:1038B000D2016D937D938D939D932D010894811C6E
:1038C000911CB4E08B169104C9F0F201E080F18004
:1038D00002811381C95DDC4F28803980C752D340F3
:1038E0006401CC0CDD1CCC0CDD1C21E230E02C0F83
:1038F0003D1FC20ED31EAA24BB24BACF0894611C5C
:10390000711C34E06316710419F4442455248DC0ED
:10391000C301B4E0880F991FBA95E1F7A1E64A2EDA
:10392000A1E05A2E4C0E5D1E480E591E8824992483
:1039300041EE50E04C0F5D1F480F591FC95DDC4F31
:1039400048835983C752D340C0CFD3016D917D9135
:103950008D919C91F10120813181428153810E949E
:10396000214BD3016D937D938D939C9313977B0192
:103970008C01CB5DDC4FE881F981C552D340CB503F
:10398000DE4FE883F983C55FD1406401CC0CDD1CB8
:10399000CC0CDD1C21E231E02C0F3D1FC20ED31EEA
:1039A000AA24BB24CB50DE4FA881B981C55FD1408A
:1039B0006D917D918D919D91CB50DE4FA883B98300
:1039C000C55FD140F60120813181428153810E943F
:1039D000144D9B01AC01C801B7010E94214B7B0132
:1039E0008C010894A11CB11C20E130E0C20ED31E52
:1039F00034E0A316B104B1F6D3016D937D938D939A
:103A00009D933D010894811C911CE4E0F0E02E0E92
:103A10003F1EF4E08F16910409F097CF0894411CE3
:103A2000511C04E04016510419F1C201E4E0880F72
:103A3000991FEA95E1F771EA672E712C6C0E7D1ED5
:103A4000680E791E61E6262E312C2C0E3D1E280EA6
:103A5000391E8824992421E631E02C0F3D1F280FC0
:103A6000391FCB5DDC4F28833983C552D3406DCFDE
:103A70008091652190916621892B09F45AC5609146
:103A80001421709115218091162190911721C55014
:103A9000DE4F288139814A815B81CB5FD1400E9412
:103AA000204BC356DD4F688379838A839B83CD592E
:103AB000D240609118217091192180911A21909122
:103AC0001B21C150DE4F288139814A815B81CF5F44
:103AD000D1400E94204BC756DD4F688379838A838B
:103AE0009B83C959D240C356DD4F688179818A8151
:103AF0009B81CD59D2409B01AC010E94144D7B01AA
:103B00008C01C756DD4F688179818A819B81C959B3
:103B1000D2409B01AC010E94144D9B01AC01C80135
:103B2000B7010E94214B0E94814D20E030E040E02F
:103B30005FE30E94854B88230CF0F7C4CF55DF4F1D
:103B400088819981AA81BB81C15AD040CB56DD4F73
:103B500088839983AA83BB83C559D240BC01CD0118
:103B60002AE939E949E95EE30E94214BCB53DD4F55
:103B7000688379838A839B83C55CD240CB55DF4FB2
:103B8000688079808A809B80C55AD040C401B30187
:103B900020E030E040E050E00E94214B1B012C016E
:103BA000CF54DF4FE880F9800A811B81C15BD04090
:103BB000CF56DD4FE882F9820A831B83C159D24078
:103BC000C801B70120E030E040E050E00E94214B06
:103BD000C753DD4F688379838A839B83C95CD24056
:103BE000CB54DF4F088119812A813B81C55BD040CE
:103BF000C357DD4F088319832A833B83CD58D240B6
:103C0000C901B8012AE939E949E95EE30E94214B7B
:103C10005B016C01CB53DD4F688179818A819B8187
:103C2000C55CD240A60195010E94144D7B018C0118
:103C3000C201B101C753DD4F288139814A815B81BF
:103C4000C95CD2400E94144D9B01AC01C801B70170
:103C50000E94204B7B018C0120E030E040E050E0EE
:103C60000E94854B882309F051C0BE016F557F4FDC
:103C7000AE014F5D5F4F00E010E07E010894E11C53
:103C8000F11C21E130E02C0F3D1F200F311FF70107
:103C9000E00FF11F80819181A281B381F9018083BE
:103CA0009183A283B383FB0180819181A281B3813F
:103CB000FA0180839183A283B383FB018481958180
:103CC000A681B781FA0184839583A683B783FB011C
:103CD00080859185A285B385FA0180879187A28727
:103CE000B387FB0184859585A685B785FA0184870E
:103CF0009587A687B7870C5F1F4F605F7F4F405F38
:103D00005F4F0031110509F0BCCF13C4C601B501E6
:103D1000A80197010E948C4BC353DD4F68837983C0
:103D20008A839B83CD5CD240C201B1019058A80127
:103D300097010E948C4BCF52DD4F688379838A8331
:103D40009B83C15DD240C753DD4F688179818A81F1
:103D50009B81C95CD2409058A80197010E948C4B6E
:103D60001B012C01CB53DD4F688179818A819B81B6
:103D7000C55CD240A80197010E948C4BCB52DD4F0D
:103D8000688379838A839B83C55DD240CB56DD4FA0
:103D9000688179818A819B81C559D240C353DD4FA7
:103DA000288139814A815B81CD5CD2400E94144DCB
:103DB0007B018C01C401B301A20191010E94144D49
:103DC0009B01AC01C801B7010E94214BC757DD4FD1
:103DD000688379838A839B83C958D240CB56DD4F51
:103DE000688179818A819B81C559D240CF52DD4F4C
:103DF000288139814A815B81C15DD2400E94144D86
:103E00007B018C01C401B301CB52DD4F2881398184
:103E10004A815B81C55DD2400E94144D9B01AC017B
:103E2000C801B7010E94214BCB57DD4F68837983CE
:103E30008A839B83C558D240CF56DD4F68817981F4
:103E40008A819B81C159D240C353DD4F288139817A
:103E50004A815B81CD5CD2400E94144D7B018C0174
:103E6000C357DD4F688179818A819B81CD58D240CB
:103E7000A20191010E94144D9B01AC01C801B70140
:103E80000E94214BCF57DD4F688379838A839B83C0
:103E9000C158D240CF56DD4F688179818A819B819C
:103EA000C159D240CF52DD4F288139814A815B818F
:103EB000C15DD2400E94144D7B018C01C357DD4F80
:103EC000688179818A819B81CD58D240CB52DD4F68
:103ED000288139814A815B81C55DD2400E94144DA1
:103EE0009B01AC01C801B7010E94214BC358DD4FB3
:103EF000688379838A839B83CD57D240CF53DF4F2A
:103F0000A880B980CA80DB80C15CD040CB53DF4F32
:103F1000688079808A809B80C55CD040C601B501ED
:103F2000C353DD4F288139814A815B81CD5CD2400A
:103F30000E94144D7B018C01C401B301A2019101C7
:103F40000E94144D9B01AC01C801B7010E94214B96
:103F5000C758DD4F688379838A839B83C957D240D2
:103F6000C601B501CF52DD4F288139814A815B817D
:103F7000C15DD2400E94144D7B018C01C401B3018C
:103F8000CB52DD4F288139814A815B81C55DD240AA
:103F90000E94144D9B01AC01C801B7010E94214B46
:103FA000CB58DD4F688379838A839B83C557D24082
:103FB000CF52DF4FA880B980CA80DB80C15DD0407E
:103FC000CB52DF4F688079808A809B80C55DD0406E
:103FD000C601B501C353DD4F288139814A815B8118
:103FE000CD5CD2400E94144D7B018C01C401B30111
:103FF000A20191010E94144D9B01AC01C801B701BF
:104000000E94214BCF58DD4F688379838A839B833D
:10401000C157D240C601B501CF52DD4F2881398149
:104020004A815B81C15DD2400E94144D7B018C01AD
:10403000C401B301CB52DD4F288139814A815B81B4
:10404000C55DD2400E94144D9B01AC01C801B7016F
:104050000E94214BC359DD4F688379838A839B83F8
:10406000CD56D240E984FA840B851C85C759DD4FB3
:10407000E882F9820A831B83C956D2400D851E85CA
:104080002F853889CB59DD4F088319832A833B83D9
:10409000C556D240C757DD4F288139814A815B819F
:1040A000C958D240CF55DE4F288339834A835B837A
:1040B000C15AD140CB57DD4F88819981AA81BB81FC
:1040C000C558D240CB55DE4F88839983AA83BB83E2
:1040D000C55AD14080E090E0A0E0B0E0C755DE4F87
:1040E00088839983AA83BB83C95AD140C355DE4FC5
:1040F00088839983AA83BB83CD5AD140CF57DD4FA4
:10410000E880F9800A811B81C158D240CF54DE4F2C
:10411000E882F9820A831B83C15BD140C358DD4F1B
:10412000088119812A813B81CD57D240CB54DE4F83
:10413000088319832A833B83C55BD140C754DE4F74
:1041400088839983AA83BB83C95BD140C354DE4F64
:1041500088839983AA83BB83CD5BD140C758DD4F49
:10416000288139814A815B81C957D240CF53DE4FC4
:10417000288339834A835B83C15CD140CB58DD4FB0
:10418000E880F9800A811B81C557D240CB53DE4FAE
:10419000E882F9820A831B83C55CD140C753DE4F96
:1041A00088839983AA83BB83C95CD140C353DE4F04
:1041B00088839983AA83BB83CD5CD140CF58DD4FE0
:1041C000088119812A813B81C157D240CF52DE4FED
:1041D000088319832A833B83C15DD140C359DD4FD6
:1041E000288139814A815B81CD56D240CB52DE4F46
:1041F000288339834A835B83C55DD140C752DE4F34
:1042000088839983AA83BB83C95DD140C352DE4FA3
:1042100088839983AA83BB83CD5DD14044245524F0
:1042200061C1D4012C9111963C91119712964C9139
:10423000129713965C91C901DA01F1018083918391
:10424000A283B3837C018D01CD5DDC4F2881398150
:10425000C352D340C950DE4F28833983C75FD14052
:104260006301CC0CDD1CCC0CDD1C41EA50E04C0F92
:104270005D1FC40ED51EAA24BB24C950DE4FA881E1
:10428000B981C75FD1406D917D918D919D91C9504C
:10429000DE4FA883B983C75FD140F6012081318109
:1042A000428153810E94144D9B01AC01C801B701AA
:1042B0000E94204B7B018C010894A11CB11C20E1C1
:1042C00030E0C20ED31E34E0A316B104B1F6D10122
:1042D0006D937D938D939D931D010894611C711CBA
:1042E000E4E0F0E08E0E9F1EF4E06F16710409F01A
:1042F00098CF0894411C511C04E04016510409F069
:10430000F1C0C757DD4F688179818A819B81C95887
:10431000D240C356DD4F288139814A815B81CD5916
:10432000D2400E94144D7B018C01CB57DD4F688138
:1043300079818A819B81C558D240C756DD4F28813B
:1043400039814A815B81C959D2400E94144D9B0139
:10435000AC01C801B7010E94214B9B01AC01C550C3
:10436000DE4F688179818A819B81CB5FD1400E9439
:10437000214B698B7A8B8B8B9C8BCF57DD4F688160
:1043800079818A819B81C158D240C356DD4F2881F3
:1043900039814A815B81CD59D2400E94144D7B0105
:1043A0008C01C358DD4F688179818A819B81CD570B
:1043B000D240C756DD4F288139814A815B81C95976
:1043C000D2400E94144D9B01AC01C801B7010E946C
:1043D000214B9B01AC01C150DE4F688179818A81FC
:1043E0009B81CF5FD1400E94214B6D8B7E8B8F8B49
:1043F000988FC758DD4F688179818A819B81C95721
:10440000D240C356DD4F288139814A815B81CD5925
:10441000D2400E94144D7B018C01CB58DD4F688146
:1044200079818A819B81C557D240C756DD4F28814B
:1044300039814A815B81C959D2400E94144D9B0148
:10444000AC01C801B7010E94214B9B01AC01C759C7
:10445000DD4F688179818A819B81C956D2400E9453
:10446000214B698F7A8F8B8F9C8FCF58DD4F68815E
:1044700079818A819B81C157D240C356DD4F288103
:1044800039814A815B81CD59D2400E94144D7B0114
:104490008C01C359DD4F688179818A819B81CD561A
:1044A000D240C756DD4F288139814A815B81C95985
:1044B000D2400E94144D9B01AC01C801B7010E947B
:1044C000214B9B01AC01CB59DD4F688179818A81F9
:1044D0009B81C556D2400E94214B6D8F7E8F8F8F5E
:1044E00098A327C0C20144E0880F991F4A95E1F7BD
:1044F00031EA832E912C8C0E9D1E880E991E21E28E
:10450000222E312C2C0E3D1E280E391E66247724B7
:1045100021EA31E02C0F3D1F280F391FCD5DDC4F04
:1045200028833983C352D3407CCE109265211092E8
:10453000662140916B2150916C21C151DE4F48831F
:104540005983CF5ED140FA01EE0FFF1FE555F54DBF
:1045500000811181CB54DD4F688179818A819B81F3
:10456000C55BD24020E030E040E050E00E94104DBA
:10457000181614F00C94312CB801882777FD80951B
:10458000982F0E94274C20E030E040E85FEB0E942B
:10459000854B882311F40C94882CC151DE4FE8819F
:1045A000F981CF5ED140EE0FFF1FEE0FFF1FDF013D
:1045B000A75CB94DED90FD900D911C91CF59DD4F49
:1045C000E882F9820A831B83C156D240E958F94D2B
:1045D0000081118122813381C551DE4F0883198307
:1045E0002A833B83CB5ED140C753DF4F288139817B
:1045F0004A815B81C95CD040C35ADD4F288339832F
:104600004A835B83CD55D240CF54DD4F6881798199
:104610008A819B81C15BD2400E94144DC752DD4FFD
:10462000688379838A839B83C95DD240C752DF4FF9
:1046300088819981AA81BB81C95DD040C75ADD4F6D
:1046400088839983AA83BB83C955D240C355DD4F64
:10465000688179818A819B81CD5AD240C75ADD4FCA
:10466000288139814A815B81C955D2400E94144D0D
:104670009B01AC01C752DD4F688179818A819B81A2
:10468000C95DD2400E94214B3B014C01C353DF4F17
:10469000E880F9800A811B81CD5CD040CB5ADD4F88
:1046A000E882F9820A831B83C555D240CF54DD4F7F
:1046B000688179818A819B81C15BD240A801970181
:1046C0000E94144DC352DD4F688379838A839B8394
:1046D000CD5DD240C352DF4F288039804A805B8055
:1046E000CD5DD040C355DD4F688179818A819B8142
:1046F000CD5AD240A20191010E94144DCF51DD4FFD
:10470000688379838A839B83C15ED240C352DD4F25
:10471000688179818A819B81CD5DD240CF51DD4F07
:10472000288139814A815B81C15ED2400E94214B40
:104730005B016C01CF54DD4F688179818A819B8157
:10474000C15BD240A40193010E94144D7B018C01F6
:10475000C355DD4F688179818A819B81CD5AD240D2
:10476000A60195010E94144D9B01AC01C801B7013F
:104770000E94214B2DEC3CEC4CEC5DE30E94214B64
:10478000CB51DD4F688379838A839B83C55ED2409A
:10479000C755DD4F688179818A819B81C95AD24092
:1047A000A40193010E94144D7B018C01CF54DD4F75
:1047B000688179818A819B81C15BD240A601950184
:1047C0000E94144D9B01AC01C801B7010E94214B0E
:1047D00020E030E040E050E00E94214BC751DD4F27
:1047E000688379838A839B83C95ED240C755DD4F36
:1047F000688179818A819B81C95AD240C35ADD4F31
:10480000288139814A815B81CD55D2400E94144D67
:10481000C351DD4F688379838A839B83CD5ED24009
:10482000CF54DD4F688179818A819B81C15BD24001
:10483000C75ADD4F288139814A815B81C955D240F1
:104840000E94144DCF50DD4F688379838A839B8308
:10485000C15FD240C351DD4F688179818A819B81DC
:10486000CD5ED240CF50DD4F288139814A815B81B6
:10487000C15FD2400E94214B3B014C01CF54DD4F20
:10488000688179818A819B81C15BD240A2019101BB
:104890000E94144DCB50DD4F688379838A839B83BC
:1048A000C55FD240C755DD4F688179818A819B8180
:1048B000C95AD240CB5ADD4F288139814A815B8168
:1048C000C555D2400E94144DCB50DD4F288139810F
:1048D0004A815B81C55FD2400E94214B5B016C0124
:1048E000CF54DD4F688179818A819B81C15BD24041
:1048F000A40193010E94144D7B018C01C355DD4F2F
:10490000688179818A819B81CD5AD240A601950127
:104910000E94144D9B01AC01C801B7010E94214BBC
:1049200020E030E040E050E00E94214B1B012C01D0
:10493000C755DD4F688179818A819B81C95AD240F0
:10494000A40193010E94144D7B018C01CF54DD4FD3
:10495000688179818A819B81C15BD240A6019501E2
:104960000E94144D9B01AC01C801B7010E94214B6C
:104970002DEC3CEC4CEC5DE30E94214B5B016C01A7
:10498000CB51DD4F688179818A819B81C55ED240A0
:10499000A60195010E94144D7B018C01C751DD4F8A
:1049A000688179818A819B81C95ED240A20191018F
:1049B0000E94144D9B01AC01C801B7010E94204B1D
:1049C0007B018C0120E030E040E050E00E94854B0C
:1049D000882309F051C0BE016F557F4FAE014F5D76
:1049E0005F4F00E010E07E010894E11CF11C21E122
:1049F00030E02C0F3D1F200F311FF701E00FF11F9A
:104A000080819181A281B381F90180839183A28306
:104A1000B383FB0180819181A281B381FA018083FC
:104A20009183A283B383FB0184819581A681B781A1
:104A3000FA0184839583A683B783FB0180859185E2
:104A4000A285B385FA0180879187A287B387FB018E
:104A500084859585A685B785FA0184879587A6877D
:104A6000B7870C5F1F4F605F7F4F405F5F4F003124
:104A7000110509F0BCCF4CC7C601B501A8019701CB
:104A80000E948C4BC750DD4F688379838A839B8358
:104A9000C95FD240C751DD4F688179818A819B818E
:104AA000C95ED2409058A80197010E948C4BC35018
:104AB000DD4F688379838A839B83CD5FD240C201B7
:104AC000B1019058A80197010E948C4B1B012C0149
:104AD000CB51DD4F688179818A819B81C55ED2404F
:104AE000A80197010E948C4BCF5FDC4F68837983CC
:104AF0008A839B83C150D340C755DF4FA880B980BC
:104B0000CA80DB80C95AD040C355DF4F68807980A6
:104B10008A809B80CD5AD040C601B501CF54DD4F6D
:104B2000288139814A815B81C15BD2400E94144D4A
:104B30007B018C01C401B301C355DD4F288139814C
:104B40004A815B81CD5AD2400E94144D9B01AC0139
:104B5000C801B7010E94214BCB5FDC4F688379838A
:104B60008A839B83C550D340C601B501C755DD4F2D
:104B7000288139814A815B81C95AD2400E94144DF3
:104B80007B018C01C401B301CF54DD4F28813981F1
:104B90004A815B81C15BD2400E94144D9B01AC01F4
:104BA000C801B7010E94214BC75FDC4F688379833E
:104BB0008A839B83C950D340C754DF4FA880B980F4
:104BC000CA80DB80C95BD040C354DF4F68807980E6
:104BD0008A809B80CD5BD040C601B501CF54DD4FAC
:104BE000288139814A815B81C15BD2400E94144D8A
:104BF0007B018C01C401B301C355DD4F288139818C
:104C00004A815B81CD5AD2400E94144D9B01AC0178
:104C1000C801B7010E94214BC35FDC4F68837983D1
:104C20008A839B83CD50D340C601B501C755DD4F64
:104C3000288139814A815B81C95AD2400E94144D32
:104C40007B018C01C401B301CF54DD4F2881398130
:104C50004A815B81C15BD2400E94144D9B01AC0133
:104C6000C801B7010E94214B5B016C01CB5ADD4F9B
:104C7000688179818A819B81C555D240C355DD4FBA
:104C8000288139814A815B81CD5AD2400E94144DDE
:104C90009B01AC01C752DD4F688179818A819B817C
:104CA000C95DD2400E94214B3B014C01C351DD4FF5
:104CB000688179818A819B81CD5ED240C352DD4F6C
:104CC000288139814A815B81CD5DD2400E94214B90
:104CD000CF5EDC4F688379838A839B83C151D34045
:104CE000CF50DD4F688179818A819B81C15FD2403D
:104CF000CF51DD4F288139814A815B81C15ED2402D
:104D00000E94214BCB5EDC4F688379838A839B832F
:104D1000C551D340C75ADD4F688179818A819B8113
:104D2000C955D240C755DD4F288139814A815B8101
:104D3000C95AD2400E94144DCB50DD4F2881398191
:104D40004A815B81C55FD2400E94214BC75EDC4F28
:104D5000688379838A839B83C951D340CB5FDC4FBF
:104D6000688179818A819B81C550D340C750DD4FCE
:104D7000288139814A815B81C95FD2400E94144DEC
:104D80007B018C01C75FDC4F688179818A819B81BF
:104D9000C950D340A20191010E94144D9B01AC0166
:104DA000C801B7010E94214BCF5ADD4F6883798338
:104DB0008A839B83C155D240CB5FDC4F6881798168
:104DC0008A819B81C550D340C350DD4F28813981F2
:104DD0004A815B81CD5FD2400E94144D7B018C01E2
:104DE000C75FDC4F688179818A819B81C950D3403C
:104DF000CF5FDC4F288139814A815B81C150D3402C
:104E00000E94144D9B01AC01C801B7010E94214BC7
:104E1000C35BDD4F688379838A839B83CD54D24003
:104E2000C35FDC4F688179818A819B81CD50D340FB
:104E3000C750DD4F288139814A815B81C95FD240EB
:104E40000E94144D7B018C01C601B501A2019101A4
:104E50000E94144D9B01AC01C801B7010E94214B77
:104E6000C75BDD4F688379838A839B83C954D240B3
:104E7000C35FDC4F688179818A819B81CD50D340AB
:104E8000C350DD4F288139814A815B81CD5FD2409B
:104E90000E94144D7B018C01C601B501CF5FDC4F30
:104EA000288139814A815B81C150D3400E94144DD1
:104EB0009B01AC01C801B7010E94214BCB5BDD4FC8
:104EC000688379838A839B83C554D240C401B3012C
:104ED000C750DD4F288139814A815B81C95FD2404B
:104EE0000E94144D7B018C01CF5EDC4F688179817B
:104EF0008A819B81C151D340A20191010E94144D2E
:104F00009B01AC01C801B7010E94214BCF5BDD4F73
:104F1000688379838A839B83C154D240C401B301DF
:104F2000C350DD4F288139814A815B81CD5FD240FA
:104F30000E94144D7B018C01CF5EDC4F688179812A
:104F40008A819B81C151D340CF5FDC4F2881398159
:104F50004A815B81C150D3400E94144D9B01AC013A
:104F6000C801B7010E94214BC35CDD4F6883798380
:104F70008A839B83CD53D240CB5EDC4F688179819D
:104F80008A819B81C551D340C750DD4F288139812B
:104F90004A815B81C95FD2400E94144D7B018C0124
:104FA000C75EDC4F688179818A819B81C951D3407A
:104FB000A20191010E94144D9B01AC01C801B701EF
:104FC0000E94214BC75CDD4F688379838A839B8372
:104FD000C953D240CB5EDC4F688179818A819B8145
:104FE000C551D340C350DD4F288139814A815B814F
:104FF000CD5FD2400E94144D7B018C01C75EDC4F17
:10500000688179818A819B81C951D340CF5FDC4F10
:10501000288139814A815B81C150D3400E94144D5F
:105020009B01AC01C801B7010E94214BCB5CDD4F55
:10503000688379838A839B83C553D240E984FA8449
:105040000B851C85C951DE4FE882F9820A831B83D8
:10505000C75ED1400D851E852F853889CD51DE4F25
:10506000088319832A833B83C35ED140CF59DD4F28
:10507000688179818A819B81C156D240C551DE4FBA
:10508000288139814A815B81CB5ED1400E948C4B63
:105090005B016C01CF54DD4F688179818A819B81EE
:1050A000C15BD240C951DE4F288139814A815B8181
:1050B000C75ED1400E94144D7B018C01C355DD4F6A
:1050C000688179818A819B81CD5AD240CD51DE4F52
:1050D000288139814A815B81C35ED1400E94144D91
:1050E0009B01AC01C801B7010E94214B9B01AC019F
:1050F000C601B5010E94204BCF5CDD4F68837983E8
:105100008A839B83C153D240C755DD4F6881798123
:105110008A819B81C95AD240C951DE4F2881398189
:105120004A815B81C75ED1400E94144D7B018C0196
:10513000CF54DD4F688179818A819B81C15BD240E8
:10514000CD51DE4F288139814A815B81C35ED140D8
:105150000E94144D9B01AC01C801B7010E94214B74
:105160009B01AC0160E070E080E090E00E94204B89
:10517000C35DDD4F688379838A839B83CD52D240A0
:105180000F2EF0E0AF2EF0E0BF2EF0E0CF2EF0E0DB
:10519000DF2EF02DCF55DE4FA882B982CA82DB8286
:1051A000C15AD140CB55DE4FA882B982CA82DB8278
:1051B000C55AD140CF5ADD4F688179818A819B8160
:1051C000C155D240CF54DD4F288139814A815B815E
:1051D000C15BD2400E94144D7B018C01C35BDD4F4B
:1051E000688179818A819B81CD54D240C755DD4F3A
:1051F000288139814A815B81C95AD2400E94144D6D
:105200009B01AC01C801B7010E94214BC755DE4F7D
:10521000688379838A839B83C95AD140CF5ADD4FF3
:10522000688179818A819B81C155D240C355DD4F08
:10523000288139814A815B81CD5AD2400E94144D28
:105240007B018C01C35BDD4F688179818A819B8101
:10525000CD54D240CF54DD4F288139814A815B81C2
:10526000C15BD2400E94144D9B01AC01C801B70143
:105270000E94214BC355DE4F688379838A839B83C9
:10528000CD5AD140CF54DE4FA882B982CA82DB8288
:10529000C15BD140CB54DE4FA882B982CA82DB8287
:1052A000C55BD140C75BDD4F688179818A819B8175
:1052B000C954D240CF54DD4F288139814A815B8166
:1052C000C15BD2400E94144D7B018C01CB5BDD4F52
:1052D000688179818A819B81C554D240C755DD4F51
:1052E000288139814A815B81C95AD2400E94144D7C
:1052F0009B01AC01C801B7010E94214BC754DE4F8E
:10530000688379838A839B83C95BD140C75BDD4F08
:10531000688179818A819B81C954D240C355DD4F10
:10532000288139814A815B81CD5AD2400E94144D37
:105330007B018C01CB5BDD4F688179818A819B8108
:10534000C554D240CF54DD4F288139814A815B81D9
:10535000C15BD2400E94144D9B01AC01C801B70152
:105360000E94214BC354DE4F688379838A839B83D9
:10537000CD5BD140CF53DE4FA882B982CA82DB8297
:10538000C15CD140CB53DE4FA882B982CA82DB8296
:10539000C55CD140CF5BDD4F688179818A819B817B
:1053A000C154D240CF54DD4F288139814A815B817D
:1053B000C15BD2400E94144D7B018C01C35CDD4F68
:1053C000688179818A819B81CD53D240C755DD4F59
:1053D000288139814A815B81C95AD2400E94144D8B
:1053E0009B01AC01C801B7010E94214BC753DE4F9E
:1053F000688379838A839B83C95CD140CF5BDD4F0F
:10540000688179818A819B81C154D240C355DD4F27
:10541000288139814A815B81CD5AD2400E94144D46
:105420007B018C01C35CDD4F688179818A819B811E
:10543000CD53D240CF54DD4F288139814A815B81E1
:10544000C15BD2400E94144D9B01AC01C801B70161
:105450000E94214BC353DE4F688379838A839B83E9
:10546000CD5CD140CF52DE4FA882B982CA82DB82A6
:10547000C15DD140CB52DE4FA882B982CA82DB82A5
:10548000C55DD140C75CDD4F688179818A819B8190
:10549000C953D240CF54DD4F288139814A815B8185
:1054A000C15BD2400E94144D7B018C01CB5CDD4F6F
:1054B000688179818A819B81C553D240C755DD4F70
:1054C000288139814A815B81C95AD2400E94144D9A
:1054D0009B01AC01C801B7010E94214BC752DE4FAE
:1054E000688379838A839B83C95DD140C75CDD4F24
:1054F000688179818A819B81C953D240C355DD4F30
:10550000288139814A815B81CD5AD2400E94144D55
:105510007B018C01CB5CDD4F688179818A819B8125
:10552000C553D240CF54DD4F288139814A815B81F8
:10553000C15BD2400E94144D9B01AC01C801B70170
:105540000E94214BC352DE4F688379838A839B83F9
:10555000CD5DD1404424552461C1D4012C911196D4
:105560003C91119712964C91129713965C91C90138
:10557000DA01F10180839183A283B3837C018D01E1
:10558000CF5DDC4F28813981C152D340C750DE4FF7
:1055900028833983C95FD1406301CC0CDD1CCC0C5E
:1055A000DD1C41EA50E04C0F5D1FC40ED51EAA243D
:1055B000BB24C750DE4FA881B981C95FD1406D912E
:1055C0007D918D919D91C750DE4FA883B983C95FAE
:1055D000D140F60120813181428153810E94144DD6
:1055E0009B01AC01C801B7010E94204B7B018C01DB
:1055F0000894A11CB11C20E130E0C20ED31E34E09F
:10560000A316B104B1F6D1016D937D938D939D9353
:105610001D010894611C711CE4E0F0E08E0E9F1ED9
:10562000F4E06F16710409F098CF0894411C511CE6
:1056300004E04016510409F0F1C0CF5ADD4F6881F3
:1056400079818A819B81C155D240CF5CDD4F288111
:1056500039814A815B81C153D2400E94144D7B0144
:105660008C01C35BDD4F688179818A819B81CD5438
:10567000D240C35DDD4F288139814A815B81CD52A3
:10568000D2400E94144D9B01AC01C801B7010E9499
:10569000214B9B01AC01C550DE4F688179818A8125
:1056A0009B81CB5FD1400E94214B698B7A8B8B8B86
:1056B0009C8BC75BDD4F688179818A819B81C9544E
:1056C000D240CF5CDD4F288139814A815B81C15353
:1056D000D2400E94144D7B018C01CB5BDD4F688171
:1056E00079818A819B81C554D240C35DDD4F288179
:1056F00039814A815B81CD52D2400E94144D9B0179
:10570000AC01C801B7010E94214B9B01AC01C15003
:10571000DE4F688179818A819B81CF5FD1400E9471
:10572000214B6D8B7E8B8F8B988FCF5BDD4F68818C
:1057300079818A819B81C154D240CF5CDD4F288121
:1057400039814A815B81C153D2400E94144D7B0153
:105750008C01C35CDD4F688179818A819B81CD5347
:10576000D240C35DDD4F288139814A815B81CD52B2
:10577000D2400E94144D9B01AC01C801B7010E94A8
:10578000214B9B01AC01C951DE4F688179818A812F
:105790009B81C75ED1400E94214B698F7A8F8B8F8E
:1057A0009C8FC75CDD4F688179818A819B81C95359
:1057B000D240CF5CDD4F288139814A815B81C15362
:1057C000D2400E94144D7B018C01CB5CDD4F68817F
:1057D00079818A819B81C553D240C35DDD4F288189
:1057E00039814A815B81CD52D2400E94144D9B0188
:1057F000AC01C801B7010E94214B9B01AC01CD5106
:10580000DE4F688179818A819B81C35ED1400E948D
:10581000214B6D8F7E8F8F8F98A37AC0C201A4E039
:10582000880F991FAA95E1F7F1EA8F2E912C8C0E23
:105830009D1E880E991EE1E22E2E312C2C0E3D1E4F
:10584000280E391E6624772421EA31E02C0F3D1FF3
:10585000280F391FCF5DDC4F28833983C152D340D5
:105860007CCE8091652190916621892B09F050C0F2
:10587000BE016F557F4FAE014F5D5F4F00E010E0FE
:105880007E010894E11CF11C21E130E02C0F3D1F4A
:10589000200F311FF701E00FF11F80819181A2815C
:1058A000B381F90180839183A283B383FB0180815B
:1058B0009181A281B381FA0180839183A283B38312
:1058C000FB0184819581A681B781FA018483958348
:1058D000A683B783FB0180859185A285B385FA01F4
:1058E00080879187A287B387FB0184859585A685EC
:1058F000B785FA0184879587A687B7870C5F1F4F06
:10590000605F7F4F405F5F4F0031110509F0BCCFF2
:10591000C988DA88EB88FC888D889E88AF88B88C27
:10592000098D1A8D2B8D3C8DCD5FDD4F088319833A
:105930002A833B83C350D2402D8D3E8D4F8D58A17D
:10594000C95FDD4F288339834A835B83C750D240C8
:105950003985C35EDC4F3883CD51D3404A85C25E62
:10596000DC4F4883CE51D3405B85C15EDC4F58830A
:10597000CF51D3408C85C05EDC4F8883C052D3406A
:10598000FD85EE857F856889A0912420B091252032
:10599000CF51DE4FA883B983C15ED14001E010E052
:1059A000C15FDD4F08831983CF50D24072C1C15F00
:1059B000DD4F88819981CF50D240C151DE4F28817F
:1059C0003981CF5ED140820F931F6AE070E00E9460
:1059D0000A4E8C01000F111F000F111FF801E25D2C
:1059E000F84D2080318042805380C201B101CD5FEB
:1059F000DD4F288139814A815B81C350D2400E94AA
:105A0000144D9B01AC01C701B6010E94214BC5504A
:105A1000DE4F688379838A839B83CB5FD140C20149
:105A2000B101C95FDD4F288139814A815B81C7504F
:105A3000D2400E94144D9B01AC01C501B4010E94EB
:105A4000214BC150DE4F688379838A839B83CF5F6C
:105A5000D140F801E958F94DC080D180E280F3804F
:105A6000C701B60120E030E040E050E00E94854BE5
:105A7000882309F087C0F801ED59F24DA080B1806C
:105A8000C280D3800F53184DD8016D907D908D90BA
:105A90009C90CF54DD4F688179818A819B81C15B65
:105AA000D240A60195010E94144D7B018C01C7557F
:105AB000DD4F688179818A819B81C95AD240A401D6
:105AC00093010E94144D9B01AC01C801B7010E94D3
:105AD000214B9B01AC01C201B1010E94144D9B01FD
