:020000040000FA
:0600000002011D02205365
:03002B000227BBEE
:030053000220C6C2
:03006B00022787E2
:10008300021EBFE5C754F84401F5C77901220000F9
:100093000080FB120086B90003020107E47921788E
:1000A30008B800028004F709D8FCE479297802B87B
:1000B30000028004F709D8FCE490028178AD790747
:1000C3008002F0A3D8FCD9FA781A90014D7A01BACC
:1000D30000028007E493A3F608DAF990092DAA82B7
:1000E300AB8390014E781079038015E493A3AC821F
:1000F300AD838A828B83F0A3AA82AB838C828D83A8
:10010300D8E9D9E77582597583BC740312012F7539
:100113008291758300740012012F75D00075813FA1
:10012300751881751902759F00020096C09FF59F8F
:10013300E473D09F22D083D082C09FE493C0E07445
:100143000193C0E0740293F59F2201FF0000B40005
:100153000028002800283075A000A000A000A000FF
:1001630000080008E001F00010001000100010006B
:100173001000100050005000500010001000D00775
:100183000000000000000F000100050030750700AB
:100193001000010081FF00000000FF550573055B9F
:1001A30005FF02020208025000A0000000E803025B
:1001B30099810100009481029D810100008409025C
:1001C300A181010000B302029D81010000850902A3
:1001D300A381010000C902029D810100008609027A
:1001E300A581010000CB02029D8101000087090265
:1001F300A781080000CC02029D810100008809024A
:10020300A9810100008909FF0100FF2002998101F2
:1002130000008E81029D81010000ED0902AB810087
:1002230000000000029F8103000019030D0B0D0B5A
:100233000D0B0D0B0D0B0D0B0D0B0D0B0D0B0D0BFB
:100243000D0B0D0B0D0BA10DB90D9B0DFFFF06093A
:1002530048454C4C4F051250002003020A0002018E
:100263000503020A185465737420424C45205065F7
:10027300726970686572616C0000B70F000002025A
:1002830002020202020202010D00000010010299A3
:10029300810100009181029D81010000600A02BF7B
:1002A300810100006307029D81010000610A02BB16
:1002B300810100001581029D81010000620A02B9DB
:1002C300810100000781029D81010000630A02B7DA
:1002D300810100009380029D81010000640A02B540
:1002E30081010000A580029D81010000650A02B31F
:1002F30081010000B780029D81010000660A02B1FE
:10030300810100008180029D81010000670A02AF24
:1003130081010000F980029D81010000680A02AD9D
:1003230081010000690A01E803053F100AFF00018B
:100333003075030201060000000000000000000009
:1003430000000000000000000000000000000000AA
:100353000000FFFF0600800CE80312013806AF031C
:100363001201381DAF031201384EAF031201388951
:10037300AF03120138B3AF03120138DDAF0312012B
:1003830038F4AF031201380BB00312013822B00363
:100393001201384BB0031201385EB00312013874F6
:1003A300B0031201389EB00312013882CB0212014E
:1003B3003886CC02120138BECC02120138E1CC02DD
:1003C300120138ECCC021201380FCD021201381E93
:1003D300CE02120138F3CE021201386ECF0212019F
:1003E30038F6CF0212013831D00212013868D00238
:1003F300120138F6D002120138CFD1021201382F80
:10040300D2021201383AD202120138B9D2021201D1
:1004130038BCD202120138BFD2021201384ED302C5
:1004230012013851D30212013881D302120138ABC1
:10043300D30212013899D4021201384BD5021201AA
:1004430038008003120138288003120138568003D4
:100453001201388D8003120138EB80031201383604
:100463008103120138818103120138C18103120112
:1004730038078203120138358203120138F28203EE
:10048300120138FC82031201380983031201383C3C
:100493008303120138088403120138148403120100
:1004A300382C8403120138368403120138067F0086
:1004B300120138147F001201382C7F0012013844D6
:1004C3007F00120138D4DC0112013880DD011201F2
:1004D30038FBDD011201381CDF0112013858DF013E
:1004E30012013801E001120138E8E0011201384C31
:1004F300E201120138A3E20112013824E3011201DF
:100503003814E40112013861E401120138E7E4010F
:1005130012013819E5011201382DE7011201386F74
:10052300E7011201388DE70112013810E8011201C9
:1005330038E4E801120138ACE901120138D7E402CA
:10054300120138AAE50212013853E602120138A655
:10055300E60212013856E702120138E2E7021201FD
:1005630038CEE802120138FDE80212013810EA021F
:1005730012013858EA021201382DEB0212013869D0
:10058300EB0212013885EB02120138D5BB031201CD
:1005930038E79503120138FD9503120138239603BA
:1005A3001201383F97031201384997031201387E2D
:1005B300980312013876990312013831FA011201B6
:1005C3003861FB0112013894FB01120138DEFB0193
:1005D300120138A5FD01120138FABD011201386478
:1005E300BE01120138C3BF01120138D3BF0112018A
:1005F3003800C00112013857C00112013800C1018F
:1006030012013807C201120138D1C2011201383177
:10061300C40112013874C40112013819C501120151
:10062300383FC5011201384DC70112013852C701C5
:1006330012013857C901120138A4C9011201381730
:10064300CA011201384ACA01120138ECCA01120167
:100653003895CB01120138CDCB01120138D0CB0133
:1006630012013818CC0112013858CC01120138AFED
:10067300CC011201387CA20312013894A2031201A7
:1006830038DCA203120138F2A20312013839A303A2
:100693001201384DA403120138DAA40312013825DC
:1006A300A503120138F9450012013805460012016D
:1006B300384046001201388546001201384547008C
:1006C300120138CB4700120138F7470012013830C6
:1006D30048001201386E4A00120138524C001201D0
:1006E30038384E001201387B4F00120138C95100CF
:1006F300120138DB52001201382654001201383639
:1007030055001201385355001201388E550012015D
:1007130038B05500120138135600120138D45A006C
:10072300120138695B00120138BA5B00120138E12B
:100733005B00120138335C00120138515C00120176
:1007430038AB5C00120138AA5D001201382E5E003E
:10075300120138BD8403120138C784031201380A19
:100763008503120138258503120138B5850312016B
:1007730038DD85031201381A8603120138518603C6
:100783001201387A8603120138EF86031201380406
:1007930087031201381987031201384A87031201AC
:1007A300385E8703120138838703120138BD87033C
:1007B300120138E987031201386C8803120138B536
:1007C3008803120138DF88031201380A89031201F2
:1007D30038B9B80312013818A90212013846A90220
:1007E30012013894AA0212013874AB021201389331
:1007F300AB0212013810AC0212013853AC021201E1
:1008030038A9AD021201386AAE02120138F1B00202
:1008130012013892B10212013888B20212013885EE
:10082300B302120138DFB4021201386AB5021201B1
:100833003855B203120138BEB20312013812B303A2
:1008430012013839B3031201386AB3031201383283
:1008530089031201389F8903120138E689031201C3
:1008630038FE8A03120138FA8B03120138DD8C0338
:100873001201389D7600120138DF7600120138B17B
:1008830077001201388A7800120138847900120146
:1008930038667A00120138CF7A00120138857B005E
:1008A300120138F97B00120138657C001201388E81
:1008B3007C00120138087D00120138A17D0012016D
:1008C30038067E001201381B7E00120138617E005B
:1008D3001201387A7E00120138DF7E00120138E2FD
:1008E3007E00120138A69C03120138CE9C0312012C
:1008F300380C9D03120138CA9D03120138319E033F
:100903001201384D9E03120138759E03120138A55A
:100913009E03120138B49E03120138319F03120162
:1009230038579F031201389CCD011201387ACF0149
:10093300120138ACD101120138E8D1011201381586
:10094300D201120138FFD2011201384AD301120138
:100953003895D301120138A7D301120138E7D30127
:100963001201381CD4011201386AD40112013899DA
:10097300D401120138BCD40112013809D501120186
:10098300388ED501120138A8D701120138E7D901F1
:1009930012013828DA01120138CADB011201380BBF
:1009A300DC011201387EDC01120138039C021201C2
:1009B30038019D021201389AA302120138BBA50225
:1009C30012013886A702120138EEA80212013895E7
:1009D3005E00120138445F00120138715F0012019A
:1009E30038B75F00120138F760001201388D6200DA
:1009F3001201380763001201382263001201389D87
:100A03006300120138F764001201385766001201BF
:100A1300385D6700120138BE6800120138D76800DC
:100A2300120138356900120138236A001201385661
:100A33006A00120138C66A00120138406B001201C5
:100A4300388A6B00120138546C00120138296D008A
:100A5300120138086E00120138936E00120138013A
:100A63006F00120138756F00120138A06F00120178
:100A7300385F7000120138C47100120138E171004F
:100A8300120138007200120138F172001201381697
:100A93007300120138407300120138BB7300120156
:100AA300381574001201387E75001201382C760057
:100AB3001201386D76001201382F8E021201387D33
:100AC3008E02120138898E02120138678F021201D9
:100AD30038988F02120138C98F02120138499002E7
:100AE300120138819002120138D39002120138109A
:100AF30091021201382D930212013853950212010B
:100B0300383E9702120138289902120138FBFF017F
:100B1300120138D19601120138019701120138DA16
:100B23009D011201385F9F011201385CA50112017A
:100B33003844A60112013881A601120138A4A60186
:100B4300120138D5A601120138DEA601120138E8D8
:100B5300A601120138D6A701120138CCA80112014F
:100B630038C28101120138C18501120138C78501DC
:100B7300120138028D011201381B9201120138163D
:100B8300FC02120138ACFC02120138C2FC02120151
:100B93003838FD02120138ACFD02120138EAFD02B9
:100BA3001201385EFE02120138D7FE02120138E04C
:100BB300FE02120138ECFE0212013801FF0212019B
:100BC300383FFF0212013855FF02120138B4FF0209
:100BD3001201389F8D03120138AC8D03120138C600
:100BE3008D03120138058E03120138438E0312015F
:100BF30038A88E03120138BD8E03120138C88E0344
:100C0300120138D58E03120138EC8E03120138FA23
:100C13008E03120138058F03120138118F0312015D
:100C230038208F031201382B8F031201384E8F03A4
:100C3300120138F58F031201380590031201381F92
:100C430090031201383C90031201385890031201AB
:100C5300387D90031201388890031201389D900368
:100C6300120138B19003120138129103120138189E
:100C730091031201381E91031201382491031201CA
:100C8300383C91031201386F910312013805800239
:100C93001201388980021201383881021201389713
:100CA3008202120138B88402120138A485021201AB
:100CB30038D98502120138FB8502120138AA86024F
:100CC300120138A28802120138CB88021201385D62
:100CD30089021201388F89021201389C890212019C
:100CE30038F38902120138198A02120138868C02FC
:100CF300120138898D02120138E18D02120138C5C3
:100D0300EB01120138CFEC01120138B6ED011201EB
:100D130038C0ED01120138E2ED01120138EEED01A8
:100D230012013887EF01120138B6EF01120138D2F0
:100D3300F0011201382BF10112013891F201120175
:100D43003870F301120138CCF30112013839F40180
:100D530012013874F401120138B3F4011201386C32
:100D6300F70112013886F70112013812F801120156
:100D73003820F80112013879F80112013887F80197
:100D8300120138FAF8011201385EF901120138A88C
:100D9300F901120138EBB5021201380DB602120146
:100DA3003833B80212013848BB0212013860BC0262
:100DB30012013813BD02120138F5BD02120138B019
:100DC300B003120138D5B00312013847B103120141
:100DD300385DDD0212013866DD021201386FDD0273
:100DE30012013846DE02120138F7DF021201382DF4
:100DF300E00212013867E0021201389DE00212019D
:100E030038D7E0021201380BE10212013837E10250
:100E130012013880E102120138BAE10212013803EB
:100E2300E2021201385BE20212013890E20212017F
:100E330038EBE20212013825E30212013876E302AD
:100E4300120138ACE302120138E6E302120138144E
:100E5300E40212013837E402120138A0BA03120186
:100E630038CCBA0312013827BB0312013831BB0354
:100E730012013841BB03120138BCD502120138D12B
:100E8300D50212013829D60212013890D602120176
:100E930038D8D6021201384ED7021201387DD70254
:100EA3001201388BD702120138EFD7021201382D05
:100EB300D80212013848D802120138E0D8021201D0
:100EC3003889D9021201380CDA0212013845DA02E4
:100ED300120138D0DA0212013827DB0212013886F8
:100EE300DB0212013898DB02120138BEDB02120169
:100EF30038C7DB0212013826DD0212013846B60379
:100F030012013825B703120138A5AA03120138EAE2
:100F1300AA0312013830AB03120138C3AC03120128
:100F230038D2B903120138EDB903120138FDB90300
:100F330012013854BA0312013858FF01120138FA6A
:100F4300EB021201381AEC021201381EED021201F3
:100F5300386AED021201388AED02120138DDED0222
:100F63001201384AEE0212013890EE02120138F4EF
:100F7300EE02120138A6F10212013827F202120121
:100F83003803B50312013833B50312013863B503CF
:100F930012013883B503120138DDB503120138ECB1
:100FA30091031201380A9403120138819403120148
:100FB30038AC940312013811950312013838F20248
:100FC3001201385DF20212013898F2021201384B15
:100FD300BB03120138EC2700120138FA2A00120170
:100FE30038BA2C00120138652D00120138092E0081
:100FF300120138A22E00120138D12E00120138AB93
:101003003300120138563400120138C6350012017C
:10101300382E3600120138E23600120138A43900A6
:10102300120138E33900120138573A00120138B679
:101033003A00120138153B00120138843B001201BB
:1010430038773C00120138BD3C00120138023D00E4
:10105300120138253D00120138A03E00120138B3B9
:101063003E00120138BC3F00120138FB3F00120161
:10107300382740001201387A40001201389B4000A3
:10108300120138DF40001201383143001201387277
:1010930043001201381D4400120138884400120134
:1010A30038C54500120138E4FF02120138FCA703DA
:1010B30012013897AA03120138DD7F00120138812B
:1010C300B70312013891B703120138ABB70312010A
:1010D30038B3B8031201389F9F0312013845A003A8
:1010E30012013861A203120138B0B303120138E2CE
:1010F300B30312013842B40312013859B403120185
:1011030038B5B403120138F2B403120138F5B4034D
:101113001201382EF7021201384DF702120138E29C
:10112300F702120138D2F8021201382FFB02120122
:10113300388FFB02120138F8FB02120138F87F00E6
:101143001201384FA50312013846A703120138B222
:10115300A703120138F9A70312013807AD031201DF
:101163003870AD031201382EAE03120138ADAE0351
:10117300120138809903120138B29903120138BA67
:101183009A03120138DF9B0312013819C1021201BD
:1011930038FFC1021201384CC2021201388FC20259
:1011A30012013804C30212013865C302120138DA8E
:1011B300C302120138B6C402120138C1C5021201BA
:1011C3003842C602120138E9C7021201387FC80249
:1011D300120138F2C8021201386EC90212013885B1
:1011E300C902120138BCCA0212013816CB0212011D
:1011F30038E4AA011201387CAF0112013850B20160
:1012030012013879B201120138A2B2011201385425
:10121300B3011201383AB50112013875B601120152
:1012230038ABBB01120138E4BB0112013828BC0101
:101233001201383ABD01120138B3BC03120138DF81
:10124300BC03E066701008A3E066700A08A3E066BA
:10125300700408A3E06622C3E7960809E796080925
:10126300E7960809E79622C3E09608A3E09608A349
:10127300E09608A3E09622C008C3E096F50808A309
:10128300E096420808A3E096420808A3E0964508C2
:101293007001D3D00822080808EAC0E0EBC0E0865A
:1012A300F0E7A4FA180986F0E7A42AFA180986F0E9
:1012B300E7A42AFA180986F0E7A42AFA1986F0E7C0
:1012C300A4FBE5F02AFA190886F0E7A42BFBE5F066
:1012D3003AFA190886F0E7A42BFBE5F03AFA181856
:1012E3000986F0E7A4C5F02BFBE43AFA1908E7C531
:1012F300F0C6A426F6E5F03BFBE43AFA1886F0E7DD
:10130300A4F6E5F00826F6E43B08F6E43A08F6D03E
:10131300E0FBD0E0FA22E4CFC0E0E4CEC0E0E4CDCD
:10132300C0E0E4CCC0E075F020C3E633F608E63352
:10133300F608E633F608E633F6181818EC33FCED36
:1013430033FDEE33FEEF33FFC3EC9709ED9709EE60
:101353009709EF97191919400FFFEC97FC09ED97BF
:10136300FD09EE97FE191906D5F0BEECF709EDF766
:1013730009EEF709EFF7191919D0E0FCD0E0FDD019
:10138300E0FED0E0FF226016080808C6C313C618A3
:10139300C613C618C613C618C613C6D5E0EA22700C
:1013A30009080808226016181818C6C333C608C6E9
:1013B30033C608C633C608C633C6D5E0EA22E627D5
:1013C300F60809E637F60809E637F60809E637F6B8
:1013D30022E026F608A3E036F608A3E036F608A3D3
:1013E300E036F622E026F008A3E036F008A3E03664
:1013F300F008A3E036F022C3E697F60809E697F66D
:101403000809E697F60809E697F622C3E096F0087E
:10141300A3E096F008A3E096F008A3E096F022E696
:1014230057F60809E657F60809E657F60809E65796
:10143300F622E056F608A3E056F608A3E056F608AF
:10144300A3E056F622E056F008A3E056F008A3E026
:1014530056F008A3E056F022E0F608A3E0F608A34E
:10146300E0F608A3E0F622E6F008A3E6F008A3E618
:10147300F008A3E6F022E0FAA3E0FBA3E0FCA3E07C
:10148300FD22EAF0A3EBF0A3ECF0A3EDF022CAC037
:10149300E0E6F0A308DAFAD0E0FA22CAC0E0E0A35B
:1014A300C582CCC582C583CDC583F0A3C582CCC517
:1014B30082C583CDC583DAE6D0E0CA22C3E498F8B7
:1014C300E499F91215008026C3E49AFAE49BFBE938
:1014D30020E7E9121500E498F8E499F922C3E498A7
:1014E300F8E499F9121500E498F8E499F9C3E49A39
:1014F300FAE49BFB22EB20E7CFE920E7E0B90010F9
:10150300BB0008E88AF084F8AAF022E4FBC8FA22B8
:10151300EB70227B10C833C8C933C9335007C39A51
:10152300C3DBF280069A50012ADBEAC833F4C8C948
:1015330033F4C9FA2275F008E4C833C8C933C93390
:10154300C99AC99B5004C92AC93BD5F0ECFBC833DF
:10155300F4C8E4C9FA22600D08C6A2E713C618C688
:1015630013C6D5E0F322600C08C6C313C618C6130E
:10157300C6D5E0F422700422600D18C6C333C60832
:10158300C633C6D5E0F41822251810AF08F5184065
:101593000215198008F51840021519D2AF22C0D0E0
:1015A300251810AF08F518500205198008F51850D2
:1015B300020519D2AFD0D0222518F58210AF08F555
:1015C30018400215198008F51840021519D2AF8585
:1015D3001983222518F582E43519F58322E473254E
:1015E30018C582C0E0E51934FFC583C0E0E518C320
:1015F300958224F810AF08858319858218800885A1
:101603008319858218D2AFCEF0A3E520F0A3780822
:10161300E608F0A3DEFAEFF0A3E58124FAF8E60882
:10162300F0A3E608F0A3E608F0A30808E608F0A391
:10163300E608F0A315811581D0E0FED0E0F815810E
:1016430015811581E8C0E0EEC0E0222518C582C0EF
:10165300E0E51934FFC583C0E0E518C3958224F99A
:1016630010AF0885831985821880088583198582C0
:1016730018D2AFCEF0A3E520F0A37808E608F0A3D4
:10168300DEFAEFF0A3E58124FBF8E608F0A3E60811
:10169300F0A30808E608F0A3E608F0A31581158176
:1016A300D0E0FED0E0F815811581E8C0E0EEC0E09F
:1016B30022851983851882E0A3FEE0A3F52078082C
:1016C300E0A3F608DFFAE0A3FFE0A3C0E0E0A3C0D5
:1016D300E0E0A3C0E0E0A3C0E0E0A3C0E010AF08F7
:1016E3008582188583198008858218858319D2AF6E
:1016F300D083D082020135851983851882E0A3FE49
:10170300E0A3F5207808E0A3F608DFFAE0A3FFE002
:10171300A3C0E0E0A3C0E0E0A3C0E0E0A3C0E0100A
:10172300AF088582188583198008858218858319F7
:10173300D2AFD083D08222C0D02518C582C0E0E5C5
:101743001934FFC583C0E0E518C3958224F310AFB5
:10175300088583198582188008858319858218D2A4
:10176300AFC8F0A3E9F0A3EAF0A3EBF0A37908E78D
:1017730009F0A3D8FAECF0A3EDF0A3EEF0A3EFF099
:10178300A3D0E0F0A3D0E0F0A3D0E0F0A3E520F0F5
:10179300A3E5F0F0A322851983851882E0C0E0A3B6
:1017A300E0F9A3E0FAA3E0FBA37808E0F608A3DFDF
:1017B300FAE0FCA3E0FDA3E0FEA3E0FFA3E0C0E0AA
:1017C300A3E0C0E0A3E0F5D0A3E0F520A3E0A3F5F8
:1017D300F010AF08858319858218800885831985E1
:1017E3008218D2AFD082D083D0E0F8D0E032740434
:1017F3008006740280027401C0E0F4041215BBD0A9
:10180300E0121491227404800474028000CCC0E0BE
:10181300EDC0E0E518C39CCCAD1950011D10AF0617
:101823008C188D1980068C188D19D2AF12149ED086
:10183300E0FDD0E0FC22D083D082E9C0E0E493A3B2
:10184300C386F0C5F095F0F908E493A386F0C5F0DC
:1018530095F0700BE493A3C3994005E9048002A3B8
:10186300E475F002A42582F582E5F03583F583D093
:10187300E0F9E493A3C0E0E493C0E022D083D082F4
:10188300ECC0E0EDC0E0E493A3FCE493A3FDED4CD6
:10189300600D1218CBEC24FFFCED34FFFD80EFE468
:1018A30093A3FCE493A3FDED4C600D12190AEC2401
:1018B300FFFCED34FFFD80EFD0E0FDD0E0FCE493CE
:1018C300A3C0E0E493C0E022C0E0C3E493960874AD
:1018D30001939618400FE4936670080874019366A9
:1018E3001870007019A3A3C3E49396087401939628
:1018F30018A3A3400DD0E0D0E0D0E00218BBA3A30F
:10190300A3A3A3A3D0E022C0E0C0F088F0E49366D1
:1019130070080874019366187000A8F0A3A3700BF5
:10192300D0F0D0E0D0E0D0E00218BBA3A3D0F0D039
:02193300E022B0
:1019380074F512164EEAFEEBFFEE2434F8EF34008D
:10194800F988088909EE2435F582EF3400F583E03B
:10195800F8EE2437F582EF3400F583E0F50AEC85DC
:101968000AF0A4FCAAF0850AF0EDA42AFDE82CF8F8
:10197800E43DF97A257B00121500EA85088285097D
:1019880083F0F8740758F97401B900028004C3336E
:10199800D9FCFAE8131313541FF8EE28F8EF3400B3
:1019A800F9E8245DF582E93400F583E05A6008EE31
:1019B8002434F582EF802CEE2434F582EF3400F5E0
:1019C80083E0C0E0EE2436F582EF3400F583E0F5DD
:1019D800F0D0E084A8F0EE28F8EF3400F9E82438D5
:1019E800F582E93400F583E0F97F040216FA74F50C
:1019F80012164EEAFEEBFFEE2434F582EF3400F5C2
:101A080083E0C0E0EE2435F582EF3400F583D0E0C2
:101A1800F08E828F83A3A3A3A3A3A3A3C082C083B2
:101A28008E828F83A3A3A3A3A3E0F8A3E0F9D083B6
:101A3800D082E0C398F508A3E099F509EE247FF574
:101A480082EF3400F583E064017069EE2480F5824A
:101A5800EF3400F583E0F8A3E0F98E828F83A3A327
:101A6800A3A3A3A3A3E0FCA3E0FD8E828F83A3A37B
:101A7800A3A3A3E0FAA3E0FBC3EA9CEB9D5010C329
:101A8800EC98ED99402EC3EA98EB995027800EC345
:101A9800EA98EB994007C3EC98ED9940177CDC7DF8
:101AA80004EEFAEFFB120A6BEE247FF582EF3400A6
:101AB800F583E4F0EE2434F8EF3400F9E8FCE9FDAE
:101AC800EE2435F582EF3400F583E0F8EE2437F59F
:101AD80082EF3400F583E0F50AE508850AF0A4F5FD
:101AE80008AAF0850AF0E509A42AF509E82508F806
:101AF800E43509F97A257B00121500EA8C828D837A
:101B0800F0F8740758F97401B900028004C333D996
:101B1800FCFAE8131313541FF8EE28F8EF3400F911
:101B2800E8245DF582E93400F583E05A6008EE2484
:101B380034F582EF802CEE2434F582EF3400F583FF
:101B4800E0C0E0EE2436F582EF3400F583E0F5F0EE
:101B5800D0E084A8F0EE28F8EF3400F9E82438F54E
:101B680082E93400F583E0F91227730219F1C08283
:101B7800C083851882851983E0F8A3E0F9C3EA9C3D
:101B8800EB9D5010C3EC98ED99401BC3EA98EB9974
:101B98005014800EC3EA98EB994007C3EC98ED996E
:101BA8004004790180027900D083D08222EAC39C64
:101BB800FAEB9DFB2274EF12164E9003A2E0640824
:101BC8006005E06407702A9061C8E060249003D043
:101BD800E0F4601DE0F875F003A4C8AAF02AF974CF
:101BE800D228FE740339FF8E828F83A3A3A3E070EB
:101BF80003021CED906060E0C0E0EE2468F582EF1F
:101C08003400F583D0E0F0750C45750D05750800B6
:101C1800750900E5D914F50AE5D95403F50E6017DE
:101C28007403650E605CE50A6010EE2467F582EFC8
:101C38003400F583E07003021CD2900540E0640193
:101C4800602AEE2482F582EF3400F583E0600478A0
:101C58000480027800850A08E508C398FA95E0FB35
:101C68001209398A088B09EA45097005120C6F8038
:101C780074EE2482F582EF3400F583E070048A0C58
:101C88008B0DE50A6012850C82850D83F50BE5D96D
:101C9800F0A3150BE50B70F6EE2482F582EF340005
:101CA800F583E0604474FC250AF50A780C1217F5F0
:101CB800AC0AA90EEEFAEFFB120B0774021215A17B
:101CC800E97026AA08AB09121161793D8E828F83CB
:101CD800A3A3A3A3E0FA7B0012080DEEFAEFFB1210
:101CE8000A83120B19790080747403650E60568597
:101CF8000A1075110078101217F5AC0CAD0DAA0872
:101D0800AB09120AE374021215A1EE2468F582EFFA
:101D18003400F583E064807004747F8001E0F50C82
:101D2800780C1217F9E50EF50C780C1217F9A90AB8
:101D3800AC08AD099003D0E0FA7B001207D1740219
:101D48001215A180139003A2E06408600BAC0CADDF
:101D58000DEEFAEFFB120B73120C7B79017F0A026E
:101D680016FA74F512164E74FC12158BEAFEEBFF88
:101D78008908A2AFE433F509C2AF806AEE2463F89C
:101D8800EF3400F97A007B00A2AFE433F50AC2AF62
:101D980088828983E0FCA3E0FDEC4D603A88828963
:101DA80083E0FAA3E0FB8A828B83E0FCA3E0FD8852
:101DB800828983ECF0A3EDF08A828B83E4F0A3F0B0
:101DC80088828983E0FCA3E0FDEC4D700A88828953
:101DD80083A3A3E4F0A3F0E50AA2E092AF12116195
:101DE8009004E3E004F0EE2463F582EF3400F58319
:101DF800E0F8A3E0F9E849603DEE2463F582EF34AA
:101E080000F583E02402FAA3E03400FBEA2402F59B
:101E18000AEB3400F50B780A1217F58A828B83E0F7
:101E2800FCA3E0F9EEFAEFFB120AA774021215A15F
:101E3800E97003021D849004E3E060639004E4E029
:101E4800F89004E3E0C398500C7402650870509051
:101E580004E5E0604A8E828F83A3A3A3A3E08518DC
:101E680082851983F0A3E4F09004E3E0F874021289
:101E780015D6E8F0A3E4F09004E3E0F89004E2E07B
:101E880028F074021215D6AC82AD838518828519A4
:101E980083AA82AB8379011207DD9004E3E4F0E5BD
:101EA80009A2E092AF74041215A10219F100000012
:101EB8008521878522C622C0E0C0D0E8C0E0E9C0FD
:101EC800E0EAC0E0EBC0E0ECC0E0EDC0E0EEC0E06E
:101ED800C008C009C00AC00BC082C083C0F0A2AF4E
:101EE800E433FEC2AF759B00906182E0A2E050121D
:101EF800E591A2E0500C7591FE7401652170031202
:101F08001BBDE0A2E55051E591A2E5504B7591DF6C
:101F18009003A2E064076005E0640870237401651B
:101F280021703579019003D0E0FA75F003A4CAA8AE
:101F3800F028FB74D22AFA74033BFB121D6A80183E
:101F4800E0640D70139003C4E004F064287002E4A8
:101F5800F07A00E0F9120C81906182E0A2E6400379
:101F6800022006E591A2E640030220067591BF9083
:101F780003A2E064057008120BA9120BB5800312C6
:101F88000BAF752100120C0FE99003A3F079001232
:101F98000C031209E17A017B009003A1E0F9120E0B
:101FA800D3907803E064427055900544E014F070D3
:101FB8004DC2AF121FBE00782AD0E0F618D0E0F666
:101FC800E59F540770057509FF800375097FC4C034
:101FD800E07829E6F50808E65509F509740B78084C
:101FE800121569D0E02508F8906270E0A2E740F881
:101FF800E8C333906272F0906270E0D2E0F09061D2
:1020080081E0A2E35009E5E9A2E3500375E9F7A3EB
:10201800E0A2E75009E591A2E7500375917FEEA28F
:10202800E092AFD0F0D083D082D00BD00AD009D0C4
:1020380008D0E0FED0E0FDD0E0FCD0E0FBD0E0FA34
:10204800D0E0F9D0E0F8D0D0D0E032C0E0C0D0C0C5
:1020580082C083906183E0A2E05009E5BFA2E0500E
:102068000375BFFEE0A2E15009E5BFA2E150037588
:10207800BFFDE0A2E25009E5BFA2E2500375BFFB35
:10208800E0A2E35009E5BFA2E3500375BFF7E0A261
:10209800E45009E5BFA2E4500375BFEFE0A2E550A4
:1020A80009E5BFA2E5500375BFDFE0A2E65009E5E8
:1020B800BFA2E6500375BFBFD083D0828088C0E03E
:1020C800C0D0E8C0E0E9C0E0EAC0E0EBC0E0ECC0A6
:1020D800E0EDC0E0C0F0E5A7A2E6500FE5A1A2E65A
:1020E800500953A7BF75A1BF12212BE5A7A2E55040
:1020F8000CE5A1A2E5500653A7DF75A1DFE5A7A26D
:10210800E15009E5A1A2E1500375A1FDE5A7A2E20E
:10211800500CE5A1A2E2500653A7FB75A1FBD0F035
:1021280002203C74F812164E7521019003A2E06457
:10213800067015120B378A828B83A3A3A3A3A3A3CC
:10214800E0FAA3E0FB120B97A2AFE433FED2AF9004
:1021580003A8E0640170187A207B009003A1E0F9DD
:10216800120F637A207B009003A1E0F9120ED99038
:102178006182E0D2E6F0900541E0602185C62280C8
:10218800169003A7E064017008E5C654F84405F505
:10219800C653BEFC121EB87401652160E4EEA2E0CD
:1021A80092AF7F010216FA008E238F24858228853C
:1021B8008327851882851983E0CEA3E0CF852882FE
:1021C800852783EBC9EAC8EDCBECCA75F010C3E8E4
:1021D80033C8E933C9EA33CAEB33CBC3EA9EF526E1
:1021E800EB9FF525B35004AB25AA26EC33CCED3391
:1021F800CDD5F0DAAE23AF242274E912164E74F866
:1022080012158B851882851983ECF0A3EDF08A08E6
:102218008B099003A2E024F7C394055006750801C2
:10222800022398120B378A0A8B0BAE0AAF0BEE4FBC
:102238007003022395AC08AD0974021215D6AA8260
:10224800AB83120BC78E828F83A3A3750CFF750D0A
:10225800FF750EFF750F00780C12143574021215F5
:10226800D67510FF7511FF7512FF751300781012DF
:102278001435780C791012125A502A780C791012E9
:1022880013FA7508017509C8750A00750B007808F6
:10229800790C12125A5052850C08850D09850E0AC0
:1022A800850F0B80507514017515C87516007517C4
:1022B8000085100885110985120A85130B7808799D
:1022C8000C1213FA7814790812125A401C75080077
:1022D800750900750A00750B01780879101213FA50
:1022E8007808790C1213C1800C75080175090075FE
:1022F8000A00750B00740978081213A2750C19F5F9
:102308000DF50EF50F7808790C1213198E828F834C
:10231800A3A3A3A3A3A3E0F8A3E0F97AD07B0312B5
:102328001500880C890DE4F50EF50F7808790C1264
:1023380013C174061215D6E0F8A3E0F97AD07B032E
:10234800121500E8FA8A0CE4F50D7808790C1212D7
:102358005A50077808790C1213FA9003A2E064081F
:10236800600AE064066005E06405702D750C0D7860
:102378000C790812125A4021750CF4750DFF750E70
:10238800FF750FFF7808790C1213C1800C750800CF
:10239800750900750A00750B00851882851983E098
:1023A800F8A3E0F5838882780812146A7408121575
:1023B800A17F100216FA74F712164E120BD9900567
:1023C8003FE064017010906245E4F0A3F053F4F329
:1023D80043FE0C5390F3120B85E5C654804449F52F
:1023E800C6E59E547F644970F8906185740FF0903B
:1023F800053DE0F47002A3E0604E90053EE0600801
:1024080014601B14602E8040750801750900900542
:102418003DE07808121578E508F45280802A75089E
:102428000175090090053DE07808121578E508F473
:102438005290801475080175090090053DE07808F0
:10244800121578E508F452A079007F020216FA7492
:10245800F712164EE9FEEAFF74016E700C7A807B63
:10246800009003A1E0F9120ED39027E4E493F460FE
:1024780008E493F91209D5800953C680E59E547F74
:1024880070FA120B8B90053FE0640170031209ED9E
:1024980090053DE0F47002A3E0604B90053EE060DB
:1024A8000814601A14602C803D75080175090090A5
:1024B800053DE07808121578E508428080287508FF
:1024C8000175090090053DE07808121578E5084285
:1024D80090801375080175090090053DE078081291
:1024E8001578E50842A0120BD9120B378A088B0918
:1024F800A808A909E8496015E5E170FCE82414F585
:1025080082E93400F583E0F46003E0F5E174016FDB
:10251800700A7A019003A1E0F9120F2D0224527477
:10252800ED12164E8A088B098C0A8D0B741312153E
:10253800D6780C12145B7808790C12125A751001AF
:102548007511C875120075130050127808790C12AD
:1025580013FA7810790812125A50168010780C79EC
:10256800081213FA7810790C12125A400479018073
:102578000279007F0C0216FA74ED12164E8A088B47
:10258800098C0A8D0B74131215D6780C12145B780B
:102598000C790812125A40117808790C1213FAAA09
:1025A80008AB09AC0AAD0B802275100075110075D7
:1025B80012007513017810790C1213FA7810790843
:1025C8001213C1AA10AB11AC12AD1380A68A828B6C
:1025D800837508FF7509FF750AFF750B00780812E7
:1025E80014487F040216FA74F512164E8C828D83F5
:1025F800780812145B8A828B83780812140EEA24F6
:1026080004F8EB3400F98C828D83A3A3A3A3E0FC28
:10261800A3E0FD88828983C3E09CF0A3E09DF08855
:10262800828983C3E09420A3E0944E40268A828B5B
:10263800837508FF7509FF750AFF750BFF78081287
:1026480013E78A828B83A3A3A3A3E02420F0A3E04B
:10265800344EF00225D574F512164EE9FE9004F7B3
:10266800E0FAA3E0FBEEC333F8E433F974C928F5C4
:1026780082748039F583E02AF508A3E03BF50978F0
:10268800081217F57A407B427C0F7D001221B07446
:10269800021215A18A088B098C0A8D0B7410780810
:1026A800121389AA08AB097F040216FA74F11216EC
:1026B8004E8A0C8B0D8C0E8D0F740F1215D6E0FA06
:1026C800A3E0FB74111215D6E0F508A3E0F509782C
:1026D800081217F5EA2401F508EB3400F509E4F5CA
:1026E8000AF50B780C7908121299750871750902A8
:1026F800780C7908121299AA0CAB0DAC0EAD0F121A
:1027080021B074021215A18B09EA450960047A0107
:1027180080027A00EC2AFCED3400FD74131215D601
:10272800E0F8A3E0F9E8FEE9FFECF8EDF97A717B4F
:1027380002121500880889098E828F83780812147E
:102748006AECF8EDF97A717B021215008A088B0998
:10275800740578081215788E828F83A3A3A3A3E546
:1027680008F0A3E509F07F080216FAC082C083E9E1
:10277800906000F0D083D08222C2AF02000022C055
:10278800E074F212173AA2AFE433FED2AFE589A2A1
:10279800E04006E589A2E150031211017589007530
:1027A8008900C2C5751A00EEF8EEA2E092AF7F016B
:1027B800021799C0E0C0D0E8C0E0E9C0E0A2AFE4E9
:1027C80033F8D2AFC2C7751A00E8F9E8A2E092AFB1
:0B27D800D0E0F9D0E0F8D0D0D0E03223
:1027E400FFFFFFFFFFFFFFFF74EE1215E274FA1202
:1027F400158B8A0A8B0B8909ECFEEDFF75080085A1
:102804000A0C850B0D780C121839000410C52A35F2
:1028140028562875289628B728D8280B292C294308
:102824002971292F2A502A702A9A2AC52AC52A9C36
:10283400297401650970158E828F83E0C394035057
:102844000B8E828F83E0900B08F0800375081802CA
:102854002AEE7402650970138E828F83E0F8A3E078
:10286400F9900B09E8F0A3E9F08003750818022A2F
:10287400EE7401650970158E828F83E0C394025053
:102884000B8E828F83E090076CF08003750818022A
:102894002AEE7401650970158E828F83E0C3940556
:1028A400500B8E828F83E090076DF08003750818BB
:1028B400022AEE7401650970158E828F83E0C39439
:1028C40002500B8E828F83E090076EF080037508B0
:1028D40018022AEE741065097027750C10750D0026
:1028E400780C1217F5EEFCEFFD7A6F7B07120E7F62
:1028F40074021215A18A0C8B0D850C82850D8380C0
:1029040003750818022AEE7401650970158E828F0A
:1029140083E0C39402500B8E828F83E090077FF094
:102924008003750818022AEE74016509700B8E8203
:102934008F83E0900B0CF08003750818022AEE7464
:102944000465097022908172780C12145B8E828F58
:1029540083780C12126A500F8E828F83121479902E
:1029640007811214858003750818022AEEE50970A0
:10297400211205A3E9701312104DE9F50C795012D8
:1029840011EBE9F50D12103B800B9008147401F063
:102994008003750818022AEE740765096003022A89
:1029A40029750E06750F00780E1217F58E828F8327
:1029B400A3AC82AD8374021215D6AA82AB83120E25
:1029C4008574021215A18A108B1185100E85110FC2
:1029D4007C007D00851882851983AA82AB838E8250
:1029E4008F83E0F9120FE1E9F50CE50CC3940A506A
:1029F4002F1205A3E97015A90C121053E9F50D79EE
:102A0400501211EBE9F50E12103B801C750D007489
:102A140015250CF5827408350DF5837401F08008D2
:102A24007508028003750818022AEE74016509709E
:102A3400158E828F83E0C39402500B8E828F83E0C5
:102A4400900780F08003750818022AEE7401650966
:102A540070158E828F83E0C3940A500B8E828F830D
:102A6400E0900B0BF08003750818807E74016509F3
:102A7400701F8E828F83E0C3940740158E828F83EC
:102A8400E0C39411500B8E828F83E0900B0DF08085
:102A9400597508188054740165097020900813E072
:102AA400F50C8E828F83E0900813F0E50C703B9058
:102AB4000813E06401703312103B802E75081880EF
:102AC40029C3E50A9427E50B9400501B7402650999
:102AD40070158E828F83E0FCA3E0FDAA0AAB0B1273
:102AE4000441E9F5088003750802A9087406121563
:102AF400A17F0A0216B474EC1215E274DA12158B73
:102B0400890D8A128B138C0A8D0B743A1215D6E038
:102B1400F50C908144C082C083851882851983ACEA
:102B240082AD83D083D082740612149E8518828568
:102B34001983AC82AD83AA12AB13A90D120FE1E97C
:102B4400FEEEC3940A4003022C99EEF912101DE91B
:102B5400FF900B08E064027004740180027400F5B5
:102B64000878081217F9AD0CEFFCEEF9AA0AAB0BC2
:102B740012108F74011215A17C147D007900741257
:102B84001215D6AA82AB83120E978A0E8B0F850E6E
:102B940008850F0974121215D6AC82AD837A1075AC
:102BA400F006EEA42424F91211E5E970437C1079AF
:102BB400FF74121215D6AA82AB83120EF7E9703095
:102BC40074221215D6AC82AD837A0475F006EEA495
:102BD4002425F91211E5E9F50874121215D6AC8210
:102BE400AD83EFA2E0E433F9AA0AAB0B1204CBE9FC
:102BF40074061215D6AC82AD837A0C74702EF91259
:102C040011E5E9707E74061215D6AA82AB83121000
:102C140011750E00E50EC394045068E50EA80E79F4
:102C240000E875F003A4C8AAF075F000A42AFA75A8
:102C3400F003E9A42AF974061215D6E58228F508EA
:102C4400E58339F509850882850983E0F8A3E0F96D
:102C5400E849602B850882850983A3A3E0F51075F4
:102C6400110078101217F5850882850983E0FCA30A
:102C7400E0FDAA0AAB0B12072374021215A1E905A1
:102C84000E8091EFA2E1500D90076BE0F9AA0AAB18
:102C94000B120729E97404650C700F900B08E064AB
:102CA400027007AA0AAB0B12108979007426121558
:102CB400A17F0C0216B474F21215E2890BEAFEEB42
:102CC400FF8C088D09750A0AE50B600C1460091461
:102CD4006044146064022D5EEEFAEFFB12102FE9DB
:102CE400F50AE50AC3940A5071E5084509606B7555
:102CF4000C06750D00780C1217F5EEFCEFFDAA0812
:102D0400AB09120E7F74021215A18A0C8B0D850C6F
:102D140082850D838044EEFAEFFB121029E9F50A4F
:102D2400E50AC3940A5033E5084509602DAA08ABA7
:102D340009A90A121023E98021EEFAEFFB121035DB
:102D4400E9F50AE50AC3940A5010E5084509600A42
:102D5400AA08AB09A90A121023E9A90A7F060216D8
:102D6400B474F21215E28A0C8B0DE9FE7F1574FF20
:102D7400650C700474FF650D702A750800E508C3BE
:102D8400940A5014EEFC7A027B00A908120FFFE9A2
:102D940060027F00050880E5EE60637A777B10129D
:102DA400091B805AAA0CAB0D1208FD8A0A8B0B85ED
:102DB4000A08850B09E508450960417C007D00E5AA
:102DC400082405FAE5093400FB850882850983A3F4
:102DD400A3A3A3E0F9120FE1E9F50AE50AC3940AF3
:102DE400500EEEFC7A027B00A90A120FFFE97F0065
:102DF400EE600BAA08AB0912107780027F14EFF97A
:102E04007F060216B474EE1215E28A0E8B0F8C0A3A
:102E14008D0B74121215D6E0F50CA3E0F50D7508B0
:102E24001574FF650E700474FF650F701E7E00EE4E
:102E3400C3940A5062AC0CAD0DAA0AAB0BEEF912A6
:102E44001005E960037508000E80E4AA0EAB0F12AA
:102E540008FD8A108B11AE10AF11EE4F60367C0066
:102E64007D00EE2405FAEF3400FB8E828F83A3A34A
:102E7400A3A3E0F9120FE1E9F509E509C3940A50A7
:102E840016AC0CAD0DAA0AAB0BA909121005E97515
:102E940008008003750814A9087F0A0216B474F7A1
:102EA4001215E2EAFEEBFF900785EEF0A3EFF09037
:102EB400076BE0FC7D007A267B00120441E9F508EB
:102EC40090076BE0F91206A57F010216B474F212A2
:102ED40015E274EC12158B8A0A8B0B850A82850B1A
:102EE40083A3A3E024FA700302333124FD700302A8
:102EF40031A7147003022FC414601024FD70030260
:102F0400314F1470030231E702339FAE0AAF0B90C6
:102F14000785E0F8A3E0F9E8496069900785E0F8DF
:102F2400A3E0F5838882E0F8A3E0F9E8496055EE70
:102F3400240CF582EF3400F583E0F50878081217C5
:102F4400F9EE240BF582EF3400F583E0F98E828FDD
:102F540083A3A3A3A3A3A3A3A3A3E0FCA3E0FDEEE5
:102F64002403FAEF3400FB900785E0F8A3E0F5832F
:102F74008882E0F8A3E0F58388821215E0740112D8
:102F840015A180398E828F83A3A3A3A3A3A3A3A394
:102F9400A312180C9007811214791204DD74021222
:102FA40015A1E9601879018E828F83A3A3A3A3A33B
:102FB400A3A3A3A3E0FAA3E0FB1204D7E902339F7F
:102FC400AE0AAF0B8E828F83A3E060030230FD8EC6
:102FD400828F83A3A3A3A3A3E0A2E040030230FD56
:102FE40090081FE0F8A3E0F9E84960030230FD7C93
:102FF4000E7D007900851882851983AA82AB83121D
:103004000E978A088B09AA08AB09EE240CF582EF07
:103014003400F583E0F8A3E0F9E849603B7508065D
:1030240075090078081217F5EE240CF582EF3400C8
:10303400F583E02410FCA3E03400FD74021215D6DD
:10304400AA82AB83120E7F74021215A18A088B091F
:1030540085088285098380548E828F83A3A3A3E08D
:10306400FAA3E0FB1208FD8A0C8B0D850C08850D74
:1030740009E50845096032750C06750D00780C12D7
:1030840017F5E5082405FCE5093400FD7402121562
:10309400D6AA82AB83120E7F74021215A18A0C8BFE
:1030A4000D850C82850D83800302339F8E828F836E
:1030B400A3A3A3A3A3E0A2E25004D2F08002C2F02F
:1030C400A2F0E433F87900740C1215D6E048F0A3AA
:1030D400E049F0EEFCEFFD851882851983AA82ABE6
:1030E40083121017E970127A027B0090076BE0F9E3
:1030F400120ED3E979000233A1900785E0F8A3E02A
:10310400F9E8496043900785E0F8A3E0F5838882F5
:10311400A3A3E0F8A3E0F9E849602D8E828F83A38E
:10312400E0FC79018E828F83A3A3A3E0FAA3E0FBE2
:10313400900785E0F8A3E0F5838882A3A3E0F8A3D1
:10314400E0F58388821215E002339FAE0AAF0B903C
:103154000785E0F8A3E0F9E8496045900785E0F8C1
:10316400A3E0F5838882A3A3E0F8A3E0F9E849602B
:103174002F850A82850B83A3E0FC79028E828F83DC
:10318400A3A3A3E0FAA3E0FB900785E0F8A3E0F58E
:10319400838882A3A3E0F8A3E0F58388821215E074
:1031A40002339FAE0AAF0B7C007D00EE2404FAEFDD
:1031B4003400FB8E828F83A3A3A3E0F9120FE1E90D
:1031C400F508E508C3940A5017EE240AFCEF34000E
:1031D400FD7A0475F006E508A42425F91211DFE947
:1031E40002339FAE0AAF0B900780E06018900B0B80
:1031F400E0F98E828F83A3A3A3E0FAA3E0FB120479
:10320400D7E902339F900B08E0701579058E828F01
:1032140083A3A3A3E0FAA3E0FB1204D7E902339F3C
:103224008E828F83A3A3A3E0FAA3E0FB1208FD8A96
:103234000C8B0D850C08850D098E828F83A3A3A3A7
:10324400A3A3A3A3E0A2E05075E5084509606C853B
:103254000882850983A3A3A3A3E060628E828F837F
:10326400A3A3A3A3A3A3A3A3A3E0F8A3E0F9E8C49F
:10327400540FF879005401F8E95400F9E8A2E04049
:103284003D740E1215D6AC82AD83E5082405FAE52B
:10329400093400FB850882850983A3A3A3A3E0F96D
:1032A400120FE1E9701879038E828F83A3A3A3E040
:1032B400FAA3E0FB1204D7E902339F02339FEE2402
:1032C40005FCEF3400FD850882850983A3A3A3A32D
:1032D400E0F98E828F83A3A3A3E0FAA3E0FB12108C
:1032E40083900785E0F8A3E0F9E849603E900785FC
:1032F400E0F8A3E0F5838882A3A3E0F8A3E0F9E86B
:103304004960287C0079008E828F83A3A3A3E0FA0E
:10331400A3E0FB900785E0F8A3E0F5838882A3A3EC
:10332400E0F8A3E0F58388821215E0806E1205A30D
:10333400E97068900814E06401701A12104DE9FEF7
:103344009008147400F07C0A7D0079007A157B08DB
:10335400120E97803C7E00EEC3940A50348E08759A
:10336400090074152508F58274083509F583E064AD
:1033740001701BEEF9121053E9F88E0875090074F8
:10338400152508F58274083509F5837400F00E805C
:10339400C679501211EBE9FE12103B790174141234
:1033A40015A17F060216B474F31215E274F2121515
:1033B4008B8909EAFEEBFF8C0C851882851983AC96
:1033C40082AD837A0E75F006E509A42420F9121162
:1033D400E5E970727C0679FF851882851983AA82D3
:1033E400AB83120EF7E9705E740C1215D6E0F8A3E5
:1033F400E0F9E8F508E50C6005EE42088004EEF417
:10340400520885080A750B00740C1215D6E0650A7B
:103414007004A3E0650B602AE508A8087900740C21
:103424001215D6E508F0A3E9F0851882851983AC56
:1034340082AD837A0E75F006E509A42420F91211F1
:10344400DFE9790180027900740E1215A17F05026B
:1034540016B474F01215E274E612158B890B8A0CFB
:103464008B0DECFEEDFF740C1215D6AC82AD837A95
:103474000E75F006E50BA42420F91211E5E96003AA
:103484000235BA7C0679FF740C1215D6AA82AB8376
:10349400120EF7E960030235BA851882851983ACE8
:1034A40082AD837A0C7470250BF91211E5E960037F
:1034B4000235B6750A00851882851983AA82AB8302
:1034C400121011E50C450D703A7C0C7900851882B8
:1034D400851983AA82AB83120EF7E9600302359043
:1034E4007C0C7D007900851882851983AA82AB83C0
:1034F400120E978A088B09850882850983750A014B
:10350400023590851882851983AC82AD83AA0CABF1
:103514000D12100B8A0E8B0F850E08850F09E50816
:1035240045097036EE4F6021851882851983AC8277
:10353400AD837A007B0012100B8A0E8B0FA80EA9A4
:103544000F88088909E84970047900806B8508822E
:10355400850983E50CF0A3E50DF0850882850983D0
:10356400A3A3E0F87900EE687002EF69601EEE85AF
:103574000882850983A3A3F0EE4F700D8508828528
:1035840009837400F0A37400F0750A01E50A60224F
:10359400851882851983AA82AB831210118518823B
:1035A400851983AC82AD837A0C7470250BF91211E2
:1035B400DFE9790180027900741A1215A17F0802EB
:1035C40016B474F71215E2EAFEEBFF7B00EBC3942A
:1035D40004504EEBF87900E875F003A4C8AAF0751E
:1035E400F000A42AFA75F003E9A42AF9EC28F5827C
:1035F400ED39F583E06E7003A3E06F7021EBF87989
:1036040000E875F003A4C8AAF075F000A42AFA75BE
:10361400F003E9A42AF9EC28FAED39FB80070B80C2
:10362400AC7A007B007F010216B474F71215E27FB6
:1036340000EFC3940440030236DDEFF87900E87527
:10364400F003A4C8ACF075F000A42CFC75F003E9F9
:10365400A42CF9EA28F582EB39F583E0F4FCA3E025
:10366400F4FDEFF87900E875F003A4C8AEF075F046
:1036740000A42EFE75F003E9A42EF9EA28F582EBE6
:1036840039F583ECF0A3EDF0EFF87900E875F00379
:10369400A4C8ACF075F000A42CFC75F003E9A42CCC
:1036A400F9EA28F582EB39F583A3A3E0F4C0E0EF4F
:1036B400F87900E875F003A4C8ACF075F000A42C08
:1036C400FC75F003E9A42CF9EA28F582EB39F583BB
:1036D400A3A3D0E0F00F0236357F010216B474F0D4
:1036E4001215E274F412158BEAFEEBFF8C088D09B7
:1036F40090081FE0F8A3E0F9E849702CEE4F60064B
:10370400E50845097005790102399AEEFAEFFB12D2
:10371400102FE9900B0EF0900B0EE0C3940A4008B2
:10372400121041E9900B0EF0900B0EE0C3940A4086
:103734000302399890081FE0F8A3E0F9E849600310
:103744000237E4EEFCEFFD7A0E75F006900B0EE006
:10375400A42420F91211DFE9F50C7C0C7D0079FF1B
:10376400851882851983AA82AB83120E978A0E8BE1
:103774000F850E0A850F0B851882851983AC82ADDF
:10378400837A0C900B0EE02470F91211DFE9F50D29
:10379400750E0E750F00780E1217F5EEFCEFFD9006
:1037A4000B0EE0F87900E875F00EA4C8AAF075F0E5
:1037B40000A42AFA75F00EE9A42AF9748728FA7489
:1037C4000739FB120E7F74021215A18A0E8B0FA803
:1037D4000EA90F90081FE508F0A3E509F00239943B
:1037E40090081FE0F8A3E0C82406F582E83400F549
:1037F40083E0F8A3E0F9E849604390081FE0F8A3E8
:10380400E0C82406F582E83400F583E0FCA3E0FD7B
:103814007A1B75F006900B0EE0A42421F91211DF37
:10382400E9F890081FE0F9A3E0C92406F582E93419
:1038340000F5837400F0A37400F002399490081F1B
:10384400E0F8A3E0C8240AF582E83400F583E0F840
:10385400A3E0F9E849604390081FE0F8A3E0C82416
:103864000AF582E83400F583E0FCA3E0FD7A1B75D9
:10387400F006900B0EE0A42422F91211DFE9F8906F
:10388400081FE0F9A3E0C9240AF582E93400F583AE
:103894007400F0A37400F002399490081FE0F8A3B8
:1038A400E0C8240CF582E83400F583E0F8A3E0F9DD
:1038B400E849604390081FE0F8A3E0C8240CF582AF
:1038C400E83400F583E0FCA3E0FD7A1075F006907F
:1038D4000B0EE0A42423F91211DFE9F890081FE08D
:1038E400F9A3E0C9240CF582E93400F5837400F0EF
:1038F400A37400F002399490081FE0F8A3E0C824F0
:1039040008F582E83400F583E0F8A3E0F9E84960BB
:103914006F90081FE0F8A3E0C82408F582E834009B
:10392400F583E0FCA3E0FD7A1075F006900B0EE041
:10393400A42424F91211DFE9F50A90081FE0F8A382
:10394400E0C82408F582E83400F583E02410FCA3E1
:10395400E03400FD7A0475F006900B0EE0A42425F3
:10396400F91211DFE9F890081FE0F9A3E0C924086F
:10397400F582E93400F5837400F0A37400F080103C
:10398400900813E0600312109512107D79018006EF
:10399400790080027901740C1215A17F080216B413
:1039A40074F71215E274F212158BE9FE85188285FC
:1039B4001983AC82AD837A0E75F006A42420F91223
:1039C40011E5E9700E740C1215D6E0F8A3E0F9E8DD
:1039D400F980027900740E1215A17F010216B474E5
:1039E400F41215E274F212158B8909EAFEEBFFE575
:1039F40009C3940A5004EE4F70047902804B851871
:103A040082851983AC82AD837A0E75F006E509A42C
:103A14002420F91211E5E9F508E508702A750A066B
:103A2400750B00780A1217F574021215D6AC82AD24
:103A340083EEFAEFFB120E7F74021215A18A0A8B31
:103A44000B850A82850B83A908740E1215A17F04C5
:103A54000216B474F41215E2EAFEEBFF750800E5F1
:103A640008C3940A5045750A06750B00780A1217A4
:103A7400F5EEFCEFFDE508A8087900E875F00EA462
:103A8400C8AAF075F000A42AFA75F00EE9A42AF980
:103A9400748D28FA740739FB120E9174021215A161
:103AA400E96004A9088006050880B4790A7F040245
:103AB40016B474F41215E2EAFEEBFF750800E5088B
:103AC400C3940A5045750A06750B00780A1217F557
:103AD400EEFCEFFDE508A8087900E875F00EA4C82F
:103AE400AAF075F000A42AFA75F00EE9A42AF97474
:103AF4008728FA740739FB120E9174021215A1E992
:103B04006004A9088006050880B4790A7F040216B7
:103B1400B474F71215E274F012158BEAFEEBFF751C
:103B24000800E508C3940A504B851882851983ACB4
:103B340082AD837A1075F006E508A42423F91211E6
:103B4400E5E9702C7C1079FF851882851983AA8297
:103B5400AB83120EF7E97018EEFCEFFD8518828531
:103B64001983AA82AB831204ADE97004A908800604
:103B7400050880AE790A74101215A17F010216B4EB
:103B840074F41215E2750800E508C3940A400302B0
:103B94003C66E508A8087900E875F00EA4C8AAF008
:103BA40075F000A42AFA75F00EE9A42AF97487289E
:103BB400FC740739FD7A0E75F006E508A42420F993
:103BC4001211E5E97003023C617C067D0079FFE592
:103BD40008AA087B00EA75F00EA4CAA8F075F000E4
:103BE400A428F875F00EEBA428FB74872AFA74074E
:103BF4003BFB120E978A0A8B0BAE0AAF0B7C067D39
:103C04000079FFE508AA087B00EA75F00EA4CAA8AB
:103C1400F075F000A428F875F00EEBA428FB748D61
:103C24002AFA74073BFB120E978A0A8B0BAC0AAD77
:103C34000BE508A8087900E875F00EA4C8AAF07589
:103C4400F000A42AFA75F00EE9A42AF9749328F571
:103C540082740739F5837400F0A37400F005080238
:103C64003B8C900813E0600312109512107D7F04C2
:103C74000216B474F71215E27E00EEC3940A5032B1
:103C84007C0679FFEEFA7B00EA75F00EA4CAA8F070
:103C940075F000A428F875F00EEBA428FB74872AAD
:103CA400FA74073BFB120EF7E96004EEF980050E87
:103CB40080C8790A7F010216B474F71215E27E00F7
:103CC4007F00EFC3940A502F7C0679FFEFFA7B0044
:103CD400EA75F00EA4CAA8F075F000A428F875F0EF
:103CE4000EEBA428FB74872AFA74073BFB120EF729
:103CF400E970010E0F80CBEEF97F010216B474F760
:103D04001215E27E007F00EFC3940A500DEE700A94
:103D1400EFF9121053E9FE0F80EDEEF97F01021660
:103D2400B474F01215E274CB12158B8909900B0E42
:103D3400E06509701D7A017B0090076BE0F9120EB3
:103D4400D9E97A027B0090076BE0F9120ED9E912E7
:103D540010A174271215D6AC82AD837A0E75F006C5
:103D6400E509A42420F91211E5E96003023E917CDF
:103D74000679FF74271215D6AA82AB83120EF7E9CF
:103D84006003023E917C0E7D0079FF74271215D6E4
:103D9400AA82AB83120E978A0A8B0B850A0C850BB9
:103DA4000D7C1B7D0079FF740C1215D6AA82AB839F
:103DB400120E978A0E8B0F850E0A850F0B7C0C7DD5
:103DC4000079FF851882851983AA82AB83120E9726
:103DD4008A0E8B0FAE0EAF0F74271215D6AC82ADC0
:103DE400837A0E75F006E509A42420F91211DFE99F
:103DF400F508740C1215D6AC82AD837A1B75F006E7
:103E0400E509A42421F91211DFE94208740C121502
:103E1400D6AC82AD837A1B75F006E509A42422F999
:103E24001211DFE94208740C1215D6AC82AD837A04
:103E34001075F006E509A42423F91211DFE94208FC
:103E4400740C1215D6AC82AD837A1075F006E509B0
:103E5400A42424F91211DFE94208740C1215D6AC1B
:103E640082AD837A0475F006E509A42425F91211BC
:103E7400DFE94208851882851983AC82AD837A0C08
:103E840074702509F91211DFE942088003750800EE
:103E9400A90874351215A17F080216B474F7121517
:103EA400E2E9FE90076BF012103B7F010216B47436
:103EB400F21215E2890AEAFEEBFFEE5400F8EF5421
:103EC40080F9E849603590076BE0F9120EBB8A0C63
:103ED4008B0DA80CA90D88088909E8496012AA0865
:103EE400AB09121065E96008AA08AB09120EA9E92A
:103EF400EE6400FAEF6480FB023FB7EE5402602DDB
:103F04007C007D007A007B00121017E960187A01AA
:103F14007B0090076BE0F9120ED3E9EE6402FAEF2E
:103F24006400FB023FB77A027B00023FB7EEA2E0D7
:103F3400507D90081FE0F8A3E0F5838882A3A3A333
:103F4400E0FAA3E0FB12109BE9605E900785E0F8BD
:103F5400A3E0F9E8496045900785E0F8A3E0F5831C
:103F64008882A3A3E0F8A3E0F9E849602F7C0079F4
:103F74000190081FE0F8A3E0F5838882A3A3A3E0DF
:103F8400FAA3E0FB900785E0F8A3E0F5838882A319
:103F9400A3E0F8A3E0F58388821215E01210A1EEE5
:103FA4006401FAEF6400FB800A7A017B0080047AE2
:103FB400007B007F060216B474F71215E2EAFEEBEA
:103FC400FF7508018E828F83E024506013146019FA
:103FD40024E1701CEEFAEFFB120FF9E9F5088010EA
:103FE400EEFAEFFB12106B8007EEFAEFFB12107182
:103FF400A9087F010216B474F71215E2EAFEEBFF7A
:104004008E828F83A3A3A3A3E0641E701179008E14
:10401400828F83A3A3E0FAA3E0FB120FE7E97F01F9
:104024000216B474F61215E2EAFEEBFF8E828F8359
:10403400A3A3A3A3E0703A8E088F0985088285099B
:1040440083A3A3A3A3A3A3A312180C8508828509A1
:1040540083A3A3A3A3A3E0FCA3E0FD8508828509B1
:1040640083A3A3E0FAA3E0FB120FED74021215A1DF
:10407400E97F020216B474F71215E2EAFEEBFF9030
:10408400076BE0F98E828F83A3E0FAA3E0FB1207AB
:1040940029E97F010216B4C082C08374FF12158B14
:1040A400121047E9C39402400B8518828519837462
:1040B40002F08009851882851983740AF0851882B4
:1040C400851983AC82AD837A0179051205BBE97445
:1040D400011215A1D083D08202013574F21215E2C7
:1040E40074E812158BEAFEEBFF890A8C088D097CB3
:1040F400187D007900851882851983AA82AB831202
:104104000E978A0C8B0DAC0CAD0D85188285198326
:10411400EEF0A3EFF090076DE0C0E074021215D644
:10412400D0E0F090076EE0C0E074031215D6D0E042
:10413400F0900B0DE0C0E074171215D6D0E0F074C7
:10414400151215D6E054FEF8A3E054FFF9900B0CB9
:10415400E0A2E0E433FA7B00E84AF8E94BF974158D
:104164001215D6E8F0A3E9F0900B0CE0A2E150049C
:10417400D2F08002C2F074151215D6E054FDFAA3F1
:10418400E054FFFBA2F0E433F87900C333F8E933D9
:10419400F9EA48F8EB49F974151215D6E8F0A3E9E1
:1041A400F0900B0CE0A2E35004D2F08002C2F07451
:1041B400151215D6E054F7FAA3E054FFFBA2F0E47D
:1041C40033F50C750D007403780C121578EA450C60
:1041D400F8EB450DF974151215D6E8F0A3E9F09043
:1041E4000B0CE0A2E45004D2F08002C2F074151269
:1041F40015D6E054EFFAA3E054FFFBA2F0E433F544
:104204000C750D007404780C121578EA450CF8EB63
:10421400450DF974151215D6E8F0A3E9F0900B0CCE
:10422400E0A2E55004D2F08002C2F074151215D653
:10423400E054DFFAA3E054FFFBA2F0E433F50C757D
:104244000D007405780C121578EA450CF8EB450D51
:10425400F974151215D6E8F0A3E9F0900B0CE0A25E
:10426400E25004D2F08002C2F074151215D6E05464
:10427400FBFAA3E054FFFBA2F0E433F50C750D0048
:104284007402780C121578EA450CF8EB450DF974B4
:10429400151215D6E8F0A3E9F090076EE0602A75D0
:1042A4000C10750D00780C1217F57C6F7D077406E1
:1042B4001215D6AA82AB83120E7F74021215A18A3C
:1042C4000C8B0D850C82850D8390077FE06012E5D1
:1042D4000A600E74151215D6E04402F0A3E04400FF
:1042E400F090077FE0600678017900800478007917
:1042F4000074141215D6E048F090076CE06006785C
:1043040004790080047800790074141215D6E0480A
:10431400F0AC08AD09851882851983AA82AB831293
:1043240004D1E974181215A17F060216B474F712A9
:1043340015E2EAFEEBFF75080090077FE06006785F
:10434400017900800478007900E8420890076CE065
:10435400600678047900800478007900E84208A9AE
:1043640008EEFAEFFB12058BE97F010216B474EE36
:104374001215E274E512158B8A0C8B0DE9FF8C087B
:104384008D09742D1215D6E0F50A74086509700AB2
:1043940075F006EFA42422FE800875F006EFA4242D
:1043A40021FE7C1B7D007900851882851983AA82F1
:1043B400AB83120E978A108B1185100E85110F8511
:1043C4001882851983AC82AD837A1BEEF91211E54C
:1043D400E9703C741A1215D6E0C394074031741A7C
:1043E4001215D6E0C394115026E50AF50B780B128A
:1043F40017F974011215D6AC82AD83E508A2E0E486
:1044040033F9AA0CAB0D1204E374011215A1E9747B
:104414001B1215A17F0A0216B474F71215E21207D3
:104424009BE97E00EEC3940A50557C0679FFEEFAB0
:104434007B00EA75F00EA4CAA8F075F000A428F871
:1044440075F00EEBA428FB74872AFA74073BFB1261
:104454000EF7E97027EEF87900E875F00EA4C8AA03
:10446400F075F000A42AFA75F00EE9A42AF974870D
:1044740028FA740739FB79001207A1E90E80A57F99
:10448400010216B474F61215E274FD12158BEAFEDD
:10449400EBFF900821E0F8A3E0F9E84970397508CA
:1044A4002375090878081217F5750802750900784C
:1044B400081217F575089F75098178081217F57C9D
:1044C400FF7DFF7A017B001205FD74061215A19091
:1044D4000821EAF0A3EBF0900821E0F8A3E0F9E862
:1044E4004970030245A9E4F508F50978081217F59F
:1044F40074041215D685820885830978081217F585
:1045040074041215D685820885830978081217F574
:1045140090082312180C7902900821E0FCA3E0FD16
:10452400EEFAEFFB12071774081215A1E9704A8519
:104534001882851983E0FA7B0074011215D6E0F81D
:104544007900E4C8F9EA28F508EB39F509E50845E6
:1045540009602678081217F5900821E0F8A3E0F521
:10456400838882A3A3A3A3E0FCA3E0FDEEFAEFFB00
:10457400120FED74021215A1E9E4F508F5097808A3
:104584001217F590082312180C7CFF7DFF90082168
:10459400E0FAA3E0FB12060974041215A1900821A5
:1045A400EAF0A3EBF0900821E0F8A3E0F9E8497001
:1045B4000479018002790074031215A17F020216A6
:1045C400B4C082C08390081FE0F8A3E0F9E8496012
:1045D4001790081FE0FAA3E0FB120EA9E9F890086F
:1045E4001F7400F0A37400F0900B0E740AF0D083D3
:1045F400D082020135C082C083E99009ECF0024800
:104604002374F71215E2E99002E1F07C197D037A34
:10461400FF7BFF12072F9002E274FFF0A3F0A3E4E4
:10462400F0A3F079051206BD9002E1E0F91205E568
:104634007A477B071208EB7F010216B474F4121553
:10464400E28A088B09EB548060309002E1E0F912B1
:104654000EBB8A0A8B0BAE0AAF0BEE4F60138E8231
:104664008F83E064B070031206CFEEFAEFFB120EF4
:10467400A9AA08E5096480FB80047A007B0002474C
:10468400F274F21215E274FC12158BEAFEEBFFEEE3
:104694004F603874021215D6EEF0A3EF124A57ECAD
:1046A400F0A3ED124A57AA82AB831205DFE9F5089D
:1046B400707374121215D612560BE50A450B606519
:1046C4008E828F83124733EE4F7005750802805532
:1046D4007A067B00120F158A0C8B0DA80CA90DE825
:1046E400497005750813803D88828983E412473D2B
:1046F400A3A3EEF0A3EF125AA4E50AF0A3E50BF08E
:104704009002E71247C59002E76017E0FCA3E0803F
:1047140003EAFCEBFD8C828D831247C570F38C8217
:104724008D83125530A90874041215A1025CA6A346
:10473400A3A3A3E0FEA3E0FF22F0A3F08882898371
:104744002274F21215E2890AE975F017A4FEAFF09B
:104754009002E6E4F09002E41247C5600A120F1BCF
:104764009002E4E4F0A3F0EEFAEFFB120F158A08CE
:104774008B09EA4509602FEEFCEFFD7900120E97D4
:104784009002E4E508F0A3E509F07B0080081247F5
:10479400AFE4F0A3F00BEBC3950A40F2E50A9002F4
:1047A400E6F0790080027913025CA6EB75F017A499
:1047B400F8A9F09002E4E028FAA3E0398A82F583AC
:1047C400221252C6EA4B2274F41215E27900EAA2CC
:1047D400E0501B75083875098178081217F57C04B8
:1047E4007D007AEE7B091206B774021215A17F04CC
:1047F4000216B4C082C0839002E712482A601C8863
:10480400828983A3A3E06A7003A3E06B888289830F
:1048140070E8A3A3A3A31252C280047A007B00D041
:1048240083D082020135125D79E8492274EE1215B3
:10483400E274FC12158BEAFEEBFF8518828519835E
:10484400E4F0A3F0EE2402125514EE2405124A45B6
:10485400EE2404F50EEF124E2AE024FE603924FC07
:10486400604624FE605224FE605E24FE700302490A
:104874004A24FE70030249C224FE70030249D12473
:10488400FE70030249E024FC70030249EF24FE7029
:10489400030249FE024A3B9003007417F0A3E4129A
:1048A4004A5F120363024A3B851882851983AC82EE
:1048B400AD831206D5024A0B851882851983AC8212
:1048C400AD831206DB024A0B850C08850D097402C0
:1048D4001215D6AC82AD838508828509831252C233
:1048E4001206038A0C8B0DAC0CAD0DEC4D6042E44A
:1048F400F50CF50D780C1217F5750C00750D037891
:104904000C1217F5750C01750D03780C1217F5745C
:10491400081215D612180C79161252BC1207177405
:10492400081215A1E9F50C700B1252B812037B8022
:104934000F750C01850882850983124A4D12553082
:10494400850C08024A0E74021215D6AC82AD83851A
:104954000C82850D831252C21206038A108B11AC8D
:1049640010AD11EC4D6043850C82850D83A3A31219
:10497400180C75100075110378101217F5751001D5
:1049840075110378101217F574081215D612180C45
:1049940079161252BC12071774081215A1E9F50909
:1049A400700B1252B8120381800F750901850C82B5
:1049B400850D83124A4D125530850908804C85189F
:1049C40082851983AC82AD831206E1803A85188210
:1049D400851983AC82AD831206E7802B8518828506
:1049E4001983AC82AD831206ED801C85188285196B
:1049F40083AC82AD831206F3800D851882851983FA
:104A0400AC82AD831206F9E9F508E50860298E82C7
:104A14008F83A3E06414601F850E82850F83E0906A
:104A24000300124A57125D75900301125530E508D0
:104A3400A3124A5F12035DEEFAEFFB12067B0254E7
:104A44001CF50CEF3400F50D22125D798518828572
:104A5400198322F085188285198322F07C007D0356
:104A6400850A82850B831252C62274EE1215E274F3
:104A7400FC12158B8A0A8B0B8C0E8D0FEA2405F51C
:104A840008EB3400F5097C157D0079007A007B037E
:104A9400120E97E5082402F50CE509124A48851818
:104AA4008285198385821085831178101217F58504
:104AB4000882850983A3A3A3A3124F721217F5E5F5
:104AC400082405F510E5093400F51178101217F5DE
:104AD400850C82850D831252CC1205FD74061215C5
:104AE400A18A108B11AE10AF11E50A2402F50AE574
:104AF4000B125517EE4F7003024C348017740212D8
:104B040015D61252C288828983EAF0A3EBF090038F
:104B140000E004F0900300E0C394054003024C3429
:104B2400E4F510F51178101217F57510E9751102F6
:104B340078101217F57510EA75110278101217F52E
:104B440074061215D612180C7910EEFCEFFD1252F1
:104B5400BC12071774081215A1E9705E85088285D6
:104B64000983A3A3A3A3A3A3A3E0F89002E9E068A5
:104B74007048124F721217F57CEA7D02E50824088A
:104B8400FAE5093400FB120E9174021215A1E960D2
:104B9400298E828F83A3A3A3A31252C2900300E0A1
:104BA400F5107402781012157874012510F58274CA
:104BB400033511F583EAF0A3EBF074021215D685E0
:104BC400821085831178101217F574021215D6120B
:104BD400180C850C82850D83125D8A1206097404F3
:104BE4001215A18A108B11AE10AF11900300E0F5DD
:104BF400107511007402781012157874002510F8DD
:104C040074033511F988828983A31247C57003029E
:104C14004AF8E82403F8E93400F9EE4F6003024B44
:104C2400018882898374FFF0A3F0900300E004F00C
:104C3400900300E0600A1252B812036F7900800BEF
:104C4400850882850983125527790A02541C74EA5F
:104C54001215E274FE12158B8C128D13EA2405F5DD
:104C64000CEB125D94124737750800750900EA24AD
:104C740002F510EB3400F5118518828519838582BD
:104C84000A85830B780A1217F5850C82850D83A398
:104C9400A3A3A3124E341217F5E50C2405F50AE577
:104CA4000D125517780A1217F5850C82850D83129B
:104CB4005D881205FD74061215A18A0A8B0BEA455C
:104CC4000B7003024DE5EA2404F50EEB124E2A1292
:104CD40047378A828B83A3A3A3E0F98510828511C9
:104CE400831252C21205EBE9F5096003024DE5E4B3
:104CF400F514F51578141217F57514E9751502787D
:104D0400141217F57514EA75150278141217F57450
:104D1400061215D612180C7913AC0AAD0B85108245
:104D24008511831252C212071774081215A1E9F5EE
:104D3400096003024DE59002E9E0F8E5087009E036
:104D44002402900301F08017900301E0FCE82402A0
:104D5400FAE43400FBEA6C7001EB6003024DE98570
:104D64000882AA82124F699414124F615073850EFF
:104D740082850F83E0C0E074022A124E21D0E0F055
:104D84000508850E82850F83A3E0C0E085080A74B8
:104D940002250A124E21D0E0F005089002E9124ED5
:104DA400341217F57CEA7D0285080A7402250AFA92
:104DB40074033400FB120E7F74021215A19002E9F1
:104DC400E02508F50874FF6E700374FF6F6012EE3F
:104DD40024010EEF3400FFE508C394145003024C81
:104DE4007CE50860131251AD85108285118312523F
:104DF400C212037579008014E509700375090A85E8
:104E04001282851383EEF0A3EFF0A9097402121540
:104E1400A17F0E0216B485080C7402250CF5827469
:104E2400033400F583223400F50F850E82F58322C6
:104E3400125AB72274EE1215E274FE12158B8C0E00
:104E44008D0FEA2405F50CEB124A48750B0090030C
:104E540000E4F0F50AEA2402F508EB3400F50980D1
:104E640049900300E0FA9002E9E0F8124F699417C0
:104E7400124F61400D900300E0F87416C39890023D
:104E8400E9F0124F721217F57CEA7D0274012AFAD6
:104E940074033400FB120E7F74021215A19002E910
:104EA400E0F8900300E028F0050AE50C2416F582EA
:104EB400E50D124E25E0F8E50AC3984003024F4A77
:104EC400900300E0C39416507DE50AC333F8E4333D
:104ED400F9E50C28FEE50D39FF851882851983ACA8
:104EE40082AD838E828F831252C21206038A108B84
:104EF40011AC10AD11EC4D7005750B018043E4F558
:104F040010F51178101217F57510E9751102781063
:104F14001217F57510EA75110278101217F5740658
:104F24001215D612180C7916850882850983125237
:104F3400C212071774081215A1E9F50B7003024E8B
:104F44006512552380107C007D03850882850983C2
:104F54001252C2120387A90B740202541EE9940070
:104F6400C365D03322EA28F8E43400F9E822E0F5F6
:104F74001075110078102274EA1215E274FC1215EF
:104F84008B8A0C8B0D8C128D13EA2405F50AEB1217
:104F94005517750800750900E50A2402F510E50B9C
:104FA4003400F51174021215D685820E85830F78AC
:104FB4000E1217F5850A82850B83A3A3A3A3125AA5
:104FC400631217F5E50A2405F50EE50B3400F50F19
:104FD400780E1217F585108285118312551D125211
:104FE400BC1205FD74061215A18A0E8B0FAE0EAF0E
:104FF4000FE50C2402F50EE50D3400F50F80408812
:1050040082898374FFF00508124E1A74FFF00508B4
:105014009002E9E0F50C750D00780C1217F57CEAA6
:105024007D0285080C7402250CFA74033400FB120B
:105034000E7F74021215A19002E9E02508F508EE2E
:105044004F60718E828F83A3A3A3E0F9850E8285BE
:105054000F831252C21205EBE9F509EE2404124A39
:1050640045E97044E4F514F51578141217F5751430
:10507400E975150278141217F57514EA7515027896
:10508400141217F574081215D612180C7911EEFCC7
:10509400EFFD850E82850F831252C2120717740822
:1050A4001215A1E9F5096027850C82850D8312513B
:1050B400A3125530E50870030251891251AD850ED3
:1050C40082850F831252C212038D790002519E858C
:1050D4000882AA82EA9002E97009E024049003019C
:1050E400F08022E0F8900301E0F514E82404FCE4E5
:1050F4003400FDEC65147001ED70C0124F69941218
:10510400124F6150B6850C82850D83E0C0E07402B5
:105114002A124E21D0E0F00508850C82850D83A368
:10512400E0C0E0124E1AD0E01251BF85820C858394
:105134000D780C1217F574041215D612180C85107C
:1051440082851183125D8A12060974041215A18ADC
:105154000C8B0DAE0CAF0D85080C7402250CF87485
:10516400033400F9EE4F7003025003851882851949
:1051740083E0888289831251BFA3E0C0E0124E1AF3
:10518400D0E0025011E509700375090A850A828589
:105194000B831251A3125530A9097404024E121242
:1051A4005D7985128285138322900301E0F5F0E591
:1051B4000884900300F07C007D0322F00508851824
:1051C400828519832274EC1215E274FE12158B8AFF
:1051D400088B098C0E8D0FEA2405FEEB3400FF8545
:1051E4001882851983AC82AD838E828F831252C25A
:1051F4001206038A0A8B0BEE2418124A45EA450B61
:105204007003025293125405503285188285198313
:105214001252C212070B8A108B11EA4511606B7986
:1052240012AC0AAD0B8508828509831252C285101F
:10523400828511831215E0E9F50A7058E4F50AF540
:105244000B780A1217F58E828F83A3A3E0F50A78F0
:105254000A1217F5EE2403125514780A1217F58E64
:10526400828F831252CC12071D74061215A1E9F520
:105274000A7021850C82850D83E0701F8508828564
:1052840009831252C21203938011750A0E800975A4
:105294000A018004E50A6003125523850C82850DFA
:1052A40083E0600479008002A90A74021215A17FC8
:1052B4000C0216B47C007D03850A82850B8312528E
:1052C400C622E0FAA3E0FB22E0FCA3E0FD8508820D
:1052D4008509831252C62274EE1215E274FE121569
:1052E4008B8A088B098C0C8D0DEA2405FEEB3400A7
:1052F400FF750E00851882851983AC82AD838E827A
:105304008F831252C21206038A0A8B0BEA450B7072
:10531400030253F1125405503585188285198312FE
:1053240052C212070B8A0E8B0FEA450F605E791288
:10533400AC0AAD0B8508828509831252C2850E82A0
:10534400850F831215E0E9F50E60030253F4850816
:105354008285098312560BAA0AFB1206FF8A108B58
:1053640011A810A911E849701E7AFF7BFF1206FFED
:105374008A108B11A810A911E849606C888289836E
:10538400E50AF0A3E50BF0750A008007750E0E80A0
:105394005F050A9002E6E0FAE50AC39A504AE50A74
:1053A40075F017A4FAABF088828983A3A3E02AFAE4
:1053B400A3E03BFB8A828B8312551DEC4D70D275A2
:1053C4000A17750B00780A1217F5EEFCEFFD120EA2
:1053D4007F74021215A1EEFCEFFD85088285098316
:1053E4001252C21203998014750E098003750E01BE
:1053F400125D71850C82850D83125530A90E024F02
:105404005CE5082402F508E5093400F5098A828B75
:1054140083A3A3A3E0A2E52274041215A17F0A02C8
:1054240016B474EC1215E28C108D11EA2405F50CF7
:10543400EB124A48750F00EA2402F50AEB125517DD
:10544400850A82F5831252C21206FF8A088B09EA82
:1054540045097003025509750E008071850C82851B
:105464000D83E06401704F8E828F83A3A312180C06
:105474008E828F83A3A3A3A3E0F512751300781281
:105484001217F5EE2405F512EF3400F51378121215
:1054940017F51252BC12071D74061215A1E9F50F77
:1054A4006014850C82850D83E4F0125D7185108291
:1054B4008511831255307C177D007900EEFAEFFBDD
:1054C400120E978E828F83E4F0A3F0050E9002E60D
:1054D400E0F8E50EC398501EE50E75F017A4F8A980
:1054E400F0850882850983A3A3125D9E12551DECE5
:1054F4004D600302546085088285098374FFF0A31C
:10550400F0E50F70061252BC12039FA90F0252B3AA
:10551400F50AEF3400F50B22A3E0FCA3E0FD228E94
:10552400828F83125D79850E82850F83E8F0A3E96B
:10553400F022C082C0839002E2E06A7003A3E06BB1
:1055440070067AE27B0280047A007B00024823C062
:1055540082C08378008C828D83E06A7003A3E06B41
:105564007010E875F003A4F8A9F0EC28FAED39FB03
:105574008015088C828D83A3A3A3E06A7003A3E043
:105584006B60DF7A007B0002482374F61215E21286
:1055940006C98A828B83E582458370067A007B0084
:1055A4008007A3A3A3A31252C2025C2274F21215B1
:1055B400E2E9FE740E1215D612560B74101215D6AB
:1055C400125A838C828D83E064027036A3125D7F4D
:1055D400F50CA3E0F9A80C740268700374296970CF
:1055E40021750C02750D00780C1217F57808121746
:1055F400F5780A1217F5EEF912074174061215A18F
:1056040080027901025CA6E0F50AA3E0F50B22749E
:10561400E81215E274FB12158BE98518828519834B
:10562400F08A168B17ECFEEDFF751000741D121531
:10563400D6125D75741D1215D61255308E828F8365
:10564400A3A3A3E0A2E4502D741D1215D61252C2D6
:1056540012070B8A828B83E58245837003025A54B6
:10566400790AEEFCEFFDAA16AB171215E0E9F51066
:105674006003025A57741F1215D6125A83742112EA
:1056840015D612560B74231215D6E0F50EA3E0F5C9
:105694000F8E828F83E064026003025A02A3125DBC
:1056A40075850882850983A3858212858313EE2478
:1056B40006124A4588828983E0FAA3E0F9EA2400C5
:1056C400F514E439F515781412187F010000280147
:1056D40028F75607000228BC57032829570029F346
:1056E4005801291E590229BF580329F35804299D3A
:1056F40059025AE50E450F60030259FD850C828557
:105704000D83125A78FAE9FB8A828B83E0850A8238
:10571400850B83125AAE1217F58A828B83A3E0FCA1
:10572400A3E0025987E50E450F60030259FD850A7F
:1057340082850B837401F0125A8B85088285098354
:10574400F07C007D008E828F83A3A3A3A3E02401B9
:10575400FAA3E03400FB120603EA4B60418A828B11
:1057640083E02402F8850A82850B83E028F0EA248A
:1057740004F8EB3400F988828983E085128285136A
:1057840083125AC0125AAE1217F58A828B831255AD
:105794001CE5082403FAE5093400FB02598C850A48
:1057A40082850B83E02404F07C047D007900AA1236
:1057B400AB13120E97025A57E50E450F60030259B8
:1057C400FD125A8BFEA3E0FF850A82850B837404C5
:1057D400F0EE850882850983F0EF851282851383B4
:1057E400F074031215D6AC82AD83EEFAEFFB120609
:1057F400038A0C8B0DEA450D70030258A08A828B34
:1058040083A3A312473374011215D685820E8583B0
:105814000F780E1217F574051215D612180C7CFFAA
:105824007DFF12060974041215A18B0FEA450F704F
:1058340033850C82850D83125A631217F5850C8209
:10584400850D83A312180C7C027D007A9B7B811248
:10585400043574041215A1E9700A74011215D67482
:10586400FFF0A3F08E828F83E064027039750C021E
:10587400750D00780C1217F58E828F8312551CE576
:10588400082404FAE5093400FB120E7F7402121591
:10589400A1850A82850B83E0240280097401121514
:1058A400D6EEF0A3EFF074011215D6125A74F07408
:1058B400011215D6A3125A6C0259F7E50E450F6072
:1058C400030259FD850C82850D8312551DAA16AB62
:1058D40017120735850A82850B837402F0EA85085E
:1058E40082850983F0851282851383EB0259FAE5D8
:1058F4000E450F60030259FD125A8BF8A3E0F98597
:105904000A82850B837402F0E8850882850983F096
:10591400E98512828513830259FA850C82850D83E9
:105924001252C2120E79EAFC8C82A882C3950EE44C
:10593400950F405FE8650E7002E50F70047C0080EF
:1059440022851882851983E0FAE50E2AFAE50F34D8
:1059540000FBC3EA98EB94005003E08005E50ECC0D
:10596400C39CFCEC850A82850B83F08C0A750B00C2
:10597400780A1217F5850C82850D83E0250EFCA3A9
:10598400E0350FFDAA08AB09120E7F74021215A1AF
:10599400025A57751007025A57E50E450F705A857B
:1059A4000C82850D83125D75850A82850B837407CD
:1059B40012473F125A6C12473FA3E08512828513A7
:1059C40083F0E82402FAE93400FB8A828B83125ABA
:1059D4006C125A9B125A74A3125AA4125A7DF0E8FC
:1059E4002405F8E93400F988828983125A7DA312C8
:1059F4005AC0A3A3A3A3F0805A75100B8055741D3D
:105A04001215D61252C21206C98A828B83E58245C8
:105A140083603D125D75880C890DE8450D60317811
:105A24000E1217F5780A1217F578081217F574068E
:105A34001215D6E0F9EEFCEFFDAA16AB17850C8221
:105A4400850D831215E074061215A1E9F510800383
:105A540075100EA91074051215A17F100216B4E07A
:105A6400F50E750F00780E22E085088285098322E1
:105A7400125ACA22125D79E822125ACAA3A322E05A
:105A8400F508A3E0F50922850C82850D83E0F8A3CF
:105A9400E0F5838882E022A3A3F08A828B83A32289
:105AA400F088828983A3A3A3A322F08A828B831222
:105AB4005AB722E0F50A750B00780A22F088828929
:105AC40083A3125ACA22E0850882850983A3A322EC
:105AD40074EE1215E274FE12158B8A0A8B0BECFA23
:105AE400EDFB74141215D6E0F510A3E0F51174164D
:105AF4001215D6E0FE74181215D6E0F50EA3E0F5E3
:105B04000F851882851983AC82AD831206038A0C33
:105B14008B0DEA450D60498518828519831252C29E
:105B24001206C98A828B83E5824583602FA3A31260
:105B34005A83E50845096024780E1217F578101287
